{
  "_format": "hh-sol-artifact-1",
  "contractName": "BuyMyRoom",
  "sourceName": "contracts/BuyMyRoom.sol",
  "abi": [
    {
      "inputs": [],
      "stateMutability": "nonpayable",
      "type": "constructor"
    },
    {
      "inputs": [],
      "name": "ERC721EnumerableForbiddenBatchMint",
      "type": "error"
    },
    {
      "inputs": [
        {
          "internalType": "address",
          "name": "sender",
          "type": "address"
        },
        {
          "internalType": "uint256",
          "name": "tokenId",
          "type": "uint256"
        },
        {
          "internalType": "address",
          "name": "owner",
          "type": "address"
        }
      ],
      "name": "ERC721IncorrectOwner",
      "type": "error"
    },
    {
      "inputs": [
        {
          "internalType": "address",
          "name": "operator",
          "type": "address"
        },
        {
          "internalType": "uint256",
          "name": "tokenId",
          "type": "uint256"
        }
      ],
      "name": "ERC721InsufficientApproval",
      "type": "error"
    },
    {
      "inputs": [
        {
          "internalType": "address",
          "name": "approver",
          "type": "address"
        }
      ],
      "name": "ERC721InvalidApprover",
      "type": "error"
    },
    {
      "inputs": [
        {
          "internalType": "address",
          "name": "operator",
          "type": "address"
        }
      ],
      "name": "ERC721InvalidOperator",
      "type": "error"
    },
    {
      "inputs": [
        {
          "internalType": "address",
          "name": "owner",
          "type": "address"
        }
      ],
      "name": "ERC721InvalidOwner",
      "type": "error"
    },
    {
      "inputs": [
        {
          "internalType": "address",
          "name": "receiver",
          "type": "address"
        }
      ],
      "name": "ERC721InvalidReceiver",
      "type": "error"
    },
    {
      "inputs": [
        {
          "internalType": "address",
          "name": "sender",
          "type": "address"
        }
      ],
      "name": "ERC721InvalidSender",
      "type": "error"
    },
    {
      "inputs": [
        {
          "internalType": "uint256",
          "name": "tokenId",
          "type": "uint256"
        }
      ],
      "name": "ERC721NonexistentToken",
      "type": "error"
    },
    {
      "inputs": [
        {
          "internalType": "address",
          "name": "owner",
          "type": "address"
        },
        {
          "internalType": "uint256",
          "name": "index",
          "type": "uint256"
        }
      ],
      "name": "ERC721OutOfBoundsIndex",
      "type": "error"
    },
    {
      "inputs": [
        {
          "internalType": "address",
          "name": "owner",
          "type": "address"
        }
      ],
      "name": "OwnableInvalidOwner",
      "type": "error"
    },
    {
      "inputs": [
        {
          "internalType": "address",
          "name": "account",
          "type": "address"
        }
      ],
      "name": "OwnableUnauthorizedAccount",
      "type": "error"
    },
    {
      "anonymous": false,
      "inputs": [
        {
          "indexed": true,
          "internalType": "address",
          "name": "owner",
          "type": "address"
        },
        {
          "indexed": true,
          "internalType": "address",
          "name": "approved",
          "type": "address"
        },
        {
          "indexed": true,
          "internalType": "uint256",
          "name": "tokenId",
          "type": "uint256"
        }
      ],
      "name": "Approval",
      "type": "event"
    },
    {
      "anonymous": false,
      "inputs": [
        {
          "indexed": true,
          "internalType": "address",
          "name": "owner",
          "type": "address"
        },
        {
          "indexed": true,
          "internalType": "address",
          "name": "operator",
          "type": "address"
        },
        {
          "indexed": false,
          "internalType": "bool",
          "name": "approved",
          "type": "bool"
        }
      ],
      "name": "ApprovalForAll",
      "type": "event"
    },
    {
      "anonymous": false,
      "inputs": [
        {
          "indexed": false,
          "internalType": "uint256",
          "name": "tokenId",
          "type": "uint256"
        },
        {
          "indexed": false,
          "internalType": "uint256",
          "name": "price",
          "type": "uint256"
        },
        {
          "indexed": false,
          "internalType": "address",
          "name": "owner",
          "type": "address"
        }
      ],
      "name": "HouseListed",
      "type": "event"
    },
    {
      "anonymous": false,
      "inputs": [
        {
          "indexed": false,
          "internalType": "uint256",
          "name": "tokenId",
          "type": "uint256"
        },
        {
          "indexed": false,
          "internalType": "uint256",
          "name": "price",
          "type": "uint256"
        },
        {
          "indexed": false,
          "internalType": "address",
          "name": "buyer",
          "type": "address"
        },
        {
          "indexed": false,
          "internalType": "address",
          "name": "seller",
          "type": "address"
        }
      ],
      "name": "HouseSold",
      "type": "event"
    },
    {
      "anonymous": false,
      "inputs": [
        {
          "indexed": true,
          "internalType": "address",
          "name": "previousOwner",
          "type": "address"
        },
        {
          "indexed": true,
          "internalType": "address",
          "name": "newOwner",
          "type": "address"
        }
      ],
      "name": "OwnershipTransferred",
      "type": "event"
    },
    {
      "anonymous": false,
      "inputs": [
        {
          "indexed": true,
          "internalType": "address",
          "name": "from",
          "type": "address"
        },
        {
          "indexed": true,
          "internalType": "address",
          "name": "to",
          "type": "address"
        },
        {
          "indexed": true,
          "internalType": "uint256",
          "name": "tokenId",
          "type": "uint256"
        }
      ],
      "name": "Transfer",
      "type": "event"
    },
    {
      "anonymous": false,
      "inputs": [
        {
          "indexed": false,
          "internalType": "bytes32",
          "name": "hash",
          "type": "bytes32"
        }
      ],
      "name": "UserAddressHash",
      "type": "event"
    },
    {
      "inputs": [
        {
          "internalType": "address",
          "name": "to",
          "type": "address"
        },
        {
          "internalType": "uint256",
          "name": "tokenId",
          "type": "uint256"
        }
      ],
      "name": "approve",
      "outputs": [],
      "stateMutability": "nonpayable",
      "type": "function"
    },
    {
      "inputs": [
        {
          "internalType": "address",
          "name": "owner",
          "type": "address"
        }
      ],
      "name": "balanceOf",
      "outputs": [
        {
          "internalType": "uint256",
          "name": "",
          "type": "uint256"
        }
      ],
      "stateMutability": "view",
      "type": "function"
    },
    {
      "inputs": [
        {
          "internalType": "uint256",
          "name": "tokenId",
          "type": "uint256"
        }
      ],
      "name": "buyHouse",
      "outputs": [],
      "stateMutability": "payable",
      "type": "function"
    },
    {
      "inputs": [
        {
          "internalType": "uint256",
          "name": "tokenId",
          "type": "uint256"
        }
      ],
      "name": "getApproved",
      "outputs": [
        {
          "internalType": "address",
          "name": "",
          "type": "address"
        }
      ],
      "stateMutability": "view",
      "type": "function"
    },
    {
      "inputs": [
        {
          "internalType": "uint256",
          "name": "tokenId",
          "type": "uint256"
        }
      ],
      "name": "getHouseDetails",
      "outputs": [
        {
          "internalType": "address",
          "name": "owner",
          "type": "address"
        },
        {
          "internalType": "uint256",
          "name": "price",
          "type": "uint256"
        },
        {
          "internalType": "bool",
          "name": "forSale",
          "type": "bool"
        },
        {
          "internalType": "uint256",
          "name": "listedTimestamp",
          "type": "uint256"
        },
        {
          "internalType": "uint256",
          "name": "id",
          "type": "uint256"
        }
      ],
      "stateMutability": "view",
      "type": "function"
    },
    {
      "inputs": [
        {
          "internalType": "address",
          "name": "owner",
          "type": "address"
        }
      ],
      "name": "getHousesByOwner",
      "outputs": [
        {
          "internalType": "uint256[]",
          "name": "",
          "type": "uint256[]"
        }
      ],
      "stateMutability": "view",
      "type": "function"
    },
    {
      "inputs": [],
      "name": "getHousesForSale",
      "outputs": [
        {
          "internalType": "uint256[]",
          "name": "",
          "type": "uint256[]"
        }
      ],
      "stateMutability": "view",
      "type": "function"
    },
    {
      "inputs": [],
      "name": "getUserAddressHash",
      "outputs": [
        {
          "internalType": "bytes32",
          "name": "",
          "type": "bytes32"
        }
      ],
      "stateMutability": "nonpayable",
      "type": "function"
    },
    {
      "inputs": [
        {
          "internalType": "uint256",
          "name": "",
          "type": "uint256"
        }
      ],
      "name": "houses",
      "outputs": [
        {
          "internalType": "uint256",
          "name": "id",
          "type": "uint256"
        },
        {
          "internalType": "address",
          "name": "owner",
          "type": "address"
        },
        {
          "internalType": "uint256",
          "name": "listedTimestamp",
          "type": "uint256"
        },
        {
          "internalType": "address payable",
          "name": "to",
          "type": "address"
        },
        {
          "internalType": "uint256",
          "name": "houseprice",
          "type": "uint256"
        },
        {
          "internalType": "bool",
          "name": "forSale",
          "type": "bool"
        }
      ],
      "stateMutability": "view",
      "type": "function"
    },
    {
      "inputs": [
        {
          "internalType": "address",
          "name": "owner",
          "type": "address"
        },
        {
          "internalType": "address",
          "name": "operator",
          "type": "address"
        }
      ],
      "name": "isApprovedForAll",
      "outputs": [
        {
          "internalType": "bool",
          "name": "",
          "type": "bool"
        }
      ],
      "stateMutability": "view",
      "type": "function"
    },
    {
      "inputs": [
        {
          "internalType": "uint256",
          "name": "tokenId",
          "type": "uint256"
        },
        {
          "internalType": "uint256",
          "name": "price",
          "type": "uint256"
        }
      ],
      "name": "listHouseForSale",
      "outputs": [],
      "stateMutability": "nonpayable",
      "type": "function"
    },
    {
      "inputs": [],
      "name": "manager",
      "outputs": [
        {
          "internalType": "address",
          "name": "",
          "type": "address"
        }
      ],
      "stateMutability": "view",
      "type": "function"
    },
    {
      "inputs": [
        {
          "internalType": "address",
          "name": "to",
          "type": "address"
        }
      ],
      "name": "mintHouse",
      "outputs": [],
      "stateMutability": "nonpayable",
      "type": "function"
    },
    {
      "inputs": [],
      "name": "myERC20",
      "outputs": [
        {
          "internalType": "contract WenCoin",
          "name": "",
          "type": "address"
        }
      ],
      "stateMutability": "view",
      "type": "function"
    },
    {
      "inputs": [],
      "name": "name",
      "outputs": [
        {
          "internalType": "string",
          "name": "",
          "type": "string"
        }
      ],
      "stateMutability": "view",
      "type": "function"
    },
    {
      "inputs": [],
      "name": "owner",
      "outputs": [
        {
          "internalType": "address",
          "name": "",
          "type": "address"
        }
      ],
      "stateMutability": "view",
      "type": "function"
    },
    {
      "inputs": [
        {
          "internalType": "uint256",
          "name": "tokenId",
          "type": "uint256"
        }
      ],
      "name": "ownerOf",
      "outputs": [
        {
          "internalType": "address",
          "name": "",
          "type": "address"
        }
      ],
      "stateMutability": "view",
      "type": "function"
    },
    {
      "inputs": [],
      "name": "platformFeePercent",
      "outputs": [
        {
          "internalType": "uint256",
          "name": "",
          "type": "uint256"
        }
      ],
      "stateMutability": "view",
      "type": "function"
    },
    {
      "inputs": [],
      "name": "renounceOwnership",
      "outputs": [],
      "stateMutability": "nonpayable",
      "type": "function"
    },
    {
      "inputs": [
        {
          "internalType": "address",
          "name": "from",
          "type": "address"
        },
        {
          "internalType": "address",
          "name": "to",
          "type": "address"
        },
        {
          "internalType": "uint256",
          "name": "tokenId",
          "type": "uint256"
        }
      ],
      "name": "safeTransferFrom",
      "outputs": [],
      "stateMutability": "nonpayable",
      "type": "function"
    },
    {
      "inputs": [
        {
          "internalType": "address",
          "name": "from",
          "type": "address"
        },
        {
          "internalType": "address",
          "name": "to",
          "type": "address"
        },
        {
          "internalType": "uint256",
          "name": "tokenId",
          "type": "uint256"
        },
        {
          "internalType": "bytes",
          "name": "data",
          "type": "bytes"
        }
      ],
      "name": "safeTransferFrom",
      "outputs": [],
      "stateMutability": "nonpayable",
      "type": "function"
    },
    {
      "inputs": [
        {
          "internalType": "address",
          "name": "operator",
          "type": "address"
        },
        {
          "internalType": "bool",
          "name": "approved",
          "type": "bool"
        }
      ],
      "name": "setApprovalForAll",
      "outputs": [],
      "stateMutability": "nonpayable",
      "type": "function"
    },
    {
      "inputs": [
        {
          "internalType": "uint256",
          "name": "feePercent",
          "type": "uint256"
        }
      ],
      "name": "setPlatformFeePercent",
      "outputs": [],
      "stateMutability": "nonpayable",
      "type": "function"
    },
    {
      "inputs": [
        {
          "internalType": "bytes4",
          "name": "interfaceId",
          "type": "bytes4"
        }
      ],
      "name": "supportsInterface",
      "outputs": [
        {
          "internalType": "bool",
          "name": "",
          "type": "bool"
        }
      ],
      "stateMutability": "view",
      "type": "function"
    },
    {
      "inputs": [],
      "name": "symbol",
      "outputs": [
        {
          "internalType": "string",
          "name": "",
          "type": "string"
        }
      ],
      "stateMutability": "view",
      "type": "function"
    },
    {
      "inputs": [
        {
          "internalType": "uint256",
          "name": "index",
          "type": "uint256"
        }
      ],
      "name": "tokenByIndex",
      "outputs": [
        {
          "internalType": "uint256",
          "name": "",
          "type": "uint256"
        }
      ],
      "stateMutability": "view",
      "type": "function"
    },
    {
      "inputs": [
        {
          "internalType": "address",
          "name": "owner",
          "type": "address"
        },
        {
          "internalType": "uint256",
          "name": "index",
          "type": "uint256"
        }
      ],
      "name": "tokenOfOwnerByIndex",
      "outputs": [
        {
          "internalType": "uint256",
          "name": "",
          "type": "uint256"
        }
      ],
      "stateMutability": "view",
      "type": "function"
    },
    {
      "inputs": [
        {
          "internalType": "uint256",
          "name": "tokenId",
          "type": "uint256"
        }
      ],
      "name": "tokenURI",
      "outputs": [
        {
          "internalType": "string",
          "name": "",
          "type": "string"
        }
      ],
      "stateMutability": "view",
      "type": "function"
    },
    {
      "inputs": [],
      "name": "totalSupply",
      "outputs": [
        {
          "internalType": "uint256",
          "name": "",
          "type": "uint256"
        }
      ],
      "stateMutability": "view",
      "type": "function"
    },
    {
      "inputs": [
        {
          "internalType": "address",
          "name": "from",
          "type": "address"
        },
        {
          "internalType": "address",
          "name": "to",
          "type": "address"
        },
        {
          "internalType": "uint256",
          "name": "tokenId",
          "type": "uint256"
        }
      ],
      "name": "transferFrom",
      "outputs": [],
      "stateMutability": "nonpayable",
      "type": "function"
    },
    {
      "inputs": [
        {
          "internalType": "address",
          "name": "newOwner",
          "type": "address"
        }
      ],
      "name": "transferOwnership",
      "outputs": [],
      "stateMutability": "nonpayable",
      "type": "function"
    }
  ],
  "bytecode": "0x60806040526000600b556001600c553480156200001b57600080fd5b50336040518060400160405280600a81526020017f486f757365546f6b656e000000000000000000000000000000000000000000008152506040518060400160405280600381526020017f485354000000000000000000000000000000000000000000000000000000000081525081600090816200009a91906200167c565b508060019081620000ac91906200167c565b505050600073ffffffffffffffffffffffffffffffffffffffff168173ffffffffffffffffffffffffffffffffffffffff1603620001245760006040517f1e4fbdf70000000000000000000000000000000000000000000000000000000081526004016200011b9190620017a8565b60405180910390fd5b62000135816200034760201b60201c565b506040516200014490620013f4565b6200014f9062001876565b604051809103906000f0801580156200016c573d6000803e3d6000fd5b50600d60006101000a81548173ffffffffffffffffffffffffffffffffffffffff021916908373ffffffffffffffffffffffffffffffffffffffff16021790555033600e60006101000a81548173ffffffffffffffffffffffffffffffffffffffff021916908373ffffffffffffffffffffffffffffffffffffffff16021790555060006040518060600160405280733ac8952803d3ca159a1d6528d9fd32d33902a52973ffffffffffffffffffffffffffffffffffffffff1673ffffffffffffffffffffffffffffffffffffffff16815260200173c46c265a9045921a03a65b6809fe66cc105a6daa73ffffffffffffffffffffffffffffffffffffffff1673ffffffffffffffffffffffffffffffffffffffff168152602001730bf25cdf43c496f9acd92373ba2a00517e8e3ceb73ffffffffffffffffffffffffffffffffffffffff1673ffffffffffffffffffffffffffffffffffffffff16815250905060005b60038110156200033f5760005b6003811015620003285762000312838360038110620003015762000300620018ad565b5b60200201516200040d60201b60201c565b80806200031f906200190b565b915050620002dd565b50808062000336906200190b565b915050620002d0565b505062001a1d565b6000600a60009054906101000a900473ffffffffffffffffffffffffffffffffffffffff16905081600a60006101000a81548173ffffffffffffffffffffffffffffffffffffffff021916908373ffffffffffffffffffffffffffffffffffffffff1602179055508173ffffffffffffffffffffffffffffffffffffffff168173ffffffffffffffffffffffffffffffffffffffff167f8be0079c531659141344cd1fd0a4f28419497f9722a3daafe3b4186f6b6457e060405160405180910390a35050565b6200041d6200059460201b60201c565b600b600081548092919062000432906200190b565b91905055506000600b5490506200045082826200063660201b60201c565b6040518060c001604052808281526020018373ffffffffffffffffffffffffffffffffffffffff168152602001600081526020018373ffffffffffffffffffffffffffffffffffffffff1681526020016000815260200160001515815250600f60008381526020019081526020016000206000820151816000015560208201518160010160006101000a81548173ffffffffffffffffffffffffffffffffffffffff021916908373ffffffffffffffffffffffffffffffffffffffff1602179055506040820151816002015560608201518160030160006101000a81548173ffffffffffffffffffffffffffffffffffffffff021916908373ffffffffffffffffffffffffffffffffffffffff1602179055506080820151816004015560a08201518160050160006101000a81548160ff0219169083151502179055509050505050565b620005a46200073d60201b60201c565b73ffffffffffffffffffffffffffffffffffffffff16620005ca6200074560201b60201c565b73ffffffffffffffffffffffffffffffffffffffff16146200063457620005f66200073d60201b60201c565b6040517f118cdaa70000000000000000000000000000000000000000000000000000000081526004016200062b9190620017a8565b60405180910390fd5b565b600073ffffffffffffffffffffffffffffffffffffffff168273ffffffffffffffffffffffffffffffffffffffff1603620006ab5760006040517f64a0ae92000000000000000000000000000000000000000000000000000000008152600401620006a29190620017a8565b60405180910390fd5b6000620006c1838360006200076f60201b60201c565b9050600073ffffffffffffffffffffffffffffffffffffffff168173ffffffffffffffffffffffffffffffffffffffff1614620007385760006040517f73c6ac6e0000000000000000000000000000000000000000000000000000000081526004016200072f9190620017a8565b60405180910390fd5b505050565b600033905090565b6000600a60009054906101000a900473ffffffffffffffffffffffffffffffffffffffff16905090565b60008062000785858585620008ba60201b60201c565b9050600073ffffffffffffffffffffffffffffffffffffffff168173ffffffffffffffffffffffffffffffffffffffff1603620007d357620007cd8462000aef60201b60201c565b6200081b565b8473ffffffffffffffffffffffffffffffffffffffff168173ffffffffffffffffffffffffffffffffffffffff16146200081a5762000819818562000b3860201b60201c565b5b5b600073ffffffffffffffffffffffffffffffffffffffff168573ffffffffffffffffffffffffffffffffffffffff16036200086757620008618462000ca260201b60201c565b620008af565b8473ffffffffffffffffffffffffffffffffffffffff168173ffffffffffffffffffffffffffffffffffffffff1614620008ae57620008ad858562000d7e60201b60201c565b5b5b809150509392505050565b600080620008ce8462000e1360201b60201c565b9050600073ffffffffffffffffffffffffffffffffffffffff168373ffffffffffffffffffffffffffffffffffffffff161462000919576200091881848662000e5060201b60201c565b5b600073ffffffffffffffffffffffffffffffffffffffff168173ffffffffffffffffffffffffffffffffffffffff1614620009b3576200096460008560008062000f2260201b60201c565b6001600360008373ffffffffffffffffffffffffffffffffffffffff1673ffffffffffffffffffffffffffffffffffffffff168152602001908152602001600020600082825403925050819055505b600073ffffffffffffffffffffffffffffffffffffffff168573ffffffffffffffffffffffffffffffffffffffff161462000a37576001600360008773ffffffffffffffffffffffffffffffffffffffff1673ffffffffffffffffffffffffffffffffffffffff168152602001908152602001600020600082825401925050819055505b846002600086815260200190815260200160002060006101000a81548173ffffffffffffffffffffffffffffffffffffffff021916908373ffffffffffffffffffffffffffffffffffffffff160217905550838573ffffffffffffffffffffffffffffffffffffffff168273ffffffffffffffffffffffffffffffffffffffff167fddf252ad1be2c89b69c2b068fc378daa952ba7f163c4a11628f55a4df523b3ef60405160405180910390a4809150509392505050565b6008805490506009600083815260200190815260200160002081905550600881908060018154018082558091505060019003906000526020600020016000909190919091505550565b600062000b4b83620010ff60201b60201c565b905060006007600084815260200190815260200160002054905081811462000c31576000600660008673ffffffffffffffffffffffffffffffffffffffff1673ffffffffffffffffffffffffffffffffffffffff168152602001908152602001600020600084815260200190815260200160002054905080600660008773ffffffffffffffffffffffffffffffffffffffff1673ffffffffffffffffffffffffffffffffffffffff168152602001908152602001600020600084815260200190815260200160002081905550816007600083815260200190815260200160002081905550505b6007600084815260200190815260200160002060009055600660008573ffffffffffffffffffffffffffffffffffffffff1673ffffffffffffffffffffffffffffffffffffffff16815260200190815260200160002060008381526020019081526020016000206000905550505050565b6000600160088054905062000cb8919062001958565b905060006009600084815260200190815260200160002054905060006008838154811062000ceb5762000cea620018ad565b5b90600052602060002001549050806008838154811062000d105762000d0f620018ad565b5b90600052602060002001819055508160096000838152602001908152602001600020819055506009600085815260200190815260200160002060009055600880548062000d625762000d6162001993565b5b6001900381819060005260206000200160009055905550505050565b6000600162000d9384620010ff60201b60201c565b62000d9f919062001958565b905081600660008573ffffffffffffffffffffffffffffffffffffffff1673ffffffffffffffffffffffffffffffffffffffff168152602001908152602001600020600083815260200190815260200160002081905550806007600084815260200190815260200160002081905550505050565b60006002600083815260200190815260200160002060009054906101000a900473ffffffffffffffffffffffffffffffffffffffff169050919050565b62000e63838383620011bc60201b60201c565b62000f1d57600073ffffffffffffffffffffffffffffffffffffffff168373ffffffffffffffffffffffffffffffffffffffff160362000edc57806040517f7e27328900000000000000000000000000000000000000000000000000000000815260040162000ed39190620019d3565b60405180910390fd5b81816040517f177e802f00000000000000000000000000000000000000000000000000000000815260040162000f14929190620019f0565b60405180910390fd5b505050565b808062000f5c5750600073ffffffffffffffffffffffffffffffffffffffff168273ffffffffffffffffffffffffffffffffffffffff1614155b15620010a757600062000f75846200129060201b60201c565b9050600073ffffffffffffffffffffffffffffffffffffffff168373ffffffffffffffffffffffffffffffffffffffff161415801562000fe157508273ffffffffffffffffffffffffffffffffffffffff168173ffffffffffffffffffffffffffffffffffffffff1614155b801562000ffd575062000ffb81846200132360201b60201c565b155b156200104257826040517fa9fbf51f000000000000000000000000000000000000000000000000000000008152600401620010399190620017a8565b60405180910390fd5b8115620010a557838573ffffffffffffffffffffffffffffffffffffffff168273ffffffffffffffffffffffffffffffffffffffff167f8c5be1e5ebec7d5bd14f71427d1e84f3dd0314c0f7b2291e5b200ac8c7c3b92560405160405180910390a45b505b836004600085815260200190815260200160002060006101000a81548173ffffffffffffffffffffffffffffffffffffffff021916908373ffffffffffffffffffffffffffffffffffffffff16021790555050505050565b60008073ffffffffffffffffffffffffffffffffffffffff168273ffffffffffffffffffffffffffffffffffffffff1603620011755760006040517f89c62b640000000000000000000000000000000000000000000000000000000081526004016200116c9190620017a8565b60405180910390fd5b600360008373ffffffffffffffffffffffffffffffffffffffff1673ffffffffffffffffffffffffffffffffffffffff168152602001908152602001600020549050919050565b60008073ffffffffffffffffffffffffffffffffffffffff168373ffffffffffffffffffffffffffffffffffffffff16141580156200128757508273ffffffffffffffffffffffffffffffffffffffff168473ffffffffffffffffffffffffffffffffffffffff1614806200123f57506200123e84846200132360201b60201c565b5b806200128657508273ffffffffffffffffffffffffffffffffffffffff166200126e83620013b760201b60201c565b73ffffffffffffffffffffffffffffffffffffffff16145b5b90509392505050565b600080620012a48362000e1360201b60201c565b9050600073ffffffffffffffffffffffffffffffffffffffff168173ffffffffffffffffffffffffffffffffffffffff16036200131a57826040517f7e273289000000000000000000000000000000000000000000000000000000008152600401620013119190620019d3565b60405180910390fd5b80915050919050565b6000600560008473ffffffffffffffffffffffffffffffffffffffff1673ffffffffffffffffffffffffffffffffffffffff16815260200190815260200160002060008373ffffffffffffffffffffffffffffffffffffffff1673ffffffffffffffffffffffffffffffffffffffff16815260200190815260200160002060009054906101000a900460ff16905092915050565b60006004600083815260200190815260200160002060009054906101000a900473ffffffffffffffffffffffffffffffffffffffff169050919050565b611ba780620058df83390190565b600081519050919050565b7f4e487b7100000000000000000000000000000000000000000000000000000000600052604160045260246000fd5b7f4e487b7100000000000000000000000000000000000000000000000000000000600052602260045260246000fd5b600060028204905060018216806200148457607f821691505b6020821081036200149a57620014996200143c565b5b50919050565b60008190508160005260206000209050919050565b60006020601f8301049050919050565b600082821b905092915050565b600060088302620015047fffffffffffffffffffffffffffffffffffffffffffffffffffffffffffffffff82620014c5565b620015108683620014c5565b95508019841693508086168417925050509392505050565b6000819050919050565b6000819050919050565b60006200155d62001557620015518462001528565b62001532565b62001528565b9050919050565b6000819050919050565b62001579836200153c565b62001591620015888262001564565b848454620014d2565b825550505050565b600090565b620015a862001599565b620015b58184846200156e565b505050565b5b81811015620015dd57620015d16000826200159e565b600181019050620015bb565b5050565b601f8211156200162c57620015f681620014a0565b6200160184620014b5565b8101602085101562001611578190505b620016296200162085620014b5565b830182620015ba565b50505b505050565b600082821c905092915050565b6000620016516000198460080262001631565b1980831691505092915050565b60006200166c83836200163e565b9150826002028217905092915050565b620016878262001402565b67ffffffffffffffff811115620016a357620016a26200140d565b5b620016af82546200146b565b620016bc828285620015e1565b600060209050601f831160018114620016f45760008415620016df578287015190505b620016eb85826200165e565b8655506200175b565b601f1984166200170486620014a0565b60005b828110156200172e5784890151825560018201915060208501945060208101905062001707565b868310156200174e57848901516200174a601f8916826200163e565b8355505b6001600288020188555050505b505050505050565b600073ffffffffffffffffffffffffffffffffffffffff82169050919050565b6000620017908262001763565b9050919050565b620017a28162001783565b82525050565b6000602082019050620017bf600083018462001797565b92915050565b600082825260208201905092915050565b7f57656e436f696e00000000000000000000000000000000000000000000000000600082015250565b60006200180e600783620017c5565b91506200181b82620017d6565b602082019050919050565b7f5743000000000000000000000000000000000000000000000000000000000000600082015250565b60006200185e600283620017c5565b91506200186b8262001826565b602082019050919050565b600060408201905081810360008301526200189181620017ff565b90508181036020830152620018a6816200184f565b9050919050565b7f4e487b7100000000000000000000000000000000000000000000000000000000600052603260045260246000fd5b7f4e487b7100000000000000000000000000000000000000000000000000000000600052601160045260246000fd5b6000620019188262001528565b91507fffffffffffffffffffffffffffffffffffffffffffffffffffffffffffffffff82036200194d576200194c620018dc565b5b600182019050919050565b6000620019658262001528565b9150620019728362001528565b92508282039050818111156200198d576200198c620018dc565b5b92915050565b7f4e487b7100000000000000000000000000000000000000000000000000000000600052603160045260246000fd5b620019cd8162001528565b82525050565b6000602082019050620019ea6000830184620019c2565b92915050565b600060408201905062001a07600083018562001797565b62001a166020830184620019c2565b9392505050565b613eb28062001a2d6000396000f3fe6080604052600436106101d85760003560e01c80638c639a8511610102578063b88d4fde11610095578063e890834611610064578063e8908346146106e9578063e985e9c51461072a578063eddc426914610767578063f2fde38b14610783576101d8565b8063b88d4fde14610631578063c87b56dd1461065a578063c9fd96ad14610697578063cab230d2146106c0576101d8565b80639946f084116100d15780639946f084146105725780639e4ffa7f1461059b578063a22cb465146105c6578063aeda852f146105ef576101d8565b80638c639a85146104c65780638da5cb5b146104f157806395d89b411461051c57806396a503f814610547576101d8565b806342842e0e1161017a5780636d3739c4116101495780636d3739c41461040a57806370a0823114610435578063715018a61461047257806375e6c70914610489576101d8565b806342842e0e1461033c578063481c6a75146103655780634f6ccce7146103905780636352211e146103cd576101d8565b8063095ea7b3116101b6578063095ea7b31461028257806318160ddd146102ab57806323b872dd146102d65780632f745c59146102ff576101d8565b806301ffc9a7146101dd57806306fdde031461021a578063081812fc14610245575b600080fd5b3480156101e957600080fd5b5061020460048036038101906101ff9190612fd5565b6107ac565b604051610211919061301d565b60405180910390f35b34801561022657600080fd5b5061022f610826565b60405161023c91906130c8565b60405180910390f35b34801561025157600080fd5b5061026c60048036038101906102679190613120565b6108b8565b604051610279919061318e565b60405180910390f35b34801561028e57600080fd5b506102a960048036038101906102a491906131d5565b6108d4565b005b3480156102b757600080fd5b506102c06108ea565b6040516102cd9190613224565b60405180910390f35b3480156102e257600080fd5b506102fd60048036038101906102f8919061323f565b6108f7565b005b34801561030b57600080fd5b50610326600480360381019061032191906131d5565b6109f9565b6040516103339190613224565b60405180910390f35b34801561034857600080fd5b50610363600480360381019061035e919061323f565b610aa2565b005b34801561037157600080fd5b5061037a610ac2565b604051610387919061318e565b60405180910390f35b34801561039c57600080fd5b506103b760048036038101906103b29190613120565b610ae8565b6040516103c49190613224565b60405180910390f35b3480156103d957600080fd5b506103f460048036038101906103ef9190613120565b610b5e565b604051610401919061318e565b60405180910390f35b34801561041657600080fd5b5061041f610b70565b60405161042c91906132f1565b60405180910390f35b34801561044157600080fd5b5061045c6004803603810190610457919061330c565b610b96565b6040516104699190613224565b60405180910390f35b34801561047e57600080fd5b50610487610c50565b005b34801561049557600080fd5b506104b060048036038101906104ab919061330c565b610c64565b6040516104bd91906133f7565b60405180910390f35b3480156104d257600080fd5b506104db610d12565b6040516104e89190613224565b60405180910390f35b3480156104fd57600080fd5b50610506610d18565b604051610513919061318e565b60405180910390f35b34801561052857600080fd5b50610531610d42565b60405161053e91906130c8565b60405180910390f35b34801561055357600080fd5b5061055c610dd4565b6040516105699190613432565b60405180910390f35b34801561057e57600080fd5b506105996004803603810190610594919061330c565b610e3e565b005b3480156105a757600080fd5b506105b0610fb3565b6040516105bd91906133f7565b60405180910390f35b3480156105d257600080fd5b506105ed60048036038101906105e89190613479565b611144565b005b3480156105fb57600080fd5b5061061660048036038101906106119190613120565b61115a565b604051610628969594939291906134da565b60405180910390f35b34801561063d57600080fd5b5061065860048036038101906106539190613670565b6111e3565b005b34801561066657600080fd5b50610681600480360381019061067c9190613120565b611200565b60405161068e91906130c8565b60405180910390f35b3480156106a357600080fd5b506106be60048036038101906106b991906136f3565b611269565b005b3480156106cc57600080fd5b506106e760048036038101906106e29190613120565b6113c6565b005b3480156106f557600080fd5b50610710600480360381019061070b9190613120565b6113d8565b604051610721959493929190613733565b60405180910390f35b34801561073657600080fd5b50610751600480360381019061074c9190613786565b611513565b60405161075e919061301d565b60405180910390f35b610781600480360381019061077c9190613120565b6115a7565b005b34801561078f57600080fd5b506107aa60048036038101906107a5919061330c565b6119e3565b005b60007f780e9d63000000000000000000000000000000000000000000000000000000007bffffffffffffffffffffffffffffffffffffffffffffffffffffffff1916827bffffffffffffffffffffffffffffffffffffffffffffffffffffffff1916148061081f575061081e82611a69565b5b9050919050565b606060008054610835906137f5565b80601f0160208091040260200160405190810160405280929190818152602001828054610861906137f5565b80156108ae5780601f10610883576101008083540402835291602001916108ae565b820191906000526020600020905b81548152906001019060200180831161089157829003601f168201915b5050505050905090565b60006108c382611b4b565b506108cd82611bd3565b9050919050565b6108e682826108e1611c10565b611c18565b5050565b6000600880549050905090565b600073ffffffffffffffffffffffffffffffffffffffff168273ffffffffffffffffffffffffffffffffffffffff16036109695760006040517f64a0ae92000000000000000000000000000000000000000000000000000000008152600401610960919061318e565b60405180910390fd5b600061097d8383610978611c10565b611c2a565b90508373ffffffffffffffffffffffffffffffffffffffff168173ffffffffffffffffffffffffffffffffffffffff16146109f3578382826040517f64283d7b0000000000000000000000000000000000000000000000000000000081526004016109ea93929190613826565b60405180910390fd5b50505050565b6000610a0483610b96565b8210610a495782826040517fa57d13dc000000000000000000000000000000000000000000000000000000008152600401610a4092919061385d565b60405180910390fd5b600660008473ffffffffffffffffffffffffffffffffffffffff1673ffffffffffffffffffffffffffffffffffffffff168152602001908152602001600020600083815260200190815260200160002054905092915050565b610abd838383604051806020016040528060008152506111e3565b505050565b600e60009054906101000a900473ffffffffffffffffffffffffffffffffffffffff1681565b6000610af26108ea565b8210610b38576000826040517fa57d13dc000000000000000000000000000000000000000000000000000000008152600401610b2f92919061385d565b60405180910390fd5b60088281548110610b4c57610b4b613886565b5b90600052602060002001549050919050565b6000610b6982611b4b565b9050919050565b600d60009054906101000a900473ffffffffffffffffffffffffffffffffffffffff1681565b60008073ffffffffffffffffffffffffffffffffffffffff168273ffffffffffffffffffffffffffffffffffffffff1603610c095760006040517f89c62b64000000000000000000000000000000000000000000000000000000008152600401610c00919061318e565b60405180910390fd5b600360008373ffffffffffffffffffffffffffffffffffffffff1673ffffffffffffffffffffffffffffffffffffffff168152602001908152602001600020549050919050565b610c58611d47565b610c626000611dce565b565b60606000610c7183610b96565b905060008167ffffffffffffffff811115610c8f57610c8e613545565b5b604051908082528060200260200182016040528015610cbd5781602001602082028036833780820191505090505b50905060005b82811015610d0757610cd585826109f9565b828281518110610ce857610ce7613886565b5b6020026020010181815250508080610cff906138e4565b915050610cc3565b508092505050919050565b600c5481565b6000600a60009054906101000a900473ffffffffffffffffffffffffffffffffffffffff16905090565b606060018054610d51906137f5565b80601f0160208091040260200160405190810160405280929190818152602001828054610d7d906137f5565b8015610dca5780601f10610d9f57610100808354040283529160200191610dca565b820191906000526020600020905b815481529060010190602001808311610dad57829003601f168201915b5050505050905090565b60008033604051602001610de89190613974565b6040516020818303038152906040528051906020012090507fee3ba26a4447333f368cb59ca1e77ec10b8b3332c541d0e66c51d2f8b717bcda81604051610e2f9190613432565b60405180910390a18091505090565b610e46611d47565b600b6000815480929190610e59906138e4565b91905055506000600b549050610e6f8282611e94565b6040518060c001604052808281526020018373ffffffffffffffffffffffffffffffffffffffff168152602001600081526020018373ffffffffffffffffffffffffffffffffffffffff1681526020016000815260200160001515815250600f60008381526020019081526020016000206000820151816000015560208201518160010160006101000a81548173ffffffffffffffffffffffffffffffffffffffff021916908373ffffffffffffffffffffffffffffffffffffffff1602179055506040820151816002015560608201518160030160006101000a81548173ffffffffffffffffffffffffffffffffffffffff021916908373ffffffffffffffffffffffffffffffffffffffff1602179055506080820151816004015560a08201518160050160006101000a81548160ff0219169083151502179055509050505050565b60606000610fbf6108ea565b905060008167ffffffffffffffff811115610fdd57610fdc613545565b5b60405190808252806020026020018201604052801561100b5781602001602082028036833780820191505090505b5090506000805b8381101561109357600061102582610ae8565b9050600f600082815260200190815260200160002060050160009054906101000a900460ff161561107f578084848151811061106457611063613886565b5b602002602001018181525050828061107b906138e4565b9350505b50808061108b906138e4565b915050611012565b5060008167ffffffffffffffff8111156110b0576110af613545565b5b6040519080825280602002602001820160405280156110de5781602001602082028036833780820191505090505b50905060005b82811015611139578381815181106110ff576110fe613886565b5b602002602001015182828151811061111a57611119613886565b5b6020026020010181815250508080611131906138e4565b9150506110e4565b508094505050505090565b61115661114f611c10565b8383611f8d565b5050565b600f6020528060005260406000206000915090508060000154908060010160009054906101000a900473ffffffffffffffffffffffffffffffffffffffff16908060020154908060030160009054906101000a900473ffffffffffffffffffffffffffffffffffffffff16908060040154908060050160009054906101000a900460ff16905086565b6111ee8484846108f7565b6111fa848484846120fc565b50505050565b606061120b82611b4b565b5060006112166122b3565b905060008151116112365760405180602001604052806000815250611261565b80611240846122ca565b6040516020016112519291906139cb565b6040516020818303038152906040525b915050919050565b3373ffffffffffffffffffffffffffffffffffffffff1661128983610b5e565b73ffffffffffffffffffffffffffffffffffffffff16146112df576040517f08c379a00000000000000000000000000000000000000000000000000000000081526004016112d690613a3b565b60405180910390fd5b60008111611322576040517f08c379a000000000000000000000000000000000000000000000000000000000815260040161131990613aa7565b60405180910390fd5b80600f60008481526020019081526020016000206004018190555042600f6000848152602001908152602001600020600201819055506001600f600084815260200190815260200160002060050160006101000a81548160ff0219169083151502179055507f60b3e540896cf4a419e7b7274a1f1282223f5d92ca6f0152cf820fe457fb48438282336040516113ba93929190613ac7565b60405180910390a15050565b6113ce611d47565b80600c8190555050565b600080600080600080600f60008881526020019081526020016000206040518060c0016040529081600082015481526020016001820160009054906101000a900473ffffffffffffffffffffffffffffffffffffffff1673ffffffffffffffffffffffffffffffffffffffff1673ffffffffffffffffffffffffffffffffffffffff168152602001600282015481526020016003820160009054906101000a900473ffffffffffffffffffffffffffffffffffffffff1673ffffffffffffffffffffffffffffffffffffffff1673ffffffffffffffffffffffffffffffffffffffff168152602001600482015481526020016005820160009054906101000a900460ff1615151515815250509050806020015181608001518260a0015183604001518460000151955095509550955095505091939590929450565b6000600560008473ffffffffffffffffffffffffffffffffffffffff1673ffffffffffffffffffffffffffffffffffffffff16815260200190815260200160002060008373ffffffffffffffffffffffffffffffffffffffff1673ffffffffffffffffffffffffffffffffffffffff16815260200190815260200160002060009054906101000a900460ff16905092915050565b6000600f60008381526020019081526020016000206040518060c0016040529081600082015481526020016001820160009054906101000a900473ffffffffffffffffffffffffffffffffffffffff1673ffffffffffffffffffffffffffffffffffffffff1673ffffffffffffffffffffffffffffffffffffffff168152602001600282015481526020016003820160009054906101000a900473ffffffffffffffffffffffffffffffffffffffff1673ffffffffffffffffffffffffffffffffffffffff1673ffffffffffffffffffffffffffffffffffffffff168152602001600482015481526020016005820160009054906101000a900460ff16151515158152505090508060a001516116f2576040517f08c379a00000000000000000000000000000000000000000000000000000000081526004016116e990613b4a565b60405180910390fd5b806020015173ffffffffffffffffffffffffffffffffffffffff163373ffffffffffffffffffffffffffffffffffffffff1603611764576040517f08c379a000000000000000000000000000000000000000000000000000000000815260040161175b90613bb6565b60405180910390fd5b60008160400151426117769190613bd6565b9050600060648360800151600c548461178f9190613c0a565b6117999190613c0a565b6117a39190613c7b565b9050600d60009054906101000a900473ffffffffffffffffffffffffffffffffffffffff1673ffffffffffffffffffffffffffffffffffffffff166323b872dd3385602001518487608001516117f99190613bd6565b6040518463ffffffff1660e01b815260040161181793929190613cac565b6020604051808303816000875af1158015611836573d6000803e3d6000fd5b505050506040513d601f19601f8201168201806040525081019061185a9190613cf8565b50600d60009054906101000a900473ffffffffffffffffffffffffffffffffffffffff1673ffffffffffffffffffffffffffffffffffffffff166323b872dd336118a2610d18565b846040518463ffffffff1660e01b81526004016118c193929190613cac565b6020604051808303816000875af11580156118e0573d6000803e3d6000fd5b505050506040513d601f19601f820116820180604052508101906119049190613cf8565b5061191483602001513386612398565b33600f600086815260200190815260200160002060010160006101000a81548173ffffffffffffffffffffffffffffffffffffffff021916908373ffffffffffffffffffffffffffffffffffffffff1602179055506000600f600086815260200190815260200160002060050160006101000a81548160ff0219169083151502179055507f6fd7da1e5aabdf035f2d60271746b8b696eca06faba052c2331da059aaf9419a8484608001513386602001516040516119d59493929190613d25565b60405180910390a150505050565b6119eb611d47565b600073ffffffffffffffffffffffffffffffffffffffff168173ffffffffffffffffffffffffffffffffffffffff1603611a5d5760006040517f1e4fbdf7000000000000000000000000000000000000000000000000000000008152600401611a54919061318e565b60405180910390fd5b611a6681611dce565b50565b60007f80ac58cd000000000000000000000000000000000000000000000000000000007bffffffffffffffffffffffffffffffffffffffffffffffffffffffff1916827bffffffffffffffffffffffffffffffffffffffffffffffffffffffff19161480611b3457507f5b5e139f000000000000000000000000000000000000000000000000000000007bffffffffffffffffffffffffffffffffffffffffffffffffffffffff1916827bffffffffffffffffffffffffffffffffffffffffffffffffffffffff1916145b80611b445750611b4382612505565b5b9050919050565b600080611b578361256f565b9050600073ffffffffffffffffffffffffffffffffffffffff168173ffffffffffffffffffffffffffffffffffffffff1603611bca57826040517f7e273289000000000000000000000000000000000000000000000000000000008152600401611bc19190613224565b60405180910390fd5b80915050919050565b60006004600083815260200190815260200160002060009054906101000a900473ffffffffffffffffffffffffffffffffffffffff169050919050565b600033905090565b611c2583838360016125ac565b505050565b600080611c38858585612771565b9050600073ffffffffffffffffffffffffffffffffffffffff168173ffffffffffffffffffffffffffffffffffffffff1603611c7c57611c778461298b565b611cbb565b8473ffffffffffffffffffffffffffffffffffffffff168173ffffffffffffffffffffffffffffffffffffffff1614611cba57611cb981856129d4565b5b5b600073ffffffffffffffffffffffffffffffffffffffff168573ffffffffffffffffffffffffffffffffffffffff1603611cfd57611cf884612b35565b611d3c565b8473ffffffffffffffffffffffffffffffffffffffff168173ffffffffffffffffffffffffffffffffffffffff1614611d3b57611d3a8585612c06565b5b5b809150509392505050565b611d4f611c10565b73ffffffffffffffffffffffffffffffffffffffff16611d6d610d18565b73ffffffffffffffffffffffffffffffffffffffff1614611dcc57611d90611c10565b6040517f118cdaa7000000000000000000000000000000000000000000000000000000008152600401611dc3919061318e565b60405180910390fd5b565b6000600a60009054906101000a900473ffffffffffffffffffffffffffffffffffffffff16905081600a60006101000a81548173ffffffffffffffffffffffffffffffffffffffff021916908373ffffffffffffffffffffffffffffffffffffffff1602179055508173ffffffffffffffffffffffffffffffffffffffff168173ffffffffffffffffffffffffffffffffffffffff167f8be0079c531659141344cd1fd0a4f28419497f9722a3daafe3b4186f6b6457e060405160405180910390a35050565b600073ffffffffffffffffffffffffffffffffffffffff168273ffffffffffffffffffffffffffffffffffffffff1603611f065760006040517f64a0ae92000000000000000000000000000000000000000000000000000000008152600401611efd919061318e565b60405180910390fd5b6000611f1483836000611c2a565b9050600073ffffffffffffffffffffffffffffffffffffffff168173ffffffffffffffffffffffffffffffffffffffff1614611f885760006040517f73c6ac6e000000000000000000000000000000000000000000000000000000008152600401611f7f919061318e565b60405180910390fd5b505050565b600073ffffffffffffffffffffffffffffffffffffffff168273ffffffffffffffffffffffffffffffffffffffff1603611ffe57816040517f5b08ba18000000000000000000000000000000000000000000000000000000008152600401611ff5919061318e565b60405180910390fd5b80600560008573ffffffffffffffffffffffffffffffffffffffff1673ffffffffffffffffffffffffffffffffffffffff16815260200190815260200160002060008473ffffffffffffffffffffffffffffffffffffffff1673ffffffffffffffffffffffffffffffffffffffff16815260200190815260200160002060006101000a81548160ff0219169083151502179055508173ffffffffffffffffffffffffffffffffffffffff168373ffffffffffffffffffffffffffffffffffffffff167f17307eab39ab6107e8899845ad3d59bd9653f200f220920489ca2b5937696c31836040516120ef919061301d565b60405180910390a3505050565b60008373ffffffffffffffffffffffffffffffffffffffff163b11156122ad578273ffffffffffffffffffffffffffffffffffffffff1663150b7a02612140611c10565b8685856040518563ffffffff1660e01b81526004016121629493929190613dbf565b6020604051808303816000875af192505050801561219e57506040513d601f19601f8201168201806040525081019061219b9190613e20565b60015b612222573d80600081146121ce576040519150601f19603f3d011682016040523d82523d6000602084013e6121d3565b606091505b50600081510361221a57836040517f64a0ae92000000000000000000000000000000000000000000000000000000008152600401612211919061318e565b60405180910390fd5b805181602001fd5b63150b7a0260e01b7bffffffffffffffffffffffffffffffffffffffffffffffffffffffff1916817bffffffffffffffffffffffffffffffffffffffffffffffffffffffff1916146122ab57836040517f64a0ae920000000000000000000000000000000000000000000000000000000081526004016122a2919061318e565b60405180910390fd5b505b50505050565b606060405180602001604052806000815250905090565b6060600060016122d984612c91565b01905060008167ffffffffffffffff8111156122f8576122f7613545565b5b6040519080825280601f01601f19166020018201604052801561232a5781602001600182028036833780820191505090505b509050600082602001820190505b60011561238d578080600190039150507f3031323334353637383961626364656600000000000000000000000000000000600a86061a8153600a858161238157612380613c4c565b5b04945060008503612338575b819350505050919050565b600073ffffffffffffffffffffffffffffffffffffffff168273ffffffffffffffffffffffffffffffffffffffff160361240a5760006040517f64a0ae92000000000000000000000000000000000000000000000000000000008152600401612401919061318e565b60405180910390fd5b600061241883836000611c2a565b9050600073ffffffffffffffffffffffffffffffffffffffff168173ffffffffffffffffffffffffffffffffffffffff160361248b57816040517f7e2732890000000000000000000000000000000000000000000000000000000081526004016124829190613224565b60405180910390fd5b8373ffffffffffffffffffffffffffffffffffffffff168173ffffffffffffffffffffffffffffffffffffffff16146124ff578382826040517f64283d7b0000000000000000000000000000000000000000000000000000000081526004016124f693929190613826565b60405180910390fd5b50505050565b60007f01ffc9a7000000000000000000000000000000000000000000000000000000007bffffffffffffffffffffffffffffffffffffffffffffffffffffffff1916827bffffffffffffffffffffffffffffffffffffffffffffffffffffffff1916149050919050565b60006002600083815260200190815260200160002060009054906101000a900473ffffffffffffffffffffffffffffffffffffffff169050919050565b80806125e55750600073ffffffffffffffffffffffffffffffffffffffff168273ffffffffffffffffffffffffffffffffffffffff1614155b156127195760006125f584611b4b565b9050600073ffffffffffffffffffffffffffffffffffffffff168373ffffffffffffffffffffffffffffffffffffffff161415801561266057508273ffffffffffffffffffffffffffffffffffffffff168173ffffffffffffffffffffffffffffffffffffffff1614155b801561267357506126718184611513565b155b156126b557826040517fa9fbf51f0000000000000000000000000000000000000000000000000000000081526004016126ac919061318e565b60405180910390fd5b811561271757838573ffffffffffffffffffffffffffffffffffffffff168273ffffffffffffffffffffffffffffffffffffffff167f8c5be1e5ebec7d5bd14f71427d1e84f3dd0314c0f7b2291e5b200ac8c7c3b92560405160405180910390a45b505b836004600085815260200190815260200160002060006101000a81548173ffffffffffffffffffffffffffffffffffffffff021916908373ffffffffffffffffffffffffffffffffffffffff16021790555050505050565b60008061277d8461256f565b9050600073ffffffffffffffffffffffffffffffffffffffff168373ffffffffffffffffffffffffffffffffffffffff16146127bf576127be818486612de4565b5b600073ffffffffffffffffffffffffffffffffffffffff168173ffffffffffffffffffffffffffffffffffffffff1614612850576128016000856000806125ac565b6001600360008373ffffffffffffffffffffffffffffffffffffffff1673ffffffffffffffffffffffffffffffffffffffff168152602001908152602001600020600082825403925050819055505b600073ffffffffffffffffffffffffffffffffffffffff168573ffffffffffffffffffffffffffffffffffffffff16146128d3576001600360008773ffffffffffffffffffffffffffffffffffffffff1673ffffffffffffffffffffffffffffffffffffffff168152602001908152602001600020600082825401925050819055505b846002600086815260200190815260200160002060006101000a81548173ffffffffffffffffffffffffffffffffffffffff021916908373ffffffffffffffffffffffffffffffffffffffff160217905550838573ffffffffffffffffffffffffffffffffffffffff168273ffffffffffffffffffffffffffffffffffffffff167fddf252ad1be2c89b69c2b068fc378daa952ba7f163c4a11628f55a4df523b3ef60405160405180910390a4809150509392505050565b6008805490506009600083815260200190815260200160002081905550600881908060018154018082558091505060019003906000526020600020016000909190919091505550565b60006129df83610b96565b9050600060076000848152602001908152602001600020549050818114612ac4576000600660008673ffffffffffffffffffffffffffffffffffffffff1673ffffffffffffffffffffffffffffffffffffffff168152602001908152602001600020600084815260200190815260200160002054905080600660008773ffffffffffffffffffffffffffffffffffffffff1673ffffffffffffffffffffffffffffffffffffffff168152602001908152602001600020600084815260200190815260200160002081905550816007600083815260200190815260200160002081905550505b6007600084815260200190815260200160002060009055600660008573ffffffffffffffffffffffffffffffffffffffff1673ffffffffffffffffffffffffffffffffffffffff16815260200190815260200160002060008381526020019081526020016000206000905550505050565b60006001600880549050612b499190613bd6565b9050600060096000848152602001908152602001600020549050600060088381548110612b7957612b78613886565b5b906000526020600020015490508060088381548110612b9b57612b9a613886565b5b906000526020600020018190555081600960008381526020019081526020016000208190555060096000858152602001908152602001600020600090556008805480612bea57612be9613e4d565b5b6001900381819060005260206000200160009055905550505050565b60006001612c1384610b96565b612c1d9190613bd6565b905081600660008573ffffffffffffffffffffffffffffffffffffffff1673ffffffffffffffffffffffffffffffffffffffff168152602001908152602001600020600083815260200190815260200160002081905550806007600084815260200190815260200160002081905550505050565b600080600090507a184f03e93ff9f4daa797ed6e38ed64bf6a1f0100000000000000008310612cef577a184f03e93ff9f4daa797ed6e38ed64bf6a1f0100000000000000008381612ce557612ce4613c4c565b5b0492506040810190505b6d04ee2d6d415b85acef81000000008310612d2c576d04ee2d6d415b85acef81000000008381612d2257612d21613c4c565b5b0492506020810190505b662386f26fc100008310612d5b57662386f26fc100008381612d5157612d50613c4c565b5b0492506010810190505b6305f5e1008310612d84576305f5e1008381612d7a57612d79613c4c565b5b0492506008810190505b6127108310612da9576127108381612d9f57612d9e613c4c565b5b0492506004810190505b60648310612dcc5760648381612dc257612dc1613c4c565b5b0492506002810190505b600a8310612ddb576001810190505b80915050919050565b612def838383612ea8565b612ea357600073ffffffffffffffffffffffffffffffffffffffff168373ffffffffffffffffffffffffffffffffffffffff1603612e6457806040517f7e273289000000000000000000000000000000000000000000000000000000008152600401612e5b9190613224565b60405180910390fd5b81816040517f177e802f000000000000000000000000000000000000000000000000000000008152600401612e9a92919061385d565b60405180910390fd5b505050565b60008073ffffffffffffffffffffffffffffffffffffffff168373ffffffffffffffffffffffffffffffffffffffff1614158015612f6057508273ffffffffffffffffffffffffffffffffffffffff168473ffffffffffffffffffffffffffffffffffffffff161480612f215750612f208484611513565b5b80612f5f57508273ffffffffffffffffffffffffffffffffffffffff16612f4783611bd3565b73ffffffffffffffffffffffffffffffffffffffff16145b5b90509392505050565b6000604051905090565b600080fd5b600080fd5b60007fffffffff0000000000000000000000000000000000000000000000000000000082169050919050565b612fb281612f7d565b8114612fbd57600080fd5b50565b600081359050612fcf81612fa9565b92915050565b600060208284031215612feb57612fea612f73565b5b6000612ff984828501612fc0565b91505092915050565b60008115159050919050565b61301781613002565b82525050565b6000602082019050613032600083018461300e565b92915050565b600081519050919050565b600082825260208201905092915050565b60005b83811015613072578082015181840152602081019050613057565b60008484015250505050565b6000601f19601f8301169050919050565b600061309a82613038565b6130a48185613043565b93506130b4818560208601613054565b6130bd8161307e565b840191505092915050565b600060208201905081810360008301526130e2818461308f565b905092915050565b6000819050919050565b6130fd816130ea565b811461310857600080fd5b50565b60008135905061311a816130f4565b92915050565b60006020828403121561313657613135612f73565b5b60006131448482850161310b565b91505092915050565b600073ffffffffffffffffffffffffffffffffffffffff82169050919050565b60006131788261314d565b9050919050565b6131888161316d565b82525050565b60006020820190506131a3600083018461317f565b92915050565b6131b28161316d565b81146131bd57600080fd5b50565b6000813590506131cf816131a9565b92915050565b600080604083850312156131ec576131eb612f73565b5b60006131fa858286016131c0565b925050602061320b8582860161310b565b9150509250929050565b61321e816130ea565b82525050565b60006020820190506132396000830184613215565b92915050565b60008060006060848603121561325857613257612f73565b5b6000613266868287016131c0565b9350506020613277868287016131c0565b92505060406132888682870161310b565b9150509250925092565b6000819050919050565b60006132b76132b26132ad8461314d565b613292565b61314d565b9050919050565b60006132c98261329c565b9050919050565b60006132db826132be565b9050919050565b6132eb816132d0565b82525050565b600060208201905061330660008301846132e2565b92915050565b60006020828403121561332257613321612f73565b5b6000613330848285016131c0565b91505092915050565b600081519050919050565b600082825260208201905092915050565b6000819050602082019050919050565b61336e816130ea565b82525050565b60006133808383613365565b60208301905092915050565b6000602082019050919050565b60006133a482613339565b6133ae8185613344565b93506133b983613355565b8060005b838110156133ea5781516133d18882613374565b97506133dc8361338c565b9250506001810190506133bd565b5085935050505092915050565b600060208201905081810360008301526134118184613399565b905092915050565b6000819050919050565b61342c81613419565b82525050565b60006020820190506134476000830184613423565b92915050565b61345681613002565b811461346157600080fd5b50565b6000813590506134738161344d565b92915050565b600080604083850312156134905761348f612f73565b5b600061349e858286016131c0565b92505060206134af85828601613464565b9150509250929050565b60006134c48261314d565b9050919050565b6134d4816134b9565b82525050565b600060c0820190506134ef6000830189613215565b6134fc602083018861317f565b6135096040830187613215565b61351660608301866134cb565b6135236080830185613215565b61353060a083018461300e565b979650505050505050565b600080fd5b600080fd5b7f4e487b7100000000000000000000000000000000000000000000000000000000600052604160045260246000fd5b61357d8261307e565b810181811067ffffffffffffffff8211171561359c5761359b613545565b5b80604052505050565b60006135af612f69565b90506135bb8282613574565b919050565b600067ffffffffffffffff8211156135db576135da613545565b5b6135e48261307e565b9050602081019050919050565b82818337600083830152505050565b600061361361360e846135c0565b6135a5565b90508281526020810184848401111561362f5761362e613540565b5b61363a8482856135f1565b509392505050565b600082601f8301126136575761365661353b565b5b8135613667848260208601613600565b91505092915050565b6000806000806080858703121561368a57613689612f73565b5b6000613698878288016131c0565b94505060206136a9878288016131c0565b93505060406136ba8782880161310b565b925050606085013567ffffffffffffffff8111156136db576136da612f78565b5b6136e787828801613642565b91505092959194509250565b6000806040838503121561370a57613709612f73565b5b60006137188582860161310b565b92505060206137298582860161310b565b9150509250929050565b600060a082019050613748600083018861317f565b6137556020830187613215565b613762604083018661300e565b61376f6060830185613215565b61377c6080830184613215565b9695505050505050565b6000806040838503121561379d5761379c612f73565b5b60006137ab858286016131c0565b92505060206137bc858286016131c0565b9150509250929050565b7f4e487b7100000000000000000000000000000000000000000000000000000000600052602260045260246000fd5b6000600282049050600182168061380d57607f821691505b6020821081036138205761381f6137c6565b5b50919050565b600060608201905061383b600083018661317f565b6138486020830185613215565b613855604083018461317f565b949350505050565b6000604082019050613872600083018561317f565b61387f6020830184613215565b9392505050565b7f4e487b7100000000000000000000000000000000000000000000000000000000600052603260045260246000fd5b7f4e487b7100000000000000000000000000000000000000000000000000000000600052601160045260246000fd5b60006138ef826130ea565b91507fffffffffffffffffffffffffffffffffffffffffffffffffffffffffffffffff8203613921576139206138b5565b5b600182019050919050565b60008160601b9050919050565b60006139448261392c565b9050919050565b600061395682613939565b9050919050565b61396e6139698261316d565b61394b565b82525050565b6000613980828461395d565b60148201915081905092915050565b600081905092915050565b60006139a582613038565b6139af818561398f565b93506139bf818560208601613054565b80840191505092915050565b60006139d7828561399a565b91506139e3828461399a565b91508190509392505050565b7f596f7520646f206e6f74206f776e207468697320686f75736500000000000000600082015250565b6000613a25601983613043565b9150613a30826139ef565b602082019050919050565b60006020820190508181036000830152613a5481613a18565b9050919050565b7f5072696365206d7573742062652067726561746572207468616e203000000000600082015250565b6000613a91601c83613043565b9150613a9c82613a5b565b602082019050919050565b60006020820190508181036000830152613ac081613a84565b9050919050565b6000606082019050613adc6000830186613215565b613ae96020830185613215565b613af6604083018461317f565b949350505050565b7f486f757365206973206e6f7420666f722073616c650000000000000000000000600082015250565b6000613b34601583613043565b9150613b3f82613afe565b602082019050919050565b60006020820190508181036000830152613b6381613b27565b9050919050565b7f5468697320686f75736520697320616c726561647920796f7572730000000000600082015250565b6000613ba0601b83613043565b9150613bab82613b6a565b602082019050919050565b60006020820190508181036000830152613bcf81613b93565b9050919050565b6000613be1826130ea565b9150613bec836130ea565b9250828203905081811115613c0457613c036138b5565b5b92915050565b6000613c15826130ea565b9150613c20836130ea565b9250828202613c2e816130ea565b91508282048414831517613c4557613c446138b5565b5b5092915050565b7f4e487b7100000000000000000000000000000000000000000000000000000000600052601260045260246000fd5b6000613c86826130ea565b9150613c91836130ea565b925082613ca157613ca0613c4c565b5b828204905092915050565b6000606082019050613cc1600083018661317f565b613cce602083018561317f565b613cdb6040830184613215565b949350505050565b600081519050613cf28161344d565b92915050565b600060208284031215613d0e57613d0d612f73565b5b6000613d1c84828501613ce3565b91505092915050565b6000608082019050613d3a6000830187613215565b613d476020830186613215565b613d54604083018561317f565b613d61606083018461317f565b95945050505050565b600081519050919050565b600082825260208201905092915050565b6000613d9182613d6a565b613d9b8185613d75565b9350613dab818560208601613054565b613db48161307e565b840191505092915050565b6000608082019050613dd4600083018761317f565b613de1602083018661317f565b613dee6040830185613215565b8181036060830152613e008184613d86565b905095945050505050565b600081519050613e1a81612fa9565b92915050565b600060208284031215613e3657613e35612f73565b5b6000613e4484828501613e0b565b91505092915050565b7f4e487b7100000000000000000000000000000000000000000000000000000000600052603160045260246000fdfea2646970667358221220298f7e6788fb989c4e9d6bab6357b34baae5c494f9d88f3e8dc10b1697731b9664736f6c6343000814003360806040523480156200001157600080fd5b5060405162001ba738038062001ba7833981810160405281019062000037919062000348565b33828281600390816200004b919062000618565b5080600490816200005d919062000618565b505050600073ffffffffffffffffffffffffffffffffffffffff168173ffffffffffffffffffffffffffffffffffffffff1603620000d55760006040517f1e4fbdf7000000000000000000000000000000000000000000000000000000008152600401620000cc919062000744565b60405180910390fd5b620000e681620000ef60201b60201c565b50505062000761565b6000600560009054906101000a900473ffffffffffffffffffffffffffffffffffffffff16905081600560006101000a81548173ffffffffffffffffffffffffffffffffffffffff021916908373ffffffffffffffffffffffffffffffffffffffff1602179055508173ffffffffffffffffffffffffffffffffffffffff168173ffffffffffffffffffffffffffffffffffffffff167f8be0079c531659141344cd1fd0a4f28419497f9722a3daafe3b4186f6b6457e060405160405180910390a35050565b6000604051905090565b600080fd5b600080fd5b600080fd5b600080fd5b6000601f19601f8301169050919050565b7f4e487b7100000000000000000000000000000000000000000000000000000000600052604160045260246000fd5b6200021e82620001d3565b810181811067ffffffffffffffff8211171562000240576200023f620001e4565b5b80604052505050565b600062000255620001b5565b905062000263828262000213565b919050565b600067ffffffffffffffff821115620002865762000285620001e4565b5b6200029182620001d3565b9050602081019050919050565b60005b83811015620002be578082015181840152602081019050620002a1565b60008484015250505050565b6000620002e1620002db8462000268565b62000249565b9050828152602081018484840111156200030057620002ff620001ce565b5b6200030d8482856200029e565b509392505050565b600082601f8301126200032d576200032c620001c9565b5b81516200033f848260208601620002ca565b91505092915050565b60008060408385031215620003625762000361620001bf565b5b600083015167ffffffffffffffff811115620003835762000382620001c4565b5b620003918582860162000315565b925050602083015167ffffffffffffffff811115620003b557620003b4620001c4565b5b620003c38582860162000315565b9150509250929050565b600081519050919050565b7f4e487b7100000000000000000000000000000000000000000000000000000000600052602260045260246000fd5b600060028204905060018216806200042057607f821691505b602082108103620004365762000435620003d8565b5b50919050565b60008190508160005260206000209050919050565b60006020601f8301049050919050565b600082821b905092915050565b600060088302620004a07fffffffffffffffffffffffffffffffffffffffffffffffffffffffffffffffff8262000461565b620004ac868362000461565b95508019841693508086168417925050509392505050565b6000819050919050565b6000819050919050565b6000620004f9620004f3620004ed84620004c4565b620004ce565b620004c4565b9050919050565b6000819050919050565b6200051583620004d8565b6200052d620005248262000500565b8484546200046e565b825550505050565b600090565b6200054462000535565b620005518184846200050a565b505050565b5b8181101562000579576200056d6000826200053a565b60018101905062000557565b5050565b601f821115620005c85762000592816200043c565b6200059d8462000451565b81016020851015620005ad578190505b620005c5620005bc8562000451565b83018262000556565b50505b505050565b600082821c905092915050565b6000620005ed60001984600802620005cd565b1980831691505092915050565b6000620006088383620005da565b9150826002028217905092915050565b6200062382620003cd565b67ffffffffffffffff8111156200063f576200063e620001e4565b5b6200064b825462000407565b620006588282856200057d565b600060209050601f8311600181146200069057600084156200067b578287015190505b620006878582620005fa565b865550620006f7565b601f198416620006a0866200043c565b60005b82811015620006ca57848901518255600182019150602085019450602081019050620006a3565b86831015620006ea5784890151620006e6601f891682620005da565b8355505b6001600288020188555050505b505050505050565b600073ffffffffffffffffffffffffffffffffffffffff82169050919050565b60006200072c82620006ff565b9050919050565b6200073e816200071f565b82525050565b60006020820190506200075b600083018462000733565b92915050565b61143680620007716000396000f3fe608060405234801561001057600080fd5b50600436106100f55760003560e01c806342966c681161009757806395d89b411161006657806395d89b411461024e578063a9059cbb1461026c578063dd62ed3e1461029c578063f2fde38b146102cc576100f5565b806342966c68146101da57806370a08231146101f6578063715018a6146102265780638da5cb5b14610230576100f5565b806323b872dd116100d357806323b872dd14610166578063313ce567146101965780633884d635146101b457806340c10f19146101be576100f5565b806306fdde03146100fa578063095ea7b31461011857806318160ddd14610148575b600080fd5b6101026102e8565b60405161010f9190610fcb565b60405180910390f35b610132600480360381019061012d9190611086565b61037a565b60405161013f91906110e1565b60405180910390f35b61015061039d565b60405161015d919061110b565b60405180910390f35b610180600480360381019061017b9190611126565b6103a7565b60405161018d91906110e1565b60405180910390f35b61019e6103d6565b6040516101ab9190611195565b60405180910390f35b6101bc6103df565b005b6101d860048036038101906101d39190611086565b6104d9565b005b6101f460048036038101906101ef91906111b0565b6104ef565b005b610210600480360381019061020b91906111dd565b610504565b60405161021d919061110b565b60405180910390f35b61022e61054c565b005b610238610560565b6040516102459190611219565b60405180910390f35b61025661058a565b6040516102639190610fcb565b60405180910390f35b61028660048036038101906102819190611086565b61061c565b60405161029391906110e1565b60405180910390f35b6102b660048036038101906102b19190611234565b61063f565b6040516102c3919061110b565b60405180910390f35b6102e660048036038101906102e191906111dd565b6106c6565b005b6060600380546102f7906112a3565b80601f0160208091040260200160405190810160405280929190818152602001828054610323906112a3565b80156103705780601f1061034557610100808354040283529160200191610370565b820191906000526020600020905b81548152906001019060200180831161035357829003601f168201915b5050505050905090565b60008061038561074c565b9050610392818585610754565b600191505092915050565b6000600254905090565b6000806103b261074c565b90506103bf858285610766565b6103ca8585856107fa565b60019150509392505050565b60006012905090565b60001515600660003373ffffffffffffffffffffffffffffffffffffffff1673ffffffffffffffffffffffffffffffffffffffff16815260200190815260200160002060009054906101000a900460ff16151514610472576040517f08c379a000000000000000000000000000000000000000000000000000000000815260040161046990611346565b60405180910390fd5b61047f33620186a06108ee565b6001600660003373ffffffffffffffffffffffffffffffffffffffff1673ffffffffffffffffffffffffffffffffffffffff16815260200190815260200160002060006101000a81548160ff021916908315150217905550565b6104e1610970565b6104eb82826108ee565b5050565b6104f7610970565b61050133826109f7565b50565b60008060008373ffffffffffffffffffffffffffffffffffffffff1673ffffffffffffffffffffffffffffffffffffffff168152602001908152602001600020549050919050565b610554610970565b61055e6000610a79565b565b6000600560009054906101000a900473ffffffffffffffffffffffffffffffffffffffff16905090565b606060048054610599906112a3565b80601f01602080910402602001604051908101604052809291908181526020018280546105c5906112a3565b80156106125780601f106105e757610100808354040283529160200191610612565b820191906000526020600020905b8154815290600101906020018083116105f557829003601f168201915b5050505050905090565b60008061062761074c565b90506106348185856107fa565b600191505092915050565b6000600160008473ffffffffffffffffffffffffffffffffffffffff1673ffffffffffffffffffffffffffffffffffffffff16815260200190815260200160002060008373ffffffffffffffffffffffffffffffffffffffff1673ffffffffffffffffffffffffffffffffffffffff16815260200190815260200160002054905092915050565b6106ce610970565b600073ffffffffffffffffffffffffffffffffffffffff168173ffffffffffffffffffffffffffffffffffffffff16036107405760006040517f1e4fbdf70000000000000000000000000000000000000000000000000000000081526004016107379190611219565b60405180910390fd5b61074981610a79565b50565b600033905090565b6107618383836001610b3f565b505050565b6000610772848461063f565b90507fffffffffffffffffffffffffffffffffffffffffffffffffffffffffffffffff81146107f457818110156107e4578281836040517ffb8f41b20000000000000000000000000000000000000000000000000000000081526004016107db93929190611366565b60405180910390fd5b6107f384848484036000610b3f565b5b50505050565b600073ffffffffffffffffffffffffffffffffffffffff168373ffffffffffffffffffffffffffffffffffffffff160361086c5760006040517f96c6fd1e0000000000000000000000000000000000000000000000000000000081526004016108639190611219565b60405180910390fd5b600073ffffffffffffffffffffffffffffffffffffffff168273ffffffffffffffffffffffffffffffffffffffff16036108de5760006040517fec442f050000000000000000000000000000000000000000000000000000000081526004016108d59190611219565b60405180910390fd5b6108e9838383610d16565b505050565b600073ffffffffffffffffffffffffffffffffffffffff168273ffffffffffffffffffffffffffffffffffffffff16036109605760006040517fec442f050000000000000000000000000000000000000000000000000000000081526004016109579190611219565b60405180910390fd5b61096c60008383610d16565b5050565b61097861074c565b73ffffffffffffffffffffffffffffffffffffffff16610996610560565b73ffffffffffffffffffffffffffffffffffffffff16146109f5576109b961074c565b6040517f118cdaa70000000000000000000000000000000000000000000000000000000081526004016109ec9190611219565b60405180910390fd5b565b600073ffffffffffffffffffffffffffffffffffffffff168273ffffffffffffffffffffffffffffffffffffffff1603610a695760006040517f96c6fd1e000000000000000000000000000000000000000000000000000000008152600401610a609190611219565b60405180910390fd5b610a7582600083610d16565b5050565b6000600560009054906101000a900473ffffffffffffffffffffffffffffffffffffffff16905081600560006101000a81548173ffffffffffffffffffffffffffffffffffffffff021916908373ffffffffffffffffffffffffffffffffffffffff1602179055508173ffffffffffffffffffffffffffffffffffffffff168173ffffffffffffffffffffffffffffffffffffffff167f8be0079c531659141344cd1fd0a4f28419497f9722a3daafe3b4186f6b6457e060405160405180910390a35050565b600073ffffffffffffffffffffffffffffffffffffffff168473ffffffffffffffffffffffffffffffffffffffff1603610bb15760006040517fe602df05000000000000000000000000000000000000000000000000000000008152600401610ba89190611219565b60405180910390fd5b600073ffffffffffffffffffffffffffffffffffffffff168373ffffffffffffffffffffffffffffffffffffffff1603610c235760006040517f94280d62000000000000000000000000000000000000000000000000000000008152600401610c1a9190611219565b60405180910390fd5b81600160008673ffffffffffffffffffffffffffffffffffffffff1673ffffffffffffffffffffffffffffffffffffffff16815260200190815260200160002060008573ffffffffffffffffffffffffffffffffffffffff1673ffffffffffffffffffffffffffffffffffffffff168152602001908152602001600020819055508015610d10578273ffffffffffffffffffffffffffffffffffffffff168473ffffffffffffffffffffffffffffffffffffffff167f8c5be1e5ebec7d5bd14f71427d1e84f3dd0314c0f7b2291e5b200ac8c7c3b92584604051610d07919061110b565b60405180910390a35b50505050565b600073ffffffffffffffffffffffffffffffffffffffff168373ffffffffffffffffffffffffffffffffffffffff1603610d68578060026000828254610d5c91906113cc565b92505081905550610e3b565b60008060008573ffffffffffffffffffffffffffffffffffffffff1673ffffffffffffffffffffffffffffffffffffffff16815260200190815260200160002054905081811015610df4578381836040517fe450d38c000000000000000000000000000000000000000000000000000000008152600401610deb93929190611366565b60405180910390fd5b8181036000808673ffffffffffffffffffffffffffffffffffffffff1673ffffffffffffffffffffffffffffffffffffffff16815260200190815260200160002081905550505b600073ffffffffffffffffffffffffffffffffffffffff168273ffffffffffffffffffffffffffffffffffffffff1603610e845780600260008282540392505081905550610ed1565b806000808473ffffffffffffffffffffffffffffffffffffffff1673ffffffffffffffffffffffffffffffffffffffff168152602001908152602001600020600082825401925050819055505b8173ffffffffffffffffffffffffffffffffffffffff168373ffffffffffffffffffffffffffffffffffffffff167fddf252ad1be2c89b69c2b068fc378daa952ba7f163c4a11628f55a4df523b3ef83604051610f2e919061110b565b60405180910390a3505050565b600081519050919050565b600082825260208201905092915050565b60005b83811015610f75578082015181840152602081019050610f5a565b60008484015250505050565b6000601f19601f8301169050919050565b6000610f9d82610f3b565b610fa78185610f46565b9350610fb7818560208601610f57565b610fc081610f81565b840191505092915050565b60006020820190508181036000830152610fe58184610f92565b905092915050565b600080fd5b600073ffffffffffffffffffffffffffffffffffffffff82169050919050565b600061101d82610ff2565b9050919050565b61102d81611012565b811461103857600080fd5b50565b60008135905061104a81611024565b92915050565b6000819050919050565b61106381611050565b811461106e57600080fd5b50565b6000813590506110808161105a565b92915050565b6000806040838503121561109d5761109c610fed565b5b60006110ab8582860161103b565b92505060206110bc85828601611071565b9150509250929050565b60008115159050919050565b6110db816110c6565b82525050565b60006020820190506110f660008301846110d2565b92915050565b61110581611050565b82525050565b600060208201905061112060008301846110fc565b92915050565b60008060006060848603121561113f5761113e610fed565b5b600061114d8682870161103b565b935050602061115e8682870161103b565b925050604061116f86828701611071565b9150509250925092565b600060ff82169050919050565b61118f81611179565b82525050565b60006020820190506111aa6000830184611186565b92915050565b6000602082840312156111c6576111c5610fed565b5b60006111d484828501611071565b91505092915050565b6000602082840312156111f3576111f2610fed565b5b60006112018482850161103b565b91505092915050565b61121381611012565b82525050565b600060208201905061122e600083018461120a565b92915050565b6000806040838503121561124b5761124a610fed565b5b60006112598582860161103b565b925050602061126a8582860161103b565b9150509250929050565b7f4e487b7100000000000000000000000000000000000000000000000000000000600052602260045260246000fd5b600060028204905060018216806112bb57607f821691505b6020821081036112ce576112cd611274565b5b50919050565b7f5468697320757365722068617320636c61696d65642061697264726f7020616c60008201527f7265616479000000000000000000000000000000000000000000000000000000602082015250565b6000611330602583610f46565b915061133b826112d4565b604082019050919050565b6000602082019050818103600083015261135f81611323565b9050919050565b600060608201905061137b600083018661120a565b61138860208301856110fc565b61139560408301846110fc565b949350505050565b7f4e487b7100000000000000000000000000000000000000000000000000000000600052601160045260246000fd5b60006113d782611050565b91506113e283611050565b92508282019050808211156113fa576113f961139d565b5b9291505056fea264697066735822122021ad3fbbda9c10b0dacdf015682a2cc716fed97fdb225423a35ffef8f3d074f664736f6c63430008140033",
  "linkReferences": {},
  "deployedLinkReferences": {}
}