{
  "_format": "hh-sol-artifact-1",
  "contractName": "BuyMyRoom",
  "sourceName": "contracts/BuyMyRoom.sol",
  "abi": [
    {
      "inputs": [],
      "stateMutability": "nonpayable",
      "type": "constructor"
    },
    {
      "inputs": [],
      "name": "ERC721EnumerableForbiddenBatchMint",
      "type": "error"
    },
    {
      "inputs": [
        {
          "internalType": "address",
          "name": "sender",
          "type": "address"
        },
        {
          "internalType": "uint256",
          "name": "tokenId",
          "type": "uint256"
        },
        {
          "internalType": "address",
          "name": "owner",
          "type": "address"
        }
      ],
      "name": "ERC721IncorrectOwner",
      "type": "error"
    },
    {
      "inputs": [
        {
          "internalType": "address",
          "name": "operator",
          "type": "address"
        },
        {
          "internalType": "uint256",
          "name": "tokenId",
          "type": "uint256"
        }
      ],
      "name": "ERC721InsufficientApproval",
      "type": "error"
    },
    {
      "inputs": [
        {
          "internalType": "address",
          "name": "approver",
          "type": "address"
        }
      ],
      "name": "ERC721InvalidApprover",
      "type": "error"
    },
    {
      "inputs": [
        {
          "internalType": "address",
          "name": "operator",
          "type": "address"
        }
      ],
      "name": "ERC721InvalidOperator",
      "type": "error"
    },
    {
      "inputs": [
        {
          "internalType": "address",
          "name": "owner",
          "type": "address"
        }
      ],
      "name": "ERC721InvalidOwner",
      "type": "error"
    },
    {
      "inputs": [
        {
          "internalType": "address",
          "name": "receiver",
          "type": "address"
        }
      ],
      "name": "ERC721InvalidReceiver",
      "type": "error"
    },
    {
      "inputs": [
        {
          "internalType": "address",
          "name": "sender",
          "type": "address"
        }
      ],
      "name": "ERC721InvalidSender",
      "type": "error"
    },
    {
      "inputs": [
        {
          "internalType": "uint256",
          "name": "tokenId",
          "type": "uint256"
        }
      ],
      "name": "ERC721NonexistentToken",
      "type": "error"
    },
    {
      "inputs": [
        {
          "internalType": "address",
          "name": "owner",
          "type": "address"
        },
        {
          "internalType": "uint256",
          "name": "index",
          "type": "uint256"
        }
      ],
      "name": "ERC721OutOfBoundsIndex",
      "type": "error"
    },
    {
      "inputs": [
        {
          "internalType": "address",
          "name": "owner",
          "type": "address"
        }
      ],
      "name": "OwnableInvalidOwner",
      "type": "error"
    },
    {
      "inputs": [
        {
          "internalType": "address",
          "name": "account",
          "type": "address"
        }
      ],
      "name": "OwnableUnauthorizedAccount",
      "type": "error"
    },
    {
      "anonymous": false,
      "inputs": [
        {
          "indexed": true,
          "internalType": "address",
          "name": "owner",
          "type": "address"
        },
        {
          "indexed": true,
          "internalType": "address",
          "name": "approved",
          "type": "address"
        },
        {
          "indexed": true,
          "internalType": "uint256",
          "name": "tokenId",
          "type": "uint256"
        }
      ],
      "name": "Approval",
      "type": "event"
    },
    {
      "anonymous": false,
      "inputs": [
        {
          "indexed": true,
          "internalType": "address",
          "name": "owner",
          "type": "address"
        },
        {
          "indexed": true,
          "internalType": "address",
          "name": "operator",
          "type": "address"
        },
        {
          "indexed": false,
          "internalType": "bool",
          "name": "approved",
          "type": "bool"
        }
      ],
      "name": "ApprovalForAll",
      "type": "event"
    },
    {
      "anonymous": false,
      "inputs": [
        {
          "indexed": false,
          "internalType": "uint256",
          "name": "tokenId",
          "type": "uint256"
        },
        {
          "indexed": false,
          "internalType": "uint256",
          "name": "price",
          "type": "uint256"
        },
        {
          "indexed": false,
          "internalType": "address",
          "name": "owner",
          "type": "address"
        }
      ],
      "name": "HouseListed",
      "type": "event"
    },
    {
      "anonymous": false,
      "inputs": [
        {
          "indexed": false,
          "internalType": "uint256",
          "name": "tokenId",
          "type": "uint256"
        },
        {
          "indexed": false,
          "internalType": "uint256",
          "name": "price",
          "type": "uint256"
        },
        {
          "indexed": false,
          "internalType": "address",
          "name": "buyer",
          "type": "address"
        },
        {
          "indexed": false,
          "internalType": "address",
          "name": "seller",
          "type": "address"
        }
      ],
      "name": "HouseSold",
      "type": "event"
    },
    {
      "anonymous": false,
      "inputs": [
        {
          "indexed": true,
          "internalType": "address",
          "name": "previousOwner",
          "type": "address"
        },
        {
          "indexed": true,
          "internalType": "address",
          "name": "newOwner",
          "type": "address"
        }
      ],
      "name": "OwnershipTransferred",
      "type": "event"
    },
    {
      "anonymous": false,
      "inputs": [
        {
          "indexed": true,
          "internalType": "address",
          "name": "from",
          "type": "address"
        },
        {
          "indexed": true,
          "internalType": "address",
          "name": "to",
          "type": "address"
        },
        {
          "indexed": true,
          "internalType": "uint256",
          "name": "tokenId",
          "type": "uint256"
        }
      ],
      "name": "Transfer",
      "type": "event"
    },
    {
      "inputs": [
        {
          "internalType": "address",
          "name": "to",
          "type": "address"
        },
        {
          "internalType": "uint256",
          "name": "tokenId",
          "type": "uint256"
        }
      ],
      "name": "approve",
      "outputs": [],
      "stateMutability": "nonpayable",
      "type": "function"
    },
    {
      "inputs": [
        {
          "internalType": "address",
          "name": "owner",
          "type": "address"
        }
      ],
      "name": "balanceOf",
      "outputs": [
        {
          "internalType": "uint256",
          "name": "",
          "type": "uint256"
        }
      ],
      "stateMutability": "view",
      "type": "function"
    },
    {
      "inputs": [
        {
          "internalType": "uint256",
          "name": "tokenId",
          "type": "uint256"
        }
      ],
      "name": "buyHouse",
      "outputs": [],
      "stateMutability": "payable",
      "type": "function"
    },
    {
      "inputs": [
        {
          "internalType": "uint256",
          "name": "tokenId",
          "type": "uint256"
        }
      ],
      "name": "getApproved",
      "outputs": [
        {
          "internalType": "address",
          "name": "",
          "type": "address"
        }
      ],
      "stateMutability": "view",
      "type": "function"
    },
    {
      "inputs": [
        {
          "internalType": "uint256",
          "name": "tokenId",
          "type": "uint256"
        }
      ],
      "name": "getHouseDetails",
      "outputs": [
        {
          "internalType": "address",
          "name": "owner",
          "type": "address"
        },
        {
          "internalType": "uint256",
          "name": "price",
          "type": "uint256"
        },
        {
          "internalType": "bool",
          "name": "forSale",
          "type": "bool"
        },
        {
          "internalType": "uint256",
          "name": "listedTimestamp",
          "type": "uint256"
        }
      ],
      "stateMutability": "view",
      "type": "function"
    },
    {
      "inputs": [
        {
          "internalType": "address",
          "name": "owner",
          "type": "address"
        }
      ],
      "name": "getHousesByOwner",
      "outputs": [
        {
          "internalType": "uint256[]",
          "name": "",
          "type": "uint256[]"
        }
      ],
      "stateMutability": "view",
      "type": "function"
    },
    {
      "inputs": [],
      "name": "getHousesForSale",
      "outputs": [
        {
          "internalType": "uint256[]",
          "name": "",
          "type": "uint256[]"
        }
      ],
      "stateMutability": "view",
      "type": "function"
    },
    {
      "inputs": [
        {
          "internalType": "uint256",
          "name": "",
          "type": "uint256"
        }
      ],
      "name": "houses",
      "outputs": [
        {
          "internalType": "uint256",
          "name": "id",
          "type": "uint256"
        },
        {
          "internalType": "address",
          "name": "owner",
          "type": "address"
        },
        {
          "internalType": "uint256",
          "name": "listedTimestamp",
          "type": "uint256"
        },
        {
          "internalType": "address payable",
          "name": "to",
          "type": "address"
        },
        {
          "internalType": "uint256",
          "name": "houseprice",
          "type": "uint256"
        },
        {
          "internalType": "bool",
          "name": "forSale",
          "type": "bool"
        }
      ],
      "stateMutability": "view",
      "type": "function"
    },
    {
      "inputs": [
        {
          "internalType": "address",
          "name": "owner",
          "type": "address"
        },
        {
          "internalType": "address",
          "name": "operator",
          "type": "address"
        }
      ],
      "name": "isApprovedForAll",
      "outputs": [
        {
          "internalType": "bool",
          "name": "",
          "type": "bool"
        }
      ],
      "stateMutability": "view",
      "type": "function"
    },
    {
      "inputs": [
        {
          "internalType": "uint256",
          "name": "tokenId",
          "type": "uint256"
        },
        {
          "internalType": "uint256",
          "name": "price",
          "type": "uint256"
        }
      ],
      "name": "listHouseForSale",
      "outputs": [],
      "stateMutability": "nonpayable",
      "type": "function"
    },
    {
      "inputs": [
        {
          "internalType": "address",
          "name": "to",
          "type": "address"
        }
      ],
      "name": "mintHouse",
      "outputs": [],
      "stateMutability": "nonpayable",
      "type": "function"
    },
    {
      "inputs": [],
      "name": "name",
      "outputs": [
        {
          "internalType": "string",
          "name": "",
          "type": "string"
        }
      ],
      "stateMutability": "view",
      "type": "function"
    },
    {
      "inputs": [],
      "name": "owner",
      "outputs": [
        {
          "internalType": "address",
          "name": "",
          "type": "address"
        }
      ],
      "stateMutability": "view",
      "type": "function"
    },
    {
      "inputs": [
        {
          "internalType": "uint256",
          "name": "tokenId",
          "type": "uint256"
        }
      ],
      "name": "ownerOf",
      "outputs": [
        {
          "internalType": "address",
          "name": "",
          "type": "address"
        }
      ],
      "stateMutability": "view",
      "type": "function"
    },
    {
      "inputs": [],
      "name": "platformFeePercent",
      "outputs": [
        {
          "internalType": "uint256",
          "name": "",
          "type": "uint256"
        }
      ],
      "stateMutability": "view",
      "type": "function"
    },
    {
      "inputs": [],
      "name": "renounceOwnership",
      "outputs": [],
      "stateMutability": "nonpayable",
      "type": "function"
    },
    {
      "inputs": [
        {
          "internalType": "address",
          "name": "from",
          "type": "address"
        },
        {
          "internalType": "address",
          "name": "to",
          "type": "address"
        },
        {
          "internalType": "uint256",
          "name": "tokenId",
          "type": "uint256"
        }
      ],
      "name": "safeTransferFrom",
      "outputs": [],
      "stateMutability": "nonpayable",
      "type": "function"
    },
    {
      "inputs": [
        {
          "internalType": "address",
          "name": "from",
          "type": "address"
        },
        {
          "internalType": "address",
          "name": "to",
          "type": "address"
        },
        {
          "internalType": "uint256",
          "name": "tokenId",
          "type": "uint256"
        },
        {
          "internalType": "bytes",
          "name": "data",
          "type": "bytes"
        }
      ],
      "name": "safeTransferFrom",
      "outputs": [],
      "stateMutability": "nonpayable",
      "type": "function"
    },
    {
      "inputs": [
        {
          "internalType": "address",
          "name": "operator",
          "type": "address"
        },
        {
          "internalType": "bool",
          "name": "approved",
          "type": "bool"
        }
      ],
      "name": "setApprovalForAll",
      "outputs": [],
      "stateMutability": "nonpayable",
      "type": "function"
    },
    {
      "inputs": [
        {
          "internalType": "uint256",
          "name": "feePercent",
          "type": "uint256"
        }
      ],
      "name": "setPlatformFeePercent",
      "outputs": [],
      "stateMutability": "nonpayable",
      "type": "function"
    },
    {
      "inputs": [
        {
          "internalType": "bytes4",
          "name": "interfaceId",
          "type": "bytes4"
        }
      ],
      "name": "supportsInterface",
      "outputs": [
        {
          "internalType": "bool",
          "name": "",
          "type": "bool"
        }
      ],
      "stateMutability": "view",
      "type": "function"
    },
    {
      "inputs": [],
      "name": "symbol",
      "outputs": [
        {
          "internalType": "string",
          "name": "",
          "type": "string"
        }
      ],
      "stateMutability": "view",
      "type": "function"
    },
    {
      "inputs": [
        {
          "internalType": "uint256",
          "name": "index",
          "type": "uint256"
        }
      ],
      "name": "tokenByIndex",
      "outputs": [
        {
          "internalType": "uint256",
          "name": "",
          "type": "uint256"
        }
      ],
      "stateMutability": "view",
      "type": "function"
    },
    {
      "inputs": [
        {
          "internalType": "address",
          "name": "owner",
          "type": "address"
        },
        {
          "internalType": "uint256",
          "name": "index",
          "type": "uint256"
        }
      ],
      "name": "tokenOfOwnerByIndex",
      "outputs": [
        {
          "internalType": "uint256",
          "name": "",
          "type": "uint256"
        }
      ],
      "stateMutability": "view",
      "type": "function"
    },
    {
      "inputs": [
        {
          "internalType": "uint256",
          "name": "tokenId",
          "type": "uint256"
        }
      ],
      "name": "tokenURI",
      "outputs": [
        {
          "internalType": "string",
          "name": "",
          "type": "string"
        }
      ],
      "stateMutability": "view",
      "type": "function"
    },
    {
      "inputs": [],
      "name": "totalSupply",
      "outputs": [
        {
          "internalType": "uint256",
          "name": "",
          "type": "uint256"
        }
      ],
      "stateMutability": "view",
      "type": "function"
    },
    {
      "inputs": [
        {
          "internalType": "address",
          "name": "from",
          "type": "address"
        },
        {
          "internalType": "address",
          "name": "to",
          "type": "address"
        },
        {
          "internalType": "uint256",
          "name": "tokenId",
          "type": "uint256"
        }
      ],
      "name": "transferFrom",
      "outputs": [],
      "stateMutability": "nonpayable",
      "type": "function"
    },
    {
      "inputs": [
        {
          "internalType": "address",
          "name": "newOwner",
          "type": "address"
        }
      ],
      "name": "transferOwnership",
      "outputs": [],
      "stateMutability": "nonpayable",
      "type": "function"
    }
  ],
  "bytecode": "0x60806040526000600b556001600c553480156200001b57600080fd5b50336040518060400160405280600a81526020017f486f757365546f6b656e000000000000000000000000000000000000000000008152506040518060400160405280600381526020017f485354000000000000000000000000000000000000000000000000000000000081525081600090816200009a9190620015b6565b508060019081620000ac9190620015b6565b505050600073ffffffffffffffffffffffffffffffffffffffff168173ffffffffffffffffffffffffffffffffffffffff1603620001245760006040517f1e4fbdf70000000000000000000000000000000000000000000000000000000081526004016200011b9190620016e2565b60405180910390fd5b62000135816200028f60201b60201c565b5060006040518060600160405280730650be2053b6130119829fa54a06aa79ca4b44e673ffffffffffffffffffffffffffffffffffffffff1673ffffffffffffffffffffffffffffffffffffffff16815260200173260d14d5fb4b436155fddce95197a0024069ab0073ffffffffffffffffffffffffffffffffffffffff1673ffffffffffffffffffffffffffffffffffffffff168152602001734444702d9d970d2ee7b51de8756ea46d5a81258c73ffffffffffffffffffffffffffffffffffffffff1673ffffffffffffffffffffffffffffffffffffffff16815250905060005b6003811015620002875760005b600381101562000270576200025a838360038110620002495762000248620016ff565b5b60200201516200035560201b60201c565b808062000267906200175d565b91505062000225565b5080806200027e906200175d565b91505062000218565b50506200186f565b6000600a60009054906101000a900473ffffffffffffffffffffffffffffffffffffffff16905081600a60006101000a81548173ffffffffffffffffffffffffffffffffffffffff021916908373ffffffffffffffffffffffffffffffffffffffff1602179055508173ffffffffffffffffffffffffffffffffffffffff168173ffffffffffffffffffffffffffffffffffffffff167f8be0079c531659141344cd1fd0a4f28419497f9722a3daafe3b4186f6b6457e060405160405180910390a35050565b62000365620004dc60201b60201c565b600b60008154809291906200037a906200175d565b91905055506000600b5490506200039882826200057e60201b60201c565b6040518060c001604052808281526020018373ffffffffffffffffffffffffffffffffffffffff168152602001600081526020018373ffffffffffffffffffffffffffffffffffffffff1681526020016000815260200160001515815250600d60008381526020019081526020016000206000820151816000015560208201518160010160006101000a81548173ffffffffffffffffffffffffffffffffffffffff021916908373ffffffffffffffffffffffffffffffffffffffff1602179055506040820151816002015560608201518160030160006101000a81548173ffffffffffffffffffffffffffffffffffffffff021916908373ffffffffffffffffffffffffffffffffffffffff1602179055506080820151816004015560a08201518160050160006101000a81548160ff0219169083151502179055509050505050565b620004ec6200068560201b60201c565b73ffffffffffffffffffffffffffffffffffffffff16620005126200068d60201b60201c565b73ffffffffffffffffffffffffffffffffffffffff16146200057c576200053e6200068560201b60201c565b6040517f118cdaa7000000000000000000000000000000000000000000000000000000008152600401620005739190620016e2565b60405180910390fd5b565b600073ffffffffffffffffffffffffffffffffffffffff168273ffffffffffffffffffffffffffffffffffffffff1603620005f35760006040517f64a0ae92000000000000000000000000000000000000000000000000000000008152600401620005ea9190620016e2565b60405180910390fd5b60006200060983836000620006b760201b60201c565b9050600073ffffffffffffffffffffffffffffffffffffffff168173ffffffffffffffffffffffffffffffffffffffff1614620006805760006040517f73c6ac6e000000000000000000000000000000000000000000000000000000008152600401620006779190620016e2565b60405180910390fd5b505050565b600033905090565b6000600a60009054906101000a900473ffffffffffffffffffffffffffffffffffffffff16905090565b600080620006cd8585856200080260201b60201c565b9050600073ffffffffffffffffffffffffffffffffffffffff168173ffffffffffffffffffffffffffffffffffffffff16036200071b57620007158462000a3760201b60201c565b62000763565b8473ffffffffffffffffffffffffffffffffffffffff168173ffffffffffffffffffffffffffffffffffffffff1614620007625762000761818562000a8060201b60201c565b5b5b600073ffffffffffffffffffffffffffffffffffffffff168573ffffffffffffffffffffffffffffffffffffffff1603620007af57620007a98462000bea60201b60201c565b620007f7565b8473ffffffffffffffffffffffffffffffffffffffff168173ffffffffffffffffffffffffffffffffffffffff1614620007f657620007f5858562000cc660201b60201c565b5b5b809150509392505050565b600080620008168462000d5b60201b60201c565b9050600073ffffffffffffffffffffffffffffffffffffffff168373ffffffffffffffffffffffffffffffffffffffff161462000861576200086081848662000d9860201b60201c565b5b600073ffffffffffffffffffffffffffffffffffffffff168173ffffffffffffffffffffffffffffffffffffffff1614620008fb57620008ac60008560008062000e6a60201b60201c565b6001600360008373ffffffffffffffffffffffffffffffffffffffff1673ffffffffffffffffffffffffffffffffffffffff168152602001908152602001600020600082825403925050819055505b600073ffffffffffffffffffffffffffffffffffffffff168573ffffffffffffffffffffffffffffffffffffffff16146200097f576001600360008773ffffffffffffffffffffffffffffffffffffffff1673ffffffffffffffffffffffffffffffffffffffff168152602001908152602001600020600082825401925050819055505b846002600086815260200190815260200160002060006101000a81548173ffffffffffffffffffffffffffffffffffffffff021916908373ffffffffffffffffffffffffffffffffffffffff160217905550838573ffffffffffffffffffffffffffffffffffffffff168273ffffffffffffffffffffffffffffffffffffffff167fddf252ad1be2c89b69c2b068fc378daa952ba7f163c4a11628f55a4df523b3ef60405160405180910390a4809150509392505050565b6008805490506009600083815260200190815260200160002081905550600881908060018154018082558091505060019003906000526020600020016000909190919091505550565b600062000a93836200104760201b60201c565b905060006007600084815260200190815260200160002054905081811462000b79576000600660008673ffffffffffffffffffffffffffffffffffffffff1673ffffffffffffffffffffffffffffffffffffffff168152602001908152602001600020600084815260200190815260200160002054905080600660008773ffffffffffffffffffffffffffffffffffffffff1673ffffffffffffffffffffffffffffffffffffffff168152602001908152602001600020600084815260200190815260200160002081905550816007600083815260200190815260200160002081905550505b6007600084815260200190815260200160002060009055600660008573ffffffffffffffffffffffffffffffffffffffff1673ffffffffffffffffffffffffffffffffffffffff16815260200190815260200160002060008381526020019081526020016000206000905550505050565b6000600160088054905062000c009190620017aa565b905060006009600084815260200190815260200160002054905060006008838154811062000c335762000c32620016ff565b5b90600052602060002001549050806008838154811062000c585762000c57620016ff565b5b90600052602060002001819055508160096000838152602001908152602001600020819055506009600085815260200190815260200160002060009055600880548062000caa5762000ca9620017e5565b5b6001900381819060005260206000200160009055905550505050565b6000600162000cdb846200104760201b60201c565b62000ce79190620017aa565b905081600660008573ffffffffffffffffffffffffffffffffffffffff1673ffffffffffffffffffffffffffffffffffffffff168152602001908152602001600020600083815260200190815260200160002081905550806007600084815260200190815260200160002081905550505050565b60006002600083815260200190815260200160002060009054906101000a900473ffffffffffffffffffffffffffffffffffffffff169050919050565b62000dab8383836200110460201b60201c565b62000e6557600073ffffffffffffffffffffffffffffffffffffffff168373ffffffffffffffffffffffffffffffffffffffff160362000e2457806040517f7e27328900000000000000000000000000000000000000000000000000000000815260040162000e1b919062001825565b60405180910390fd5b81816040517f177e802f00000000000000000000000000000000000000000000000000000000815260040162000e5c92919062001842565b60405180910390fd5b505050565b808062000ea45750600073ffffffffffffffffffffffffffffffffffffffff168273ffffffffffffffffffffffffffffffffffffffff1614155b1562000fef57600062000ebd84620011d860201b60201c565b9050600073ffffffffffffffffffffffffffffffffffffffff168373ffffffffffffffffffffffffffffffffffffffff161415801562000f2957508273ffffffffffffffffffffffffffffffffffffffff168173ffffffffffffffffffffffffffffffffffffffff1614155b801562000f45575062000f4381846200126b60201b60201c565b155b1562000f8a57826040517fa9fbf51f00000000000000000000000000000000000000000000000000000000815260040162000f819190620016e2565b60405180910390fd5b811562000fed57838573ffffffffffffffffffffffffffffffffffffffff168273ffffffffffffffffffffffffffffffffffffffff167f8c5be1e5ebec7d5bd14f71427d1e84f3dd0314c0f7b2291e5b200ac8c7c3b92560405160405180910390a45b505b836004600085815260200190815260200160002060006101000a81548173ffffffffffffffffffffffffffffffffffffffff021916908373ffffffffffffffffffffffffffffffffffffffff16021790555050505050565b60008073ffffffffffffffffffffffffffffffffffffffff168273ffffffffffffffffffffffffffffffffffffffff1603620010bd5760006040517f89c62b64000000000000000000000000000000000000000000000000000000008152600401620010b49190620016e2565b60405180910390fd5b600360008373ffffffffffffffffffffffffffffffffffffffff1673ffffffffffffffffffffffffffffffffffffffff168152602001908152602001600020549050919050565b60008073ffffffffffffffffffffffffffffffffffffffff168373ffffffffffffffffffffffffffffffffffffffff1614158015620011cf57508273ffffffffffffffffffffffffffffffffffffffff168473ffffffffffffffffffffffffffffffffffffffff1614806200118757506200118684846200126b60201b60201c565b5b80620011ce57508273ffffffffffffffffffffffffffffffffffffffff16620011b683620012ff60201b60201c565b73ffffffffffffffffffffffffffffffffffffffff16145b5b90509392505050565b600080620011ec8362000d5b60201b60201c565b9050600073ffffffffffffffffffffffffffffffffffffffff168173ffffffffffffffffffffffffffffffffffffffff16036200126257826040517f7e27328900000000000000000000000000000000000000000000000000000000815260040162001259919062001825565b60405180910390fd5b80915050919050565b6000600560008473ffffffffffffffffffffffffffffffffffffffff1673ffffffffffffffffffffffffffffffffffffffff16815260200190815260200160002060008373ffffffffffffffffffffffffffffffffffffffff1673ffffffffffffffffffffffffffffffffffffffff16815260200190815260200160002060009054906101000a900460ff16905092915050565b60006004600083815260200190815260200160002060009054906101000a900473ffffffffffffffffffffffffffffffffffffffff169050919050565b600081519050919050565b7f4e487b7100000000000000000000000000000000000000000000000000000000600052604160045260246000fd5b7f4e487b7100000000000000000000000000000000000000000000000000000000600052602260045260246000fd5b60006002820490506001821680620013be57607f821691505b602082108103620013d457620013d362001376565b5b50919050565b60008190508160005260206000209050919050565b60006020601f8301049050919050565b600082821b905092915050565b6000600883026200143e7fffffffffffffffffffffffffffffffffffffffffffffffffffffffffffffffff82620013ff565b6200144a8683620013ff565b95508019841693508086168417925050509392505050565b6000819050919050565b6000819050919050565b600062001497620014916200148b8462001462565b6200146c565b62001462565b9050919050565b6000819050919050565b620014b38362001476565b620014cb620014c2826200149e565b8484546200140c565b825550505050565b600090565b620014e2620014d3565b620014ef818484620014a8565b505050565b5b8181101562001517576200150b600082620014d8565b600181019050620014f5565b5050565b601f82111562001566576200153081620013da565b6200153b84620013ef565b810160208510156200154b578190505b620015636200155a85620013ef565b830182620014f4565b50505b505050565b600082821c905092915050565b60006200158b600019846008026200156b565b1980831691505092915050565b6000620015a6838362001578565b9150826002028217905092915050565b620015c1826200133c565b67ffffffffffffffff811115620015dd57620015dc62001347565b5b620015e98254620013a5565b620015f68282856200151b565b600060209050601f8311600181146200162e576000841562001619578287015190505b62001625858262001598565b86555062001695565b601f1984166200163e86620013da565b60005b82811015620016685784890151825560018201915060208501945060208101905062001641565b8683101562001688578489015162001684601f89168262001578565b8355505b6001600288020188555050505b505050505050565b600073ffffffffffffffffffffffffffffffffffffffff82169050919050565b6000620016ca826200169d565b9050919050565b620016dc81620016bd565b82525050565b6000602082019050620016f96000830184620016d1565b92915050565b7f4e487b7100000000000000000000000000000000000000000000000000000000600052603260045260246000fd5b7f4e487b7100000000000000000000000000000000000000000000000000000000600052601160045260246000fd5b60006200176a8262001462565b91507fffffffffffffffffffffffffffffffffffffffffffffffffffffffffffffffff82036200179f576200179e6200172e565b5b600182019050919050565b6000620017b78262001462565b9150620017c48362001462565b9250828203905081811115620017df57620017de6200172e565b5b92915050565b7f4e487b7100000000000000000000000000000000000000000000000000000000600052603160045260246000fd5b6200181f8162001462565b82525050565b60006020820190506200183c600083018462001814565b92915050565b6000604082019050620018596000830185620016d1565b62001868602083018462001814565b9392505050565b613afb806200187f6000396000f3fe6080604052600436106101b75760003560e01c80638da5cb5b116100ec578063c87b56dd1161008a578063e890834611610064578063e890834614610647578063e985e9c514610687578063eddc4269146106c4578063f2fde38b146106e0576101b7565b8063c87b56dd146105b8578063c9fd96ad146105f5578063cab230d21461061e576101b7565b80639e4ffa7f116100c65780639e4ffa7f146104f9578063a22cb46514610524578063aeda852f1461054d578063b88d4fde1461058f576101b7565b80638da5cb5b1461047a57806395d89b41146104a55780639946f084146104d0576101b7565b806342842e0e1161015957806370a082311161013357806370a08231146103be578063715018a6146103fb57806375e6c709146104125780638c639a851461044f576101b7565b806342842e0e1461031b5780634f6ccce7146103445780636352211e14610381576101b7565b8063095ea7b311610195578063095ea7b31461026157806318160ddd1461028a57806323b872dd146102b55780632f745c59146102de576101b7565b806301ffc9a7146101bc57806306fdde03146101f9578063081812fc14610224575b600080fd5b3480156101c857600080fd5b506101e360048036038101906101de9190612db6565b610709565b6040516101f09190612dfe565b60405180910390f35b34801561020557600080fd5b5061020e610783565b60405161021b9190612ea9565b60405180910390f35b34801561023057600080fd5b5061024b60048036038101906102469190612f01565b610815565b6040516102589190612f6f565b60405180910390f35b34801561026d57600080fd5b5061028860048036038101906102839190612fb6565b610831565b005b34801561029657600080fd5b5061029f610847565b6040516102ac9190613005565b60405180910390f35b3480156102c157600080fd5b506102dc60048036038101906102d79190613020565b610854565b005b3480156102ea57600080fd5b5061030560048036038101906103009190612fb6565b610956565b6040516103129190613005565b60405180910390f35b34801561032757600080fd5b50610342600480360381019061033d9190613020565b6109ff565b005b34801561035057600080fd5b5061036b60048036038101906103669190612f01565b610a1f565b6040516103789190613005565b60405180910390f35b34801561038d57600080fd5b506103a860048036038101906103a39190612f01565b610a95565b6040516103b59190612f6f565b60405180910390f35b3480156103ca57600080fd5b506103e560048036038101906103e09190613073565b610aa7565b6040516103f29190613005565b60405180910390f35b34801561040757600080fd5b50610410610b61565b005b34801561041e57600080fd5b5061043960048036038101906104349190613073565b610b75565b604051610446919061315e565b60405180910390f35b34801561045b57600080fd5b50610464610c23565b6040516104719190613005565b60405180910390f35b34801561048657600080fd5b5061048f610c29565b60405161049c9190612f6f565b60405180910390f35b3480156104b157600080fd5b506104ba610c53565b6040516104c79190612ea9565b60405180910390f35b3480156104dc57600080fd5b506104f760048036038101906104f29190613073565b610ce5565b005b34801561050557600080fd5b5061050e610e5a565b60405161051b919061315e565b60405180910390f35b34801561053057600080fd5b5061054b600480360381019061054691906131ac565b610feb565b005b34801561055957600080fd5b50610574600480360381019061056f9190612f01565b611001565b6040516105869695949392919061320d565b60405180910390f35b34801561059b57600080fd5b506105b660048036038101906105b191906133a3565b61108a565b005b3480156105c457600080fd5b506105df60048036038101906105da9190612f01565b6110a7565b6040516105ec9190612ea9565b60405180910390f35b34801561060157600080fd5b5061061c60048036038101906106179190613426565b611110565b005b34801561062a57600080fd5b5061064560048036038101906106409190612f01565b61126d565b005b34801561065357600080fd5b5061066e60048036038101906106699190612f01565b61127f565b60405161067e9493929190613466565b60405180910390f35b34801561069357600080fd5b506106ae60048036038101906106a991906134ab565b6113b0565b6040516106bb9190612dfe565b60405180910390f35b6106de60048036038101906106d99190612f01565b611444565b005b3480156106ec57600080fd5b5061070760048036038101906107029190613073565b6117c4565b005b60007f780e9d63000000000000000000000000000000000000000000000000000000007bffffffffffffffffffffffffffffffffffffffffffffffffffffffff1916827bffffffffffffffffffffffffffffffffffffffffffffffffffffffff1916148061077c575061077b8261184a565b5b9050919050565b6060600080546107929061351a565b80601f01602080910402602001604051908101604052809291908181526020018280546107be9061351a565b801561080b5780601f106107e05761010080835404028352916020019161080b565b820191906000526020600020905b8154815290600101906020018083116107ee57829003601f168201915b5050505050905090565b60006108208261192c565b5061082a826119b4565b9050919050565b610843828261083e6119f1565b6119f9565b5050565b6000600880549050905090565b600073ffffffffffffffffffffffffffffffffffffffff168273ffffffffffffffffffffffffffffffffffffffff16036108c65760006040517f64a0ae920000000000000000000000000000000000000000000000000000000081526004016108bd9190612f6f565b60405180910390fd5b60006108da83836108d56119f1565b611a0b565b90508373ffffffffffffffffffffffffffffffffffffffff168173ffffffffffffffffffffffffffffffffffffffff1614610950578382826040517f64283d7b0000000000000000000000000000000000000000000000000000000081526004016109479392919061354b565b60405180910390fd5b50505050565b600061096183610aa7565b82106109a65782826040517fa57d13dc00000000000000000000000000000000000000000000000000000000815260040161099d929190613582565b60405180910390fd5b600660008473ffffffffffffffffffffffffffffffffffffffff1673ffffffffffffffffffffffffffffffffffffffff168152602001908152602001600020600083815260200190815260200160002054905092915050565b610a1a8383836040518060200160405280600081525061108a565b505050565b6000610a29610847565b8210610a6f576000826040517fa57d13dc000000000000000000000000000000000000000000000000000000008152600401610a66929190613582565b60405180910390fd5b60088281548110610a8357610a826135ab565b5b90600052602060002001549050919050565b6000610aa08261192c565b9050919050565b60008073ffffffffffffffffffffffffffffffffffffffff168273ffffffffffffffffffffffffffffffffffffffff1603610b1a5760006040517f89c62b64000000000000000000000000000000000000000000000000000000008152600401610b119190612f6f565b60405180910390fd5b600360008373ffffffffffffffffffffffffffffffffffffffff1673ffffffffffffffffffffffffffffffffffffffff168152602001908152602001600020549050919050565b610b69611b28565b610b736000611baf565b565b60606000610b8283610aa7565b905060008167ffffffffffffffff811115610ba057610b9f613278565b5b604051908082528060200260200182016040528015610bce5781602001602082028036833780820191505090505b50905060005b82811015610c1857610be68582610956565b828281518110610bf957610bf86135ab565b5b6020026020010181815250508080610c1090613609565b915050610bd4565b508092505050919050565b600c5481565b6000600a60009054906101000a900473ffffffffffffffffffffffffffffffffffffffff16905090565b606060018054610c629061351a565b80601f0160208091040260200160405190810160405280929190818152602001828054610c8e9061351a565b8015610cdb5780601f10610cb057610100808354040283529160200191610cdb565b820191906000526020600020905b815481529060010190602001808311610cbe57829003601f168201915b5050505050905090565b610ced611b28565b600b6000815480929190610d0090613609565b91905055506000600b549050610d168282611c75565b6040518060c001604052808281526020018373ffffffffffffffffffffffffffffffffffffffff168152602001600081526020018373ffffffffffffffffffffffffffffffffffffffff1681526020016000815260200160001515815250600d60008381526020019081526020016000206000820151816000015560208201518160010160006101000a81548173ffffffffffffffffffffffffffffffffffffffff021916908373ffffffffffffffffffffffffffffffffffffffff1602179055506040820151816002015560608201518160030160006101000a81548173ffffffffffffffffffffffffffffffffffffffff021916908373ffffffffffffffffffffffffffffffffffffffff1602179055506080820151816004015560a08201518160050160006101000a81548160ff0219169083151502179055509050505050565b60606000610e66610847565b905060008167ffffffffffffffff811115610e8457610e83613278565b5b604051908082528060200260200182016040528015610eb25781602001602082028036833780820191505090505b5090506000805b83811015610f3a576000610ecc82610a1f565b9050600d600082815260200190815260200160002060050160009054906101000a900460ff1615610f265780848481518110610f0b57610f0a6135ab565b5b6020026020010181815250508280610f2290613609565b9350505b508080610f3290613609565b915050610eb9565b5060008167ffffffffffffffff811115610f5757610f56613278565b5b604051908082528060200260200182016040528015610f855781602001602082028036833780820191505090505b50905060005b82811015610fe057838181518110610fa657610fa56135ab565b5b6020026020010151828281518110610fc157610fc06135ab565b5b6020026020010181815250508080610fd890613609565b915050610f8b565b508094505050505090565b610ffd610ff66119f1565b8383611d6e565b5050565b600d6020528060005260406000206000915090508060000154908060010160009054906101000a900473ffffffffffffffffffffffffffffffffffffffff16908060020154908060030160009054906101000a900473ffffffffffffffffffffffffffffffffffffffff16908060040154908060050160009054906101000a900460ff16905086565b611095848484610854565b6110a184848484611edd565b50505050565b60606110b28261192c565b5060006110bd612094565b905060008151116110dd5760405180602001604052806000815250611108565b806110e7846120ab565b6040516020016110f892919061368d565b6040516020818303038152906040525b915050919050565b3373ffffffffffffffffffffffffffffffffffffffff1661113083610a95565b73ffffffffffffffffffffffffffffffffffffffff1614611186576040517f08c379a000000000000000000000000000000000000000000000000000000000815260040161117d906136fd565b60405180910390fd5b600081116111c9576040517f08c379a00000000000000000000000000000000000000000000000000000000081526004016111c090613769565b60405180910390fd5b80600d60008481526020019081526020016000206004018190555042600d6000848152602001908152602001600020600201819055506001600d600084815260200190815260200160002060050160006101000a81548160ff0219169083151502179055507f60b3e540896cf4a419e7b7274a1f1282223f5d92ca6f0152cf820fe457fb484382823360405161126193929190613789565b60405180910390a15050565b611275611b28565b80600c8190555050565b6000806000806000600d60008781526020019081526020016000206040518060c0016040529081600082015481526020016001820160009054906101000a900473ffffffffffffffffffffffffffffffffffffffff1673ffffffffffffffffffffffffffffffffffffffff1673ffffffffffffffffffffffffffffffffffffffff168152602001600282015481526020016003820160009054906101000a900473ffffffffffffffffffffffffffffffffffffffff1673ffffffffffffffffffffffffffffffffffffffff1673ffffffffffffffffffffffffffffffffffffffff168152602001600482015481526020016005820160009054906101000a900460ff1615151515815250509050806020015181608001518260a0015183604001519450945094509450509193509193565b6000600560008473ffffffffffffffffffffffffffffffffffffffff1673ffffffffffffffffffffffffffffffffffffffff16815260200190815260200160002060008373ffffffffffffffffffffffffffffffffffffffff1673ffffffffffffffffffffffffffffffffffffffff16815260200190815260200160002060009054906101000a900460ff16905092915050565b6000600d60008381526020019081526020016000206040518060c0016040529081600082015481526020016001820160009054906101000a900473ffffffffffffffffffffffffffffffffffffffff1673ffffffffffffffffffffffffffffffffffffffff1673ffffffffffffffffffffffffffffffffffffffff168152602001600282015481526020016003820160009054906101000a900473ffffffffffffffffffffffffffffffffffffffff1673ffffffffffffffffffffffffffffffffffffffff1673ffffffffffffffffffffffffffffffffffffffff168152602001600482015481526020016005820160009054906101000a900460ff16151515158152505090508060a0015161158f576040517f08c379a00000000000000000000000000000000000000000000000000000000081526004016115869061380c565b60405180910390fd5b806020015173ffffffffffffffffffffffffffffffffffffffff163373ffffffffffffffffffffffffffffffffffffffff1603611601576040517f08c379a00000000000000000000000000000000000000000000000000000000081526004016115f890613878565b60405180910390fd5b60008160400151426116139190613898565b9050600060648360800151600c548461162c91906138cc565b61163691906138cc565b611640919061393d565b9050826020015173ffffffffffffffffffffffffffffffffffffffff166108fc823461166c9190613898565b9081150290604051600060405180830381858888f19350505050158015611697573d6000803e3d6000fd5b506116a0610c29565b73ffffffffffffffffffffffffffffffffffffffff166108fc829081150290604051600060405180830381858888f193505050501580156116e5573d6000803e3d6000fd5b506116f583602001513386612179565b33600d600086815260200190815260200160002060010160006101000a81548173ffffffffffffffffffffffffffffffffffffffff021916908373ffffffffffffffffffffffffffffffffffffffff1602179055506000600d600086815260200190815260200160002060050160006101000a81548160ff0219169083151502179055507f6fd7da1e5aabdf035f2d60271746b8b696eca06faba052c2331da059aaf9419a8484608001513386602001516040516117b6949392919061396e565b60405180910390a150505050565b6117cc611b28565b600073ffffffffffffffffffffffffffffffffffffffff168173ffffffffffffffffffffffffffffffffffffffff160361183e5760006040517f1e4fbdf70000000000000000000000000000000000000000000000000000000081526004016118359190612f6f565b60405180910390fd5b61184781611baf565b50565b60007f80ac58cd000000000000000000000000000000000000000000000000000000007bffffffffffffffffffffffffffffffffffffffffffffffffffffffff1916827bffffffffffffffffffffffffffffffffffffffffffffffffffffffff1916148061191557507f5b5e139f000000000000000000000000000000000000000000000000000000007bffffffffffffffffffffffffffffffffffffffffffffffffffffffff1916827bffffffffffffffffffffffffffffffffffffffffffffffffffffffff1916145b806119255750611924826122e6565b5b9050919050565b60008061193883612350565b9050600073ffffffffffffffffffffffffffffffffffffffff168173ffffffffffffffffffffffffffffffffffffffff16036119ab57826040517f7e2732890000000000000000000000000000000000000000000000000000000081526004016119a29190613005565b60405180910390fd5b80915050919050565b60006004600083815260200190815260200160002060009054906101000a900473ffffffffffffffffffffffffffffffffffffffff169050919050565b600033905090565b611a06838383600161238d565b505050565b600080611a19858585612552565b9050600073ffffffffffffffffffffffffffffffffffffffff168173ffffffffffffffffffffffffffffffffffffffff1603611a5d57611a588461276c565b611a9c565b8473ffffffffffffffffffffffffffffffffffffffff168173ffffffffffffffffffffffffffffffffffffffff1614611a9b57611a9a81856127b5565b5b5b600073ffffffffffffffffffffffffffffffffffffffff168573ffffffffffffffffffffffffffffffffffffffff1603611ade57611ad984612916565b611b1d565b8473ffffffffffffffffffffffffffffffffffffffff168173ffffffffffffffffffffffffffffffffffffffff1614611b1c57611b1b85856129e7565b5b5b809150509392505050565b611b306119f1565b73ffffffffffffffffffffffffffffffffffffffff16611b4e610c29565b73ffffffffffffffffffffffffffffffffffffffff1614611bad57611b716119f1565b6040517f118cdaa7000000000000000000000000000000000000000000000000000000008152600401611ba49190612f6f565b60405180910390fd5b565b6000600a60009054906101000a900473ffffffffffffffffffffffffffffffffffffffff16905081600a60006101000a81548173ffffffffffffffffffffffffffffffffffffffff021916908373ffffffffffffffffffffffffffffffffffffffff1602179055508173ffffffffffffffffffffffffffffffffffffffff168173ffffffffffffffffffffffffffffffffffffffff167f8be0079c531659141344cd1fd0a4f28419497f9722a3daafe3b4186f6b6457e060405160405180910390a35050565b600073ffffffffffffffffffffffffffffffffffffffff168273ffffffffffffffffffffffffffffffffffffffff1603611ce75760006040517f64a0ae92000000000000000000000000000000000000000000000000000000008152600401611cde9190612f6f565b60405180910390fd5b6000611cf583836000611a0b565b9050600073ffffffffffffffffffffffffffffffffffffffff168173ffffffffffffffffffffffffffffffffffffffff1614611d695760006040517f73c6ac6e000000000000000000000000000000000000000000000000000000008152600401611d609190612f6f565b60405180910390fd5b505050565b600073ffffffffffffffffffffffffffffffffffffffff168273ffffffffffffffffffffffffffffffffffffffff1603611ddf57816040517f5b08ba18000000000000000000000000000000000000000000000000000000008152600401611dd69190612f6f565b60405180910390fd5b80600560008573ffffffffffffffffffffffffffffffffffffffff1673ffffffffffffffffffffffffffffffffffffffff16815260200190815260200160002060008473ffffffffffffffffffffffffffffffffffffffff1673ffffffffffffffffffffffffffffffffffffffff16815260200190815260200160002060006101000a81548160ff0219169083151502179055508173ffffffffffffffffffffffffffffffffffffffff168373ffffffffffffffffffffffffffffffffffffffff167f17307eab39ab6107e8899845ad3d59bd9653f200f220920489ca2b5937696c3183604051611ed09190612dfe565b60405180910390a3505050565b60008373ffffffffffffffffffffffffffffffffffffffff163b111561208e578273ffffffffffffffffffffffffffffffffffffffff1663150b7a02611f216119f1565b8685856040518563ffffffff1660e01b8152600401611f439493929190613a08565b6020604051808303816000875af1925050508015611f7f57506040513d601f19601f82011682018060405250810190611f7c9190613a69565b60015b612003573d8060008114611faf576040519150601f19603f3d011682016040523d82523d6000602084013e611fb4565b606091505b506000815103611ffb57836040517f64a0ae92000000000000000000000000000000000000000000000000000000008152600401611ff29190612f6f565b60405180910390fd5b805181602001fd5b63150b7a0260e01b7bffffffffffffffffffffffffffffffffffffffffffffffffffffffff1916817bffffffffffffffffffffffffffffffffffffffffffffffffffffffff19161461208c57836040517f64a0ae920000000000000000000000000000000000000000000000000000000081526004016120839190612f6f565b60405180910390fd5b505b50505050565b606060405180602001604052806000815250905090565b6060600060016120ba84612a72565b01905060008167ffffffffffffffff8111156120d9576120d8613278565b5b6040519080825280601f01601f19166020018201604052801561210b5781602001600182028036833780820191505090505b509050600082602001820190505b60011561216e578080600190039150507f3031323334353637383961626364656600000000000000000000000000000000600a86061a8153600a85816121625761216161390e565b5b04945060008503612119575b819350505050919050565b600073ffffffffffffffffffffffffffffffffffffffff168273ffffffffffffffffffffffffffffffffffffffff16036121eb5760006040517f64a0ae920000000000000000000000000000000000000000000000000000000081526004016121e29190612f6f565b60405180910390fd5b60006121f983836000611a0b565b9050600073ffffffffffffffffffffffffffffffffffffffff168173ffffffffffffffffffffffffffffffffffffffff160361226c57816040517f7e2732890000000000000000000000000000000000000000000000000000000081526004016122639190613005565b60405180910390fd5b8373ffffffffffffffffffffffffffffffffffffffff168173ffffffffffffffffffffffffffffffffffffffff16146122e0578382826040517f64283d7b0000000000000000000000000000000000000000000000000000000081526004016122d79392919061354b565b60405180910390fd5b50505050565b60007f01ffc9a7000000000000000000000000000000000000000000000000000000007bffffffffffffffffffffffffffffffffffffffffffffffffffffffff1916827bffffffffffffffffffffffffffffffffffffffffffffffffffffffff1916149050919050565b60006002600083815260200190815260200160002060009054906101000a900473ffffffffffffffffffffffffffffffffffffffff169050919050565b80806123c65750600073ffffffffffffffffffffffffffffffffffffffff168273ffffffffffffffffffffffffffffffffffffffff1614155b156124fa5760006123d68461192c565b9050600073ffffffffffffffffffffffffffffffffffffffff168373ffffffffffffffffffffffffffffffffffffffff161415801561244157508273ffffffffffffffffffffffffffffffffffffffff168173ffffffffffffffffffffffffffffffffffffffff1614155b8015612454575061245281846113b0565b155b1561249657826040517fa9fbf51f00000000000000000000000000000000000000000000000000000000815260040161248d9190612f6f565b60405180910390fd5b81156124f857838573ffffffffffffffffffffffffffffffffffffffff168273ffffffffffffffffffffffffffffffffffffffff167f8c5be1e5ebec7d5bd14f71427d1e84f3dd0314c0f7b2291e5b200ac8c7c3b92560405160405180910390a45b505b836004600085815260200190815260200160002060006101000a81548173ffffffffffffffffffffffffffffffffffffffff021916908373ffffffffffffffffffffffffffffffffffffffff16021790555050505050565b60008061255e84612350565b9050600073ffffffffffffffffffffffffffffffffffffffff168373ffffffffffffffffffffffffffffffffffffffff16146125a05761259f818486612bc5565b5b600073ffffffffffffffffffffffffffffffffffffffff168173ffffffffffffffffffffffffffffffffffffffff1614612631576125e260008560008061238d565b6001600360008373ffffffffffffffffffffffffffffffffffffffff1673ffffffffffffffffffffffffffffffffffffffff168152602001908152602001600020600082825403925050819055505b600073ffffffffffffffffffffffffffffffffffffffff168573ffffffffffffffffffffffffffffffffffffffff16146126b4576001600360008773ffffffffffffffffffffffffffffffffffffffff1673ffffffffffffffffffffffffffffffffffffffff168152602001908152602001600020600082825401925050819055505b846002600086815260200190815260200160002060006101000a81548173ffffffffffffffffffffffffffffffffffffffff021916908373ffffffffffffffffffffffffffffffffffffffff160217905550838573ffffffffffffffffffffffffffffffffffffffff168273ffffffffffffffffffffffffffffffffffffffff167fddf252ad1be2c89b69c2b068fc378daa952ba7f163c4a11628f55a4df523b3ef60405160405180910390a4809150509392505050565b6008805490506009600083815260200190815260200160002081905550600881908060018154018082558091505060019003906000526020600020016000909190919091505550565b60006127c083610aa7565b90506000600760008481526020019081526020016000205490508181146128a5576000600660008673ffffffffffffffffffffffffffffffffffffffff1673ffffffffffffffffffffffffffffffffffffffff168152602001908152602001600020600084815260200190815260200160002054905080600660008773ffffffffffffffffffffffffffffffffffffffff1673ffffffffffffffffffffffffffffffffffffffff168152602001908152602001600020600084815260200190815260200160002081905550816007600083815260200190815260200160002081905550505b6007600084815260200190815260200160002060009055600660008573ffffffffffffffffffffffffffffffffffffffff1673ffffffffffffffffffffffffffffffffffffffff16815260200190815260200160002060008381526020019081526020016000206000905550505050565b6000600160088054905061292a9190613898565b905060006009600084815260200190815260200160002054905060006008838154811061295a576129596135ab565b5b90600052602060002001549050806008838154811061297c5761297b6135ab565b5b9060005260206000200181905550816009600083815260200190815260200160002081905550600960008581526020019081526020016000206000905560088054806129cb576129ca613a96565b5b6001900381819060005260206000200160009055905550505050565b600060016129f484610aa7565b6129fe9190613898565b905081600660008573ffffffffffffffffffffffffffffffffffffffff1673ffffffffffffffffffffffffffffffffffffffff168152602001908152602001600020600083815260200190815260200160002081905550806007600084815260200190815260200160002081905550505050565b600080600090507a184f03e93ff9f4daa797ed6e38ed64bf6a1f0100000000000000008310612ad0577a184f03e93ff9f4daa797ed6e38ed64bf6a1f0100000000000000008381612ac657612ac561390e565b5b0492506040810190505b6d04ee2d6d415b85acef81000000008310612b0d576d04ee2d6d415b85acef81000000008381612b0357612b0261390e565b5b0492506020810190505b662386f26fc100008310612b3c57662386f26fc100008381612b3257612b3161390e565b5b0492506010810190505b6305f5e1008310612b65576305f5e1008381612b5b57612b5a61390e565b5b0492506008810190505b6127108310612b8a576127108381612b8057612b7f61390e565b5b0492506004810190505b60648310612bad5760648381612ba357612ba261390e565b5b0492506002810190505b600a8310612bbc576001810190505b80915050919050565b612bd0838383612c89565b612c8457600073ffffffffffffffffffffffffffffffffffffffff168373ffffffffffffffffffffffffffffffffffffffff1603612c4557806040517f7e273289000000000000000000000000000000000000000000000000000000008152600401612c3c9190613005565b60405180910390fd5b81816040517f177e802f000000000000000000000000000000000000000000000000000000008152600401612c7b929190613582565b60405180910390fd5b505050565b60008073ffffffffffffffffffffffffffffffffffffffff168373ffffffffffffffffffffffffffffffffffffffff1614158015612d4157508273ffffffffffffffffffffffffffffffffffffffff168473ffffffffffffffffffffffffffffffffffffffff161480612d025750612d0184846113b0565b5b80612d4057508273ffffffffffffffffffffffffffffffffffffffff16612d28836119b4565b73ffffffffffffffffffffffffffffffffffffffff16145b5b90509392505050565b6000604051905090565b600080fd5b600080fd5b60007fffffffff0000000000000000000000000000000000000000000000000000000082169050919050565b612d9381612d5e565b8114612d9e57600080fd5b50565b600081359050612db081612d8a565b92915050565b600060208284031215612dcc57612dcb612d54565b5b6000612dda84828501612da1565b91505092915050565b60008115159050919050565b612df881612de3565b82525050565b6000602082019050612e136000830184612def565b92915050565b600081519050919050565b600082825260208201905092915050565b60005b83811015612e53578082015181840152602081019050612e38565b60008484015250505050565b6000601f19601f8301169050919050565b6000612e7b82612e19565b612e858185612e24565b9350612e95818560208601612e35565b612e9e81612e5f565b840191505092915050565b60006020820190508181036000830152612ec38184612e70565b905092915050565b6000819050919050565b612ede81612ecb565b8114612ee957600080fd5b50565b600081359050612efb81612ed5565b92915050565b600060208284031215612f1757612f16612d54565b5b6000612f2584828501612eec565b91505092915050565b600073ffffffffffffffffffffffffffffffffffffffff82169050919050565b6000612f5982612f2e565b9050919050565b612f6981612f4e565b82525050565b6000602082019050612f846000830184612f60565b92915050565b612f9381612f4e565b8114612f9e57600080fd5b50565b600081359050612fb081612f8a565b92915050565b60008060408385031215612fcd57612fcc612d54565b5b6000612fdb85828601612fa1565b9250506020612fec85828601612eec565b9150509250929050565b612fff81612ecb565b82525050565b600060208201905061301a6000830184612ff6565b92915050565b60008060006060848603121561303957613038612d54565b5b600061304786828701612fa1565b935050602061305886828701612fa1565b925050604061306986828701612eec565b9150509250925092565b60006020828403121561308957613088612d54565b5b600061309784828501612fa1565b91505092915050565b600081519050919050565b600082825260208201905092915050565b6000819050602082019050919050565b6130d581612ecb565b82525050565b60006130e783836130cc565b60208301905092915050565b6000602082019050919050565b600061310b826130a0565b61311581856130ab565b9350613120836130bc565b8060005b8381101561315157815161313888826130db565b9750613143836130f3565b925050600181019050613124565b5085935050505092915050565b600060208201905081810360008301526131788184613100565b905092915050565b61318981612de3565b811461319457600080fd5b50565b6000813590506131a681613180565b92915050565b600080604083850312156131c3576131c2612d54565b5b60006131d185828601612fa1565b92505060206131e285828601613197565b9150509250929050565b60006131f782612f2e565b9050919050565b613207816131ec565b82525050565b600060c0820190506132226000830189612ff6565b61322f6020830188612f60565b61323c6040830187612ff6565b61324960608301866131fe565b6132566080830185612ff6565b61326360a0830184612def565b979650505050505050565b600080fd5b600080fd5b7f4e487b7100000000000000000000000000000000000000000000000000000000600052604160045260246000fd5b6132b082612e5f565b810181811067ffffffffffffffff821117156132cf576132ce613278565b5b80604052505050565b60006132e2612d4a565b90506132ee82826132a7565b919050565b600067ffffffffffffffff82111561330e5761330d613278565b5b61331782612e5f565b9050602081019050919050565b82818337600083830152505050565b6000613346613341846132f3565b6132d8565b90508281526020810184848401111561336257613361613273565b5b61336d848285613324565b509392505050565b600082601f83011261338a5761338961326e565b5b813561339a848260208601613333565b91505092915050565b600080600080608085870312156133bd576133bc612d54565b5b60006133cb87828801612fa1565b94505060206133dc87828801612fa1565b93505060406133ed87828801612eec565b925050606085013567ffffffffffffffff81111561340e5761340d612d59565b5b61341a87828801613375565b91505092959194509250565b6000806040838503121561343d5761343c612d54565b5b600061344b85828601612eec565b925050602061345c85828601612eec565b9150509250929050565b600060808201905061347b6000830187612f60565b6134886020830186612ff6565b6134956040830185612def565b6134a26060830184612ff6565b95945050505050565b600080604083850312156134c2576134c1612d54565b5b60006134d085828601612fa1565b92505060206134e185828601612fa1565b9150509250929050565b7f4e487b7100000000000000000000000000000000000000000000000000000000600052602260045260246000fd5b6000600282049050600182168061353257607f821691505b602082108103613545576135446134eb565b5b50919050565b60006060820190506135606000830186612f60565b61356d6020830185612ff6565b61357a6040830184612f60565b949350505050565b60006040820190506135976000830185612f60565b6135a46020830184612ff6565b9392505050565b7f4e487b7100000000000000000000000000000000000000000000000000000000600052603260045260246000fd5b7f4e487b7100000000000000000000000000000000000000000000000000000000600052601160045260246000fd5b600061361482612ecb565b91507fffffffffffffffffffffffffffffffffffffffffffffffffffffffffffffffff8203613646576136456135da565b5b600182019050919050565b600081905092915050565b600061366782612e19565b6136718185613651565b9350613681818560208601612e35565b80840191505092915050565b6000613699828561365c565b91506136a5828461365c565b91508190509392505050565b7f596f7520646f206e6f74206f776e207468697320686f75736500000000000000600082015250565b60006136e7601983612e24565b91506136f2826136b1565b602082019050919050565b60006020820190508181036000830152613716816136da565b9050919050565b7f5072696365206d7573742062652067726561746572207468616e203000000000600082015250565b6000613753601c83612e24565b915061375e8261371d565b602082019050919050565b6000602082019050818103600083015261378281613746565b9050919050565b600060608201905061379e6000830186612ff6565b6137ab6020830185612ff6565b6137b86040830184612f60565b949350505050565b7f486f757365206973206e6f7420666f722073616c650000000000000000000000600082015250565b60006137f6601583612e24565b9150613801826137c0565b602082019050919050565b60006020820190508181036000830152613825816137e9565b9050919050565b7f5468697320686f75736520697320616c726561647920796f7572730000000000600082015250565b6000613862601b83612e24565b915061386d8261382c565b602082019050919050565b6000602082019050818103600083015261389181613855565b9050919050565b60006138a382612ecb565b91506138ae83612ecb565b92508282039050818111156138c6576138c56135da565b5b92915050565b60006138d782612ecb565b91506138e283612ecb565b92508282026138f081612ecb565b91508282048414831517613907576139066135da565b5b5092915050565b7f4e487b7100000000000000000000000000000000000000000000000000000000600052601260045260246000fd5b600061394882612ecb565b915061395383612ecb565b9250826139635761396261390e565b5b828204905092915050565b60006080820190506139836000830187612ff6565b6139906020830186612ff6565b61399d6040830185612f60565b6139aa6060830184612f60565b95945050505050565b600081519050919050565b600082825260208201905092915050565b60006139da826139b3565b6139e481856139be565b93506139f4818560208601612e35565b6139fd81612e5f565b840191505092915050565b6000608082019050613a1d6000830187612f60565b613a2a6020830186612f60565b613a376040830185612ff6565b8181036060830152613a4981846139cf565b905095945050505050565b600081519050613a6381612d8a565b92915050565b600060208284031215613a7f57613a7e612d54565b5b6000613a8d84828501613a54565b91505092915050565b7f4e487b7100000000000000000000000000000000000000000000000000000000600052603160045260246000fdfea264697066735822122033174d7d9260eceb4595add48ef84b2eacdc97d0aaf2a03f3e0d537674e0d8ae64736f6c63430008140033",
  "linkReferences": {},
  "deployedLinkReferences": {}
}