{
  "_format": "hh-sol-artifact-1",
  "contractName": "BuyMyRoom",
  "sourceName": "contracts/BuyMyRoom.sol",
  "abi": [
    {
      "inputs": [],
      "stateMutability": "nonpayable",
      "type": "constructor"
    },
    {
      "inputs": [],
      "name": "ERC721EnumerableForbiddenBatchMint",
      "type": "error"
    },
    {
      "inputs": [
        {
          "internalType": "address",
          "name": "sender",
          "type": "address"
        },
        {
          "internalType": "uint256",
          "name": "tokenId",
          "type": "uint256"
        },
        {
          "internalType": "address",
          "name": "owner",
          "type": "address"
        }
      ],
      "name": "ERC721IncorrectOwner",
      "type": "error"
    },
    {
      "inputs": [
        {
          "internalType": "address",
          "name": "operator",
          "type": "address"
        },
        {
          "internalType": "uint256",
          "name": "tokenId",
          "type": "uint256"
        }
      ],
      "name": "ERC721InsufficientApproval",
      "type": "error"
    },
    {
      "inputs": [
        {
          "internalType": "address",
          "name": "approver",
          "type": "address"
        }
      ],
      "name": "ERC721InvalidApprover",
      "type": "error"
    },
    {
      "inputs": [
        {
          "internalType": "address",
          "name": "operator",
          "type": "address"
        }
      ],
      "name": "ERC721InvalidOperator",
      "type": "error"
    },
    {
      "inputs": [
        {
          "internalType": "address",
          "name": "owner",
          "type": "address"
        }
      ],
      "name": "ERC721InvalidOwner",
      "type": "error"
    },
    {
      "inputs": [
        {
          "internalType": "address",
          "name": "receiver",
          "type": "address"
        }
      ],
      "name": "ERC721InvalidReceiver",
      "type": "error"
    },
    {
      "inputs": [
        {
          "internalType": "address",
          "name": "sender",
          "type": "address"
        }
      ],
      "name": "ERC721InvalidSender",
      "type": "error"
    },
    {
      "inputs": [
        {
          "internalType": "uint256",
          "name": "tokenId",
          "type": "uint256"
        }
      ],
      "name": "ERC721NonexistentToken",
      "type": "error"
    },
    {
      "inputs": [
        {
          "internalType": "address",
          "name": "owner",
          "type": "address"
        },
        {
          "internalType": "uint256",
          "name": "index",
          "type": "uint256"
        }
      ],
      "name": "ERC721OutOfBoundsIndex",
      "type": "error"
    },
    {
      "inputs": [
        {
          "internalType": "address",
          "name": "owner",
          "type": "address"
        }
      ],
      "name": "OwnableInvalidOwner",
      "type": "error"
    },
    {
      "inputs": [
        {
          "internalType": "address",
          "name": "account",
          "type": "address"
        }
      ],
      "name": "OwnableUnauthorizedAccount",
      "type": "error"
    },
    {
      "anonymous": false,
      "inputs": [
        {
          "indexed": true,
          "internalType": "address",
          "name": "owner",
          "type": "address"
        },
        {
          "indexed": true,
          "internalType": "address",
          "name": "approved",
          "type": "address"
        },
        {
          "indexed": true,
          "internalType": "uint256",
          "name": "tokenId",
          "type": "uint256"
        }
      ],
      "name": "Approval",
      "type": "event"
    },
    {
      "anonymous": false,
      "inputs": [
        {
          "indexed": true,
          "internalType": "address",
          "name": "owner",
          "type": "address"
        },
        {
          "indexed": true,
          "internalType": "address",
          "name": "operator",
          "type": "address"
        },
        {
          "indexed": false,
          "internalType": "bool",
          "name": "approved",
          "type": "bool"
        }
      ],
      "name": "ApprovalForAll",
      "type": "event"
    },
    {
      "anonymous": false,
      "inputs": [
        {
          "indexed": false,
          "internalType": "uint256",
          "name": "tokenId",
          "type": "uint256"
        },
        {
          "indexed": false,
          "internalType": "uint256",
          "name": "price",
          "type": "uint256"
        },
        {
          "indexed": false,
          "internalType": "address",
          "name": "owner",
          "type": "address"
        }
      ],
      "name": "HouseListed",
      "type": "event"
    },
    {
      "anonymous": false,
      "inputs": [
        {
          "indexed": false,
          "internalType": "uint256",
          "name": "tokenId",
          "type": "uint256"
        },
        {
          "indexed": false,
          "internalType": "uint256",
          "name": "price",
          "type": "uint256"
        },
        {
          "indexed": false,
          "internalType": "address",
          "name": "buyer",
          "type": "address"
        },
        {
          "indexed": false,
          "internalType": "address",
          "name": "seller",
          "type": "address"
        }
      ],
      "name": "HouseSold",
      "type": "event"
    },
    {
      "anonymous": false,
      "inputs": [
        {
          "indexed": true,
          "internalType": "address",
          "name": "previousOwner",
          "type": "address"
        },
        {
          "indexed": true,
          "internalType": "address",
          "name": "newOwner",
          "type": "address"
        }
      ],
      "name": "OwnershipTransferred",
      "type": "event"
    },
    {
      "anonymous": false,
      "inputs": [
        {
          "indexed": true,
          "internalType": "address",
          "name": "from",
          "type": "address"
        },
        {
          "indexed": true,
          "internalType": "address",
          "name": "to",
          "type": "address"
        },
        {
          "indexed": true,
          "internalType": "uint256",
          "name": "tokenId",
          "type": "uint256"
        }
      ],
      "name": "Transfer",
      "type": "event"
    },
    {
      "anonymous": false,
      "inputs": [
        {
          "indexed": false,
          "internalType": "bytes32",
          "name": "hash",
          "type": "bytes32"
        }
      ],
      "name": "UserAddressHash",
      "type": "event"
    },
    {
      "inputs": [
        {
          "internalType": "address",
          "name": "to",
          "type": "address"
        },
        {
          "internalType": "uint256",
          "name": "tokenId",
          "type": "uint256"
        }
      ],
      "name": "approve",
      "outputs": [],
      "stateMutability": "nonpayable",
      "type": "function"
    },
    {
      "inputs": [
        {
          "internalType": "address",
          "name": "owner",
          "type": "address"
        }
      ],
      "name": "balanceOf",
      "outputs": [
        {
          "internalType": "uint256",
          "name": "",
          "type": "uint256"
        }
      ],
      "stateMutability": "view",
      "type": "function"
    },
    {
      "inputs": [
        {
          "internalType": "uint256",
          "name": "tokenId",
          "type": "uint256"
        }
      ],
      "name": "buyHouse",
      "outputs": [],
      "stateMutability": "payable",
      "type": "function"
    },
    {
      "inputs": [
        {
          "internalType": "uint256",
          "name": "tokenId",
          "type": "uint256"
        }
      ],
      "name": "getApproved",
      "outputs": [
        {
          "internalType": "address",
          "name": "",
          "type": "address"
        }
      ],
      "stateMutability": "view",
      "type": "function"
    },
    {
      "inputs": [
        {
          "internalType": "uint256",
          "name": "tokenId",
          "type": "uint256"
        }
      ],
      "name": "getHouseDetails",
      "outputs": [
        {
          "internalType": "address",
          "name": "owner",
          "type": "address"
        },
        {
          "internalType": "uint256",
          "name": "price",
          "type": "uint256"
        },
        {
          "internalType": "bool",
          "name": "forSale",
          "type": "bool"
        },
        {
          "internalType": "uint256",
          "name": "listedTimestamp",
          "type": "uint256"
        },
        {
          "internalType": "uint256",
          "name": "id",
          "type": "uint256"
        }
      ],
      "stateMutability": "view",
      "type": "function"
    },
    {
      "inputs": [
        {
          "internalType": "address",
          "name": "owner",
          "type": "address"
        }
      ],
      "name": "getHousesByOwner",
      "outputs": [
        {
          "internalType": "uint256[]",
          "name": "",
          "type": "uint256[]"
        }
      ],
      "stateMutability": "view",
      "type": "function"
    },
    {
      "inputs": [],
      "name": "getHousesForSale",
      "outputs": [
        {
          "internalType": "uint256[]",
          "name": "",
          "type": "uint256[]"
        }
      ],
      "stateMutability": "view",
      "type": "function"
    },
    {
      "inputs": [],
      "name": "getUserAddressHash",
      "outputs": [
        {
          "internalType": "bytes32",
          "name": "",
          "type": "bytes32"
        }
      ],
      "stateMutability": "nonpayable",
      "type": "function"
    },
    {
      "inputs": [
        {
          "internalType": "uint256",
          "name": "",
          "type": "uint256"
        }
      ],
      "name": "houses",
      "outputs": [
        {
          "internalType": "uint256",
          "name": "id",
          "type": "uint256"
        },
        {
          "internalType": "address",
          "name": "owner",
          "type": "address"
        },
        {
          "internalType": "uint256",
          "name": "listedTimestamp",
          "type": "uint256"
        },
        {
          "internalType": "address payable",
          "name": "to",
          "type": "address"
        },
        {
          "internalType": "uint256",
          "name": "houseprice",
          "type": "uint256"
        },
        {
          "internalType": "bool",
          "name": "forSale",
          "type": "bool"
        }
      ],
      "stateMutability": "view",
      "type": "function"
    },
    {
      "inputs": [
        {
          "internalType": "address",
          "name": "owner",
          "type": "address"
        },
        {
          "internalType": "address",
          "name": "operator",
          "type": "address"
        }
      ],
      "name": "isApprovedForAll",
      "outputs": [
        {
          "internalType": "bool",
          "name": "",
          "type": "bool"
        }
      ],
      "stateMutability": "view",
      "type": "function"
    },
    {
      "inputs": [
        {
          "internalType": "uint256",
          "name": "tokenId",
          "type": "uint256"
        },
        {
          "internalType": "uint256",
          "name": "price",
          "type": "uint256"
        }
      ],
      "name": "listHouseForSale",
      "outputs": [],
      "stateMutability": "nonpayable",
      "type": "function"
    },
    {
      "inputs": [],
      "name": "manager",
      "outputs": [
        {
          "internalType": "address",
          "name": "",
          "type": "address"
        }
      ],
      "stateMutability": "view",
      "type": "function"
    },
    {
      "inputs": [
        {
          "internalType": "address",
          "name": "to",
          "type": "address"
        }
      ],
      "name": "mintHouse",
      "outputs": [],
      "stateMutability": "nonpayable",
      "type": "function"
    },
    {
      "inputs": [],
      "name": "myERC20",
      "outputs": [
        {
          "internalType": "contract WenCoin",
          "name": "",
          "type": "address"
        }
      ],
      "stateMutability": "view",
      "type": "function"
    },
    {
      "inputs": [],
      "name": "name",
      "outputs": [
        {
          "internalType": "string",
          "name": "",
          "type": "string"
        }
      ],
      "stateMutability": "view",
      "type": "function"
    },
    {
      "inputs": [],
      "name": "owner",
      "outputs": [
        {
          "internalType": "address",
          "name": "",
          "type": "address"
        }
      ],
      "stateMutability": "view",
      "type": "function"
    },
    {
      "inputs": [
        {
          "internalType": "uint256",
          "name": "tokenId",
          "type": "uint256"
        }
      ],
      "name": "ownerOf",
      "outputs": [
        {
          "internalType": "address",
          "name": "",
          "type": "address"
        }
      ],
      "stateMutability": "view",
      "type": "function"
    },
    {
      "inputs": [],
      "name": "platformFeePercent",
      "outputs": [
        {
          "internalType": "uint256",
          "name": "",
          "type": "uint256"
        }
      ],
      "stateMutability": "view",
      "type": "function"
    },
    {
      "inputs": [],
      "name": "renounceOwnership",
      "outputs": [],
      "stateMutability": "nonpayable",
      "type": "function"
    },
    {
      "inputs": [
        {
          "internalType": "address",
          "name": "from",
          "type": "address"
        },
        {
          "internalType": "address",
          "name": "to",
          "type": "address"
        },
        {
          "internalType": "uint256",
          "name": "tokenId",
          "type": "uint256"
        }
      ],
      "name": "safeTransferFrom",
      "outputs": [],
      "stateMutability": "nonpayable",
      "type": "function"
    },
    {
      "inputs": [
        {
          "internalType": "address",
          "name": "from",
          "type": "address"
        },
        {
          "internalType": "address",
          "name": "to",
          "type": "address"
        },
        {
          "internalType": "uint256",
          "name": "tokenId",
          "type": "uint256"
        },
        {
          "internalType": "bytes",
          "name": "data",
          "type": "bytes"
        }
      ],
      "name": "safeTransferFrom",
      "outputs": [],
      "stateMutability": "nonpayable",
      "type": "function"
    },
    {
      "inputs": [
        {
          "internalType": "address",
          "name": "operator",
          "type": "address"
        },
        {
          "internalType": "bool",
          "name": "approved",
          "type": "bool"
        }
      ],
      "name": "setApprovalForAll",
      "outputs": [],
      "stateMutability": "nonpayable",
      "type": "function"
    },
    {
      "inputs": [
        {
          "internalType": "bytes4",
          "name": "interfaceId",
          "type": "bytes4"
        }
      ],
      "name": "supportsInterface",
      "outputs": [
        {
          "internalType": "bool",
          "name": "",
          "type": "bool"
        }
      ],
      "stateMutability": "view",
      "type": "function"
    },
    {
      "inputs": [],
      "name": "symbol",
      "outputs": [
        {
          "internalType": "string",
          "name": "",
          "type": "string"
        }
      ],
      "stateMutability": "view",
      "type": "function"
    },
    {
      "inputs": [
        {
          "internalType": "uint256",
          "name": "index",
          "type": "uint256"
        }
      ],
      "name": "tokenByIndex",
      "outputs": [
        {
          "internalType": "uint256",
          "name": "",
          "type": "uint256"
        }
      ],
      "stateMutability": "view",
      "type": "function"
    },
    {
      "inputs": [
        {
          "internalType": "address",
          "name": "owner",
          "type": "address"
        },
        {
          "internalType": "uint256",
          "name": "index",
          "type": "uint256"
        }
      ],
      "name": "tokenOfOwnerByIndex",
      "outputs": [
        {
          "internalType": "uint256",
          "name": "",
          "type": "uint256"
        }
      ],
      "stateMutability": "view",
      "type": "function"
    },
    {
      "inputs": [
        {
          "internalType": "uint256",
          "name": "tokenId",
          "type": "uint256"
        }
      ],
      "name": "tokenURI",
      "outputs": [
        {
          "internalType": "string",
          "name": "",
          "type": "string"
        }
      ],
      "stateMutability": "view",
      "type": "function"
    },
    {
      "inputs": [],
      "name": "totalSupply",
      "outputs": [
        {
          "internalType": "uint256",
          "name": "",
          "type": "uint256"
        }
      ],
      "stateMutability": "view",
      "type": "function"
    },
    {
      "inputs": [
        {
          "internalType": "address",
          "name": "from",
          "type": "address"
        },
        {
          "internalType": "address",
          "name": "to",
          "type": "address"
        },
        {
          "internalType": "uint256",
          "name": "tokenId",
          "type": "uint256"
        }
      ],
      "name": "transferFrom",
      "outputs": [],
      "stateMutability": "nonpayable",
      "type": "function"
    },
    {
      "inputs": [
        {
          "internalType": "address",
          "name": "newOwner",
          "type": "address"
        }
      ],
      "name": "transferOwnership",
      "outputs": [],
      "stateMutability": "nonpayable",
      "type": "function"
    }
  ],
  "bytecode": "0x60806040526000600b556001600c553480156200001b57600080fd5b50336040518060400160405280600a81526020017f486f757365546f6b656e000000000000000000000000000000000000000000008152506040518060400160405280600381526020017f485354000000000000000000000000000000000000000000000000000000000081525081600090816200009a91906200167c565b508060019081620000ac91906200167c565b505050600073ffffffffffffffffffffffffffffffffffffffff168173ffffffffffffffffffffffffffffffffffffffff1603620001245760006040517f1e4fbdf70000000000000000000000000000000000000000000000000000000081526004016200011b9190620017a8565b60405180910390fd5b62000135816200034760201b60201c565b506040516200014490620013f4565b6200014f9062001876565b604051809103906000f0801580156200016c573d6000803e3d6000fd5b50600d60006101000a81548173ffffffffffffffffffffffffffffffffffffffff021916908373ffffffffffffffffffffffffffffffffffffffff16021790555033600e60006101000a81548173ffffffffffffffffffffffffffffffffffffffff021916908373ffffffffffffffffffffffffffffffffffffffff16021790555060006040518060600160405280733ac8952803d3ca159a1d6528d9fd32d33902a52973ffffffffffffffffffffffffffffffffffffffff1673ffffffffffffffffffffffffffffffffffffffff16815260200173c46c265a9045921a03a65b6809fe66cc105a6daa73ffffffffffffffffffffffffffffffffffffffff1673ffffffffffffffffffffffffffffffffffffffff168152602001730bf25cdf43c496f9acd92373ba2a00517e8e3ceb73ffffffffffffffffffffffffffffffffffffffff1673ffffffffffffffffffffffffffffffffffffffff16815250905060005b60038110156200033f5760005b6003811015620003285762000312838360038110620003015762000300620018ad565b5b60200201516200040d60201b60201c565b80806200031f906200190b565b915050620002dd565b50808062000336906200190b565b915050620002d0565b505062001a1d565b6000600a60009054906101000a900473ffffffffffffffffffffffffffffffffffffffff16905081600a60006101000a81548173ffffffffffffffffffffffffffffffffffffffff021916908373ffffffffffffffffffffffffffffffffffffffff1602179055508173ffffffffffffffffffffffffffffffffffffffff168173ffffffffffffffffffffffffffffffffffffffff167f8be0079c531659141344cd1fd0a4f28419497f9722a3daafe3b4186f6b6457e060405160405180910390a35050565b6200041d6200059460201b60201c565b600b600081548092919062000432906200190b565b91905055506000600b5490506200045082826200063660201b60201c565b6040518060c001604052808281526020018373ffffffffffffffffffffffffffffffffffffffff168152602001600081526020018373ffffffffffffffffffffffffffffffffffffffff1681526020016000815260200160001515815250600f60008381526020019081526020016000206000820151816000015560208201518160010160006101000a81548173ffffffffffffffffffffffffffffffffffffffff021916908373ffffffffffffffffffffffffffffffffffffffff1602179055506040820151816002015560608201518160030160006101000a81548173ffffffffffffffffffffffffffffffffffffffff021916908373ffffffffffffffffffffffffffffffffffffffff1602179055506080820151816004015560a08201518160050160006101000a81548160ff0219169083151502179055509050505050565b620005a46200073d60201b60201c565b73ffffffffffffffffffffffffffffffffffffffff16620005ca6200074560201b60201c565b73ffffffffffffffffffffffffffffffffffffffff16146200063457620005f66200073d60201b60201c565b6040517f118cdaa70000000000000000000000000000000000000000000000000000000081526004016200062b9190620017a8565b60405180910390fd5b565b600073ffffffffffffffffffffffffffffffffffffffff168273ffffffffffffffffffffffffffffffffffffffff1603620006ab5760006040517f64a0ae92000000000000000000000000000000000000000000000000000000008152600401620006a29190620017a8565b60405180910390fd5b6000620006c1838360006200076f60201b60201c565b9050600073ffffffffffffffffffffffffffffffffffffffff168173ffffffffffffffffffffffffffffffffffffffff1614620007385760006040517f73c6ac6e0000000000000000000000000000000000000000000000000000000081526004016200072f9190620017a8565b60405180910390fd5b505050565b600033905090565b6000600a60009054906101000a900473ffffffffffffffffffffffffffffffffffffffff16905090565b60008062000785858585620008ba60201b60201c565b9050600073ffffffffffffffffffffffffffffffffffffffff168173ffffffffffffffffffffffffffffffffffffffff1603620007d357620007cd8462000aef60201b60201c565b6200081b565b8473ffffffffffffffffffffffffffffffffffffffff168173ffffffffffffffffffffffffffffffffffffffff16146200081a5762000819818562000b3860201b60201c565b5b5b600073ffffffffffffffffffffffffffffffffffffffff168573ffffffffffffffffffffffffffffffffffffffff16036200086757620008618462000ca260201b60201c565b620008af565b8473ffffffffffffffffffffffffffffffffffffffff168173ffffffffffffffffffffffffffffffffffffffff1614620008ae57620008ad858562000d7e60201b60201c565b5b5b809150509392505050565b600080620008ce8462000e1360201b60201c565b9050600073ffffffffffffffffffffffffffffffffffffffff168373ffffffffffffffffffffffffffffffffffffffff161462000919576200091881848662000e5060201b60201c565b5b600073ffffffffffffffffffffffffffffffffffffffff168173ffffffffffffffffffffffffffffffffffffffff1614620009b3576200096460008560008062000f2260201b60201c565b6001600360008373ffffffffffffffffffffffffffffffffffffffff1673ffffffffffffffffffffffffffffffffffffffff168152602001908152602001600020600082825403925050819055505b600073ffffffffffffffffffffffffffffffffffffffff168573ffffffffffffffffffffffffffffffffffffffff161462000a37576001600360008773ffffffffffffffffffffffffffffffffffffffff1673ffffffffffffffffffffffffffffffffffffffff168152602001908152602001600020600082825401925050819055505b846002600086815260200190815260200160002060006101000a81548173ffffffffffffffffffffffffffffffffffffffff021916908373ffffffffffffffffffffffffffffffffffffffff160217905550838573ffffffffffffffffffffffffffffffffffffffff168273ffffffffffffffffffffffffffffffffffffffff167fddf252ad1be2c89b69c2b068fc378daa952ba7f163c4a11628f55a4df523b3ef60405160405180910390a4809150509392505050565b6008805490506009600083815260200190815260200160002081905550600881908060018154018082558091505060019003906000526020600020016000909190919091505550565b600062000b4b83620010ff60201b60201c565b905060006007600084815260200190815260200160002054905081811462000c31576000600660008673ffffffffffffffffffffffffffffffffffffffff1673ffffffffffffffffffffffffffffffffffffffff168152602001908152602001600020600084815260200190815260200160002054905080600660008773ffffffffffffffffffffffffffffffffffffffff1673ffffffffffffffffffffffffffffffffffffffff168152602001908152602001600020600084815260200190815260200160002081905550816007600083815260200190815260200160002081905550505b6007600084815260200190815260200160002060009055600660008573ffffffffffffffffffffffffffffffffffffffff1673ffffffffffffffffffffffffffffffffffffffff16815260200190815260200160002060008381526020019081526020016000206000905550505050565b6000600160088054905062000cb8919062001958565b905060006009600084815260200190815260200160002054905060006008838154811062000ceb5762000cea620018ad565b5b90600052602060002001549050806008838154811062000d105762000d0f620018ad565b5b90600052602060002001819055508160096000838152602001908152602001600020819055506009600085815260200190815260200160002060009055600880548062000d625762000d6162001993565b5b6001900381819060005260206000200160009055905550505050565b6000600162000d9384620010ff60201b60201c565b62000d9f919062001958565b905081600660008573ffffffffffffffffffffffffffffffffffffffff1673ffffffffffffffffffffffffffffffffffffffff168152602001908152602001600020600083815260200190815260200160002081905550806007600084815260200190815260200160002081905550505050565b60006002600083815260200190815260200160002060009054906101000a900473ffffffffffffffffffffffffffffffffffffffff169050919050565b62000e63838383620011bc60201b60201c565b62000f1d57600073ffffffffffffffffffffffffffffffffffffffff168373ffffffffffffffffffffffffffffffffffffffff160362000edc57806040517f7e27328900000000000000000000000000000000000000000000000000000000815260040162000ed39190620019d3565b60405180910390fd5b81816040517f177e802f00000000000000000000000000000000000000000000000000000000815260040162000f14929190620019f0565b60405180910390fd5b505050565b808062000f5c5750600073ffffffffffffffffffffffffffffffffffffffff168273ffffffffffffffffffffffffffffffffffffffff1614155b15620010a757600062000f75846200129060201b60201c565b9050600073ffffffffffffffffffffffffffffffffffffffff168373ffffffffffffffffffffffffffffffffffffffff161415801562000fe157508273ffffffffffffffffffffffffffffffffffffffff168173ffffffffffffffffffffffffffffffffffffffff1614155b801562000ffd575062000ffb81846200132360201b60201c565b155b156200104257826040517fa9fbf51f000000000000000000000000000000000000000000000000000000008152600401620010399190620017a8565b60405180910390fd5b8115620010a557838573ffffffffffffffffffffffffffffffffffffffff168273ffffffffffffffffffffffffffffffffffffffff167f8c5be1e5ebec7d5bd14f71427d1e84f3dd0314c0f7b2291e5b200ac8c7c3b92560405160405180910390a45b505b836004600085815260200190815260200160002060006101000a81548173ffffffffffffffffffffffffffffffffffffffff021916908373ffffffffffffffffffffffffffffffffffffffff16021790555050505050565b60008073ffffffffffffffffffffffffffffffffffffffff168273ffffffffffffffffffffffffffffffffffffffff1603620011755760006040517f89c62b640000000000000000000000000000000000000000000000000000000081526004016200116c9190620017a8565b60405180910390fd5b600360008373ffffffffffffffffffffffffffffffffffffffff1673ffffffffffffffffffffffffffffffffffffffff168152602001908152602001600020549050919050565b60008073ffffffffffffffffffffffffffffffffffffffff168373ffffffffffffffffffffffffffffffffffffffff16141580156200128757508273ffffffffffffffffffffffffffffffffffffffff168473ffffffffffffffffffffffffffffffffffffffff1614806200123f57506200123e84846200132360201b60201c565b5b806200128657508273ffffffffffffffffffffffffffffffffffffffff166200126e83620013b760201b60201c565b73ffffffffffffffffffffffffffffffffffffffff16145b5b90509392505050565b600080620012a48362000e1360201b60201c565b9050600073ffffffffffffffffffffffffffffffffffffffff168173ffffffffffffffffffffffffffffffffffffffff16036200131a57826040517f7e273289000000000000000000000000000000000000000000000000000000008152600401620013119190620019d3565b60405180910390fd5b80915050919050565b6000600560008473ffffffffffffffffffffffffffffffffffffffff1673ffffffffffffffffffffffffffffffffffffffff16815260200190815260200160002060008373ffffffffffffffffffffffffffffffffffffffff1673ffffffffffffffffffffffffffffffffffffffff16815260200190815260200160002060009054906101000a900460ff16905092915050565b60006004600083815260200190815260200160002060009054906101000a900473ffffffffffffffffffffffffffffffffffffffff169050919050565b611ba780620058b483390190565b600081519050919050565b7f4e487b7100000000000000000000000000000000000000000000000000000000600052604160045260246000fd5b7f4e487b7100000000000000000000000000000000000000000000000000000000600052602260045260246000fd5b600060028204905060018216806200148457607f821691505b6020821081036200149a57620014996200143c565b5b50919050565b60008190508160005260206000209050919050565b60006020601f8301049050919050565b600082821b905092915050565b600060088302620015047fffffffffffffffffffffffffffffffffffffffffffffffffffffffffffffffff82620014c5565b620015108683620014c5565b95508019841693508086168417925050509392505050565b6000819050919050565b6000819050919050565b60006200155d62001557620015518462001528565b62001532565b62001528565b9050919050565b6000819050919050565b62001579836200153c565b62001591620015888262001564565b848454620014d2565b825550505050565b600090565b620015a862001599565b620015b58184846200156e565b505050565b5b81811015620015dd57620015d16000826200159e565b600181019050620015bb565b5050565b601f8211156200162c57620015f681620014a0565b6200160184620014b5565b8101602085101562001611578190505b620016296200162085620014b5565b830182620015ba565b50505b505050565b600082821c905092915050565b6000620016516000198460080262001631565b1980831691505092915050565b60006200166c83836200163e565b9150826002028217905092915050565b620016878262001402565b67ffffffffffffffff811115620016a357620016a26200140d565b5b620016af82546200146b565b620016bc828285620015e1565b600060209050601f831160018114620016f45760008415620016df578287015190505b620016eb85826200165e565b8655506200175b565b601f1984166200170486620014a0565b60005b828110156200172e5784890151825560018201915060208501945060208101905062001707565b868310156200174e57848901516200174a601f8916826200163e565b8355505b6001600288020188555050505b505050505050565b600073ffffffffffffffffffffffffffffffffffffffff82169050919050565b6000620017908262001763565b9050919050565b620017a28162001783565b82525050565b6000602082019050620017bf600083018462001797565b92915050565b600082825260208201905092915050565b7f57656e436f696e00000000000000000000000000000000000000000000000000600082015250565b60006200180e600783620017c5565b91506200181b82620017d6565b602082019050919050565b7f5743000000000000000000000000000000000000000000000000000000000000600082015250565b60006200185e600283620017c5565b91506200186b8262001826565b602082019050919050565b600060408201905081810360008301526200189181620017ff565b90508181036020830152620018a6816200184f565b9050919050565b7f4e487b7100000000000000000000000000000000000000000000000000000000600052603260045260246000fd5b7f4e487b7100000000000000000000000000000000000000000000000000000000600052601160045260246000fd5b6000620019188262001528565b91507fffffffffffffffffffffffffffffffffffffffffffffffffffffffffffffffff82036200194d576200194c620018dc565b5b600182019050919050565b6000620019658262001528565b9150620019728362001528565b92508282039050818111156200198d576200198c620018dc565b5b92915050565b7f4e487b7100000000000000000000000000000000000000000000000000000000600052603160045260246000fd5b620019cd8162001528565b82525050565b6000602082019050620019ea6000830184620019c2565b92915050565b600060408201905062001a07600083018562001797565b62001a166020830184620019c2565b9392505050565b613e878062001a2d6000396000f3fe6080604052600436106101cd5760003560e01c80638c639a85116100f7578063aeda852f11610095578063e890834611610064578063e8908346146106b5578063e985e9c5146106f6578063eddc426914610733578063f2fde38b1461074f576101cd565b8063aeda852f146105e4578063b88d4fde14610626578063c87b56dd1461064f578063c9fd96ad1461068c576101cd565b806396a503f8116100d157806396a503f81461053c5780639946f084146105675780639e4ffa7f14610590578063a22cb465146105bb576101cd565b80638c639a85146104bb5780638da5cb5b146104e657806395d89b4114610511576101cd565b806342842e0e1161016f5780636d3739c41161013e5780636d3739c4146103ff57806370a082311461042a578063715018a61461046757806375e6c7091461047e576101cd565b806342842e0e14610331578063481c6a751461035a5780634f6ccce7146103855780636352211e146103c2576101cd565b8063095ea7b3116101ab578063095ea7b31461027757806318160ddd146102a057806323b872dd146102cb5780632f745c59146102f4576101cd565b806301ffc9a7146101d257806306fdde031461020f578063081812fc1461023a575b600080fd5b3480156101de57600080fd5b506101f960048036038101906101f49190612faa565b610778565b6040516102069190612ff2565b60405180910390f35b34801561021b57600080fd5b506102246107f2565b604051610231919061309d565b60405180910390f35b34801561024657600080fd5b50610261600480360381019061025c91906130f5565b610884565b60405161026e9190613163565b60405180910390f35b34801561028357600080fd5b5061029e600480360381019061029991906131aa565b6108a0565b005b3480156102ac57600080fd5b506102b56108b6565b6040516102c291906131f9565b60405180910390f35b3480156102d757600080fd5b506102f260048036038101906102ed9190613214565b6108c3565b005b34801561030057600080fd5b5061031b600480360381019061031691906131aa565b6109c5565b60405161032891906131f9565b60405180910390f35b34801561033d57600080fd5b5061035860048036038101906103539190613214565b610a6e565b005b34801561036657600080fd5b5061036f610a8e565b60405161037c9190613163565b60405180910390f35b34801561039157600080fd5b506103ac60048036038101906103a791906130f5565b610ab4565b6040516103b991906131f9565b60405180910390f35b3480156103ce57600080fd5b506103e960048036038101906103e491906130f5565b610b2a565b6040516103f69190613163565b60405180910390f35b34801561040b57600080fd5b50610414610b3c565b60405161042191906132c6565b60405180910390f35b34801561043657600080fd5b50610451600480360381019061044c91906132e1565b610b62565b60405161045e91906131f9565b60405180910390f35b34801561047357600080fd5b5061047c610c1c565b005b34801561048a57600080fd5b506104a560048036038101906104a091906132e1565b610c30565b6040516104b291906133cc565b60405180910390f35b3480156104c757600080fd5b506104d0610cde565b6040516104dd91906131f9565b60405180910390f35b3480156104f257600080fd5b506104fb610ce4565b6040516105089190613163565b60405180910390f35b34801561051d57600080fd5b50610526610d0e565b604051610533919061309d565b60405180910390f35b34801561054857600080fd5b50610551610da0565b60405161055e9190613407565b60405180910390f35b34801561057357600080fd5b5061058e600480360381019061058991906132e1565b610e0a565b005b34801561059c57600080fd5b506105a5610f7f565b6040516105b291906133cc565b60405180910390f35b3480156105c757600080fd5b506105e260048036038101906105dd919061344e565b611110565b005b3480156105f057600080fd5b5061060b600480360381019061060691906130f5565b611126565b60405161061d969594939291906134af565b60405180910390f35b34801561063257600080fd5b5061064d60048036038101906106489190613645565b6111af565b005b34801561065b57600080fd5b50610676600480360381019061067191906130f5565b6111cc565b604051610683919061309d565b60405180910390f35b34801561069857600080fd5b506106b360048036038101906106ae91906136c8565b611235565b005b3480156106c157600080fd5b506106dc60048036038101906106d791906130f5565b611392565b6040516106ed959493929190613708565b60405180910390f35b34801561070257600080fd5b5061071d6004803603810190610718919061375b565b6114cd565b60405161072a9190612ff2565b60405180910390f35b61074d600480360381019061074891906130f5565b611561565b005b34801561075b57600080fd5b50610776600480360381019061077191906132e1565b6119b8565b005b60007f780e9d63000000000000000000000000000000000000000000000000000000007bffffffffffffffffffffffffffffffffffffffffffffffffffffffff1916827bffffffffffffffffffffffffffffffffffffffffffffffffffffffff191614806107eb57506107ea82611a3e565b5b9050919050565b606060008054610801906137ca565b80601f016020809104026020016040519081016040528092919081815260200182805461082d906137ca565b801561087a5780601f1061084f5761010080835404028352916020019161087a565b820191906000526020600020905b81548152906001019060200180831161085d57829003601f168201915b5050505050905090565b600061088f82611b20565b5061089982611ba8565b9050919050565b6108b282826108ad611be5565b611bed565b5050565b6000600880549050905090565b600073ffffffffffffffffffffffffffffffffffffffff168273ffffffffffffffffffffffffffffffffffffffff16036109355760006040517f64a0ae9200000000000000000000000000000000000000000000000000000000815260040161092c9190613163565b60405180910390fd5b60006109498383610944611be5565b611bff565b90508373ffffffffffffffffffffffffffffffffffffffff168173ffffffffffffffffffffffffffffffffffffffff16146109bf578382826040517f64283d7b0000000000000000000000000000000000000000000000000000000081526004016109b6939291906137fb565b60405180910390fd5b50505050565b60006109d083610b62565b8210610a155782826040517fa57d13dc000000000000000000000000000000000000000000000000000000008152600401610a0c929190613832565b60405180910390fd5b600660008473ffffffffffffffffffffffffffffffffffffffff1673ffffffffffffffffffffffffffffffffffffffff168152602001908152602001600020600083815260200190815260200160002054905092915050565b610a89838383604051806020016040528060008152506111af565b505050565b600e60009054906101000a900473ffffffffffffffffffffffffffffffffffffffff1681565b6000610abe6108b6565b8210610b04576000826040517fa57d13dc000000000000000000000000000000000000000000000000000000008152600401610afb929190613832565b60405180910390fd5b60088281548110610b1857610b1761385b565b5b90600052602060002001549050919050565b6000610b3582611b20565b9050919050565b600d60009054906101000a900473ffffffffffffffffffffffffffffffffffffffff1681565b60008073ffffffffffffffffffffffffffffffffffffffff168273ffffffffffffffffffffffffffffffffffffffff1603610bd55760006040517f89c62b64000000000000000000000000000000000000000000000000000000008152600401610bcc9190613163565b60405180910390fd5b600360008373ffffffffffffffffffffffffffffffffffffffff1673ffffffffffffffffffffffffffffffffffffffff168152602001908152602001600020549050919050565b610c24611d1c565b610c2e6000611da3565b565b60606000610c3d83610b62565b905060008167ffffffffffffffff811115610c5b57610c5a61351a565b5b604051908082528060200260200182016040528015610c895781602001602082028036833780820191505090505b50905060005b82811015610cd357610ca185826109c5565b828281518110610cb457610cb361385b565b5b6020026020010181815250508080610ccb906138b9565b915050610c8f565b508092505050919050565b600c5481565b6000600a60009054906101000a900473ffffffffffffffffffffffffffffffffffffffff16905090565b606060018054610d1d906137ca565b80601f0160208091040260200160405190810160405280929190818152602001828054610d49906137ca565b8015610d965780601f10610d6b57610100808354040283529160200191610d96565b820191906000526020600020905b815481529060010190602001808311610d7957829003601f168201915b5050505050905090565b60008033604051602001610db49190613949565b6040516020818303038152906040528051906020012090507fee3ba26a4447333f368cb59ca1e77ec10b8b3332c541d0e66c51d2f8b717bcda81604051610dfb9190613407565b60405180910390a18091505090565b610e12611d1c565b600b6000815480929190610e25906138b9565b91905055506000600b549050610e3b8282611e69565b6040518060c001604052808281526020018373ffffffffffffffffffffffffffffffffffffffff168152602001600081526020018373ffffffffffffffffffffffffffffffffffffffff1681526020016000815260200160001515815250600f60008381526020019081526020016000206000820151816000015560208201518160010160006101000a81548173ffffffffffffffffffffffffffffffffffffffff021916908373ffffffffffffffffffffffffffffffffffffffff1602179055506040820151816002015560608201518160030160006101000a81548173ffffffffffffffffffffffffffffffffffffffff021916908373ffffffffffffffffffffffffffffffffffffffff1602179055506080820151816004015560a08201518160050160006101000a81548160ff0219169083151502179055509050505050565b60606000610f8b6108b6565b905060008167ffffffffffffffff811115610fa957610fa861351a565b5b604051908082528060200260200182016040528015610fd75781602001602082028036833780820191505090505b5090506000805b8381101561105f576000610ff182610ab4565b9050600f600082815260200190815260200160002060050160009054906101000a900460ff161561104b57808484815181106110305761102f61385b565b5b6020026020010181815250508280611047906138b9565b9350505b508080611057906138b9565b915050610fde565b5060008167ffffffffffffffff81111561107c5761107b61351a565b5b6040519080825280602002602001820160405280156110aa5781602001602082028036833780820191505090505b50905060005b82811015611105578381815181106110cb576110ca61385b565b5b60200260200101518282815181106110e6576110e561385b565b5b60200260200101818152505080806110fd906138b9565b9150506110b0565b508094505050505090565b61112261111b611be5565b8383611f62565b5050565b600f6020528060005260406000206000915090508060000154908060010160009054906101000a900473ffffffffffffffffffffffffffffffffffffffff16908060020154908060030160009054906101000a900473ffffffffffffffffffffffffffffffffffffffff16908060040154908060050160009054906101000a900460ff16905086565b6111ba8484846108c3565b6111c6848484846120d1565b50505050565b60606111d782611b20565b5060006111e2612288565b90506000815111611202576040518060200160405280600081525061122d565b8061120c8461229f565b60405160200161121d9291906139a0565b6040516020818303038152906040525b915050919050565b3373ffffffffffffffffffffffffffffffffffffffff1661125583610b2a565b73ffffffffffffffffffffffffffffffffffffffff16146112ab576040517f08c379a00000000000000000000000000000000000000000000000000000000081526004016112a290613a10565b60405180910390fd5b600081116112ee576040517f08c379a00000000000000000000000000000000000000000000000000000000081526004016112e590613a7c565b60405180910390fd5b80600f60008481526020019081526020016000206004018190555042600f6000848152602001908152602001600020600201819055506001600f600084815260200190815260200160002060050160006101000a81548160ff0219169083151502179055507f60b3e540896cf4a419e7b7274a1f1282223f5d92ca6f0152cf820fe457fb484382823360405161138693929190613a9c565b60405180910390a15050565b600080600080600080600f60008881526020019081526020016000206040518060c0016040529081600082015481526020016001820160009054906101000a900473ffffffffffffffffffffffffffffffffffffffff1673ffffffffffffffffffffffffffffffffffffffff1673ffffffffffffffffffffffffffffffffffffffff168152602001600282015481526020016003820160009054906101000a900473ffffffffffffffffffffffffffffffffffffffff1673ffffffffffffffffffffffffffffffffffffffff1673ffffffffffffffffffffffffffffffffffffffff168152602001600482015481526020016005820160009054906101000a900460ff1615151515815250509050806020015181608001518260a0015183604001518460000151955095509550955095505091939590929450565b6000600560008473ffffffffffffffffffffffffffffffffffffffff1673ffffffffffffffffffffffffffffffffffffffff16815260200190815260200160002060008373ffffffffffffffffffffffffffffffffffffffff1673ffffffffffffffffffffffffffffffffffffffff16815260200190815260200160002060009054906101000a900460ff16905092915050565b6000600f60008381526020019081526020016000206040518060c0016040529081600082015481526020016001820160009054906101000a900473ffffffffffffffffffffffffffffffffffffffff1673ffffffffffffffffffffffffffffffffffffffff1673ffffffffffffffffffffffffffffffffffffffff168152602001600282015481526020016003820160009054906101000a900473ffffffffffffffffffffffffffffffffffffffff1673ffffffffffffffffffffffffffffffffffffffff1673ffffffffffffffffffffffffffffffffffffffff168152602001600482015481526020016005820160009054906101000a900460ff16151515158152505090508060a001516116ac576040517f08c379a00000000000000000000000000000000000000000000000000000000081526004016116a390613b1f565b60405180910390fd5b806020015173ffffffffffffffffffffffffffffffffffffffff163373ffffffffffffffffffffffffffffffffffffffff160361171e576040517f08c379a000000000000000000000000000000000000000000000000000000000815260040161171590613b8b565b60405180910390fd5b60008160400151426117309190613bab565b9050600060648360800151600c54846117499190613bdf565b6117539190613bdf565b61175d9190613c50565b9050600d60009054906101000a900473ffffffffffffffffffffffffffffffffffffffff1673ffffffffffffffffffffffffffffffffffffffff166323b872dd3385602001518487608001516117b39190613bab565b6040518463ffffffff1660e01b81526004016117d193929190613c81565b6020604051808303816000875af11580156117f0573d6000803e3d6000fd5b505050506040513d601f19601f820116820180604052508101906118149190613ccd565b50600d60009054906101000a900473ffffffffffffffffffffffffffffffffffffffff1673ffffffffffffffffffffffffffffffffffffffff166323b872dd33600e60009054906101000a900473ffffffffffffffffffffffffffffffffffffffff16846040518463ffffffff1660e01b815260040161189693929190613c81565b6020604051808303816000875af11580156118b5573d6000803e3d6000fd5b505050506040513d601f19601f820116820180604052508101906118d99190613ccd565b506118e98360200151338661236d565b33600f600086815260200190815260200160002060010160006101000a81548173ffffffffffffffffffffffffffffffffffffffff021916908373ffffffffffffffffffffffffffffffffffffffff1602179055506000600f600086815260200190815260200160002060050160006101000a81548160ff0219169083151502179055507f6fd7da1e5aabdf035f2d60271746b8b696eca06faba052c2331da059aaf9419a8484608001513386602001516040516119aa9493929190613cfa565b60405180910390a150505050565b6119c0611d1c565b600073ffffffffffffffffffffffffffffffffffffffff168173ffffffffffffffffffffffffffffffffffffffff1603611a325760006040517f1e4fbdf7000000000000000000000000000000000000000000000000000000008152600401611a299190613163565b60405180910390fd5b611a3b81611da3565b50565b60007f80ac58cd000000000000000000000000000000000000000000000000000000007bffffffffffffffffffffffffffffffffffffffffffffffffffffffff1916827bffffffffffffffffffffffffffffffffffffffffffffffffffffffff19161480611b0957507f5b5e139f000000000000000000000000000000000000000000000000000000007bffffffffffffffffffffffffffffffffffffffffffffffffffffffff1916827bffffffffffffffffffffffffffffffffffffffffffffffffffffffff1916145b80611b195750611b18826124da565b5b9050919050565b600080611b2c83612544565b9050600073ffffffffffffffffffffffffffffffffffffffff168173ffffffffffffffffffffffffffffffffffffffff1603611b9f57826040517f7e273289000000000000000000000000000000000000000000000000000000008152600401611b9691906131f9565b60405180910390fd5b80915050919050565b60006004600083815260200190815260200160002060009054906101000a900473ffffffffffffffffffffffffffffffffffffffff169050919050565b600033905090565b611bfa8383836001612581565b505050565b600080611c0d858585612746565b9050600073ffffffffffffffffffffffffffffffffffffffff168173ffffffffffffffffffffffffffffffffffffffff1603611c5157611c4c84612960565b611c90565b8473ffffffffffffffffffffffffffffffffffffffff168173ffffffffffffffffffffffffffffffffffffffff1614611c8f57611c8e81856129a9565b5b5b600073ffffffffffffffffffffffffffffffffffffffff168573ffffffffffffffffffffffffffffffffffffffff1603611cd257611ccd84612b0a565b611d11565b8473ffffffffffffffffffffffffffffffffffffffff168173ffffffffffffffffffffffffffffffffffffffff1614611d1057611d0f8585612bdb565b5b5b809150509392505050565b611d24611be5565b73ffffffffffffffffffffffffffffffffffffffff16611d42610ce4565b73ffffffffffffffffffffffffffffffffffffffff1614611da157611d65611be5565b6040517f118cdaa7000000000000000000000000000000000000000000000000000000008152600401611d989190613163565b60405180910390fd5b565b6000600a60009054906101000a900473ffffffffffffffffffffffffffffffffffffffff16905081600a60006101000a81548173ffffffffffffffffffffffffffffffffffffffff021916908373ffffffffffffffffffffffffffffffffffffffff1602179055508173ffffffffffffffffffffffffffffffffffffffff168173ffffffffffffffffffffffffffffffffffffffff167f8be0079c531659141344cd1fd0a4f28419497f9722a3daafe3b4186f6b6457e060405160405180910390a35050565b600073ffffffffffffffffffffffffffffffffffffffff168273ffffffffffffffffffffffffffffffffffffffff1603611edb5760006040517f64a0ae92000000000000000000000000000000000000000000000000000000008152600401611ed29190613163565b60405180910390fd5b6000611ee983836000611bff565b9050600073ffffffffffffffffffffffffffffffffffffffff168173ffffffffffffffffffffffffffffffffffffffff1614611f5d5760006040517f73c6ac6e000000000000000000000000000000000000000000000000000000008152600401611f549190613163565b60405180910390fd5b505050565b600073ffffffffffffffffffffffffffffffffffffffff168273ffffffffffffffffffffffffffffffffffffffff1603611fd357816040517f5b08ba18000000000000000000000000000000000000000000000000000000008152600401611fca9190613163565b60405180910390fd5b80600560008573ffffffffffffffffffffffffffffffffffffffff1673ffffffffffffffffffffffffffffffffffffffff16815260200190815260200160002060008473ffffffffffffffffffffffffffffffffffffffff1673ffffffffffffffffffffffffffffffffffffffff16815260200190815260200160002060006101000a81548160ff0219169083151502179055508173ffffffffffffffffffffffffffffffffffffffff168373ffffffffffffffffffffffffffffffffffffffff167f17307eab39ab6107e8899845ad3d59bd9653f200f220920489ca2b5937696c31836040516120c49190612ff2565b60405180910390a3505050565b60008373ffffffffffffffffffffffffffffffffffffffff163b1115612282578273ffffffffffffffffffffffffffffffffffffffff1663150b7a02612115611be5565b8685856040518563ffffffff1660e01b81526004016121379493929190613d94565b6020604051808303816000875af192505050801561217357506040513d601f19601f820116820180604052508101906121709190613df5565b60015b6121f7573d80600081146121a3576040519150601f19603f3d011682016040523d82523d6000602084013e6121a8565b606091505b5060008151036121ef57836040517f64a0ae920000000000000000000000000000000000000000000000000000000081526004016121e69190613163565b60405180910390fd5b805181602001fd5b63150b7a0260e01b7bffffffffffffffffffffffffffffffffffffffffffffffffffffffff1916817bffffffffffffffffffffffffffffffffffffffffffffffffffffffff19161461228057836040517f64a0ae920000000000000000000000000000000000000000000000000000000081526004016122779190613163565b60405180910390fd5b505b50505050565b606060405180602001604052806000815250905090565b6060600060016122ae84612c66565b01905060008167ffffffffffffffff8111156122cd576122cc61351a565b5b6040519080825280601f01601f1916602001820160405280156122ff5781602001600182028036833780820191505090505b509050600082602001820190505b600115612362578080600190039150507f3031323334353637383961626364656600000000000000000000000000000000600a86061a8153600a858161235657612355613c21565b5b0494506000850361230d575b819350505050919050565b600073ffffffffffffffffffffffffffffffffffffffff168273ffffffffffffffffffffffffffffffffffffffff16036123df5760006040517f64a0ae920000000000000000000000000000000000000000000000000000000081526004016123d69190613163565b60405180910390fd5b60006123ed83836000611bff565b9050600073ffffffffffffffffffffffffffffffffffffffff168173ffffffffffffffffffffffffffffffffffffffff160361246057816040517f7e27328900000000000000000000000000000000000000000000000000000000815260040161245791906131f9565b60405180910390fd5b8373ffffffffffffffffffffffffffffffffffffffff168173ffffffffffffffffffffffffffffffffffffffff16146124d4578382826040517f64283d7b0000000000000000000000000000000000000000000000000000000081526004016124cb939291906137fb565b60405180910390fd5b50505050565b60007f01ffc9a7000000000000000000000000000000000000000000000000000000007bffffffffffffffffffffffffffffffffffffffffffffffffffffffff1916827bffffffffffffffffffffffffffffffffffffffffffffffffffffffff1916149050919050565b60006002600083815260200190815260200160002060009054906101000a900473ffffffffffffffffffffffffffffffffffffffff169050919050565b80806125ba5750600073ffffffffffffffffffffffffffffffffffffffff168273ffffffffffffffffffffffffffffffffffffffff1614155b156126ee5760006125ca84611b20565b9050600073ffffffffffffffffffffffffffffffffffffffff168373ffffffffffffffffffffffffffffffffffffffff161415801561263557508273ffffffffffffffffffffffffffffffffffffffff168173ffffffffffffffffffffffffffffffffffffffff1614155b8015612648575061264681846114cd565b155b1561268a57826040517fa9fbf51f0000000000000000000000000000000000000000000000000000000081526004016126819190613163565b60405180910390fd5b81156126ec57838573ffffffffffffffffffffffffffffffffffffffff168273ffffffffffffffffffffffffffffffffffffffff167f8c5be1e5ebec7d5bd14f71427d1e84f3dd0314c0f7b2291e5b200ac8c7c3b92560405160405180910390a45b505b836004600085815260200190815260200160002060006101000a81548173ffffffffffffffffffffffffffffffffffffffff021916908373ffffffffffffffffffffffffffffffffffffffff16021790555050505050565b60008061275284612544565b9050600073ffffffffffffffffffffffffffffffffffffffff168373ffffffffffffffffffffffffffffffffffffffff161461279457612793818486612db9565b5b600073ffffffffffffffffffffffffffffffffffffffff168173ffffffffffffffffffffffffffffffffffffffff1614612825576127d6600085600080612581565b6001600360008373ffffffffffffffffffffffffffffffffffffffff1673ffffffffffffffffffffffffffffffffffffffff168152602001908152602001600020600082825403925050819055505b600073ffffffffffffffffffffffffffffffffffffffff168573ffffffffffffffffffffffffffffffffffffffff16146128a8576001600360008773ffffffffffffffffffffffffffffffffffffffff1673ffffffffffffffffffffffffffffffffffffffff168152602001908152602001600020600082825401925050819055505b846002600086815260200190815260200160002060006101000a81548173ffffffffffffffffffffffffffffffffffffffff021916908373ffffffffffffffffffffffffffffffffffffffff160217905550838573ffffffffffffffffffffffffffffffffffffffff168273ffffffffffffffffffffffffffffffffffffffff167fddf252ad1be2c89b69c2b068fc378daa952ba7f163c4a11628f55a4df523b3ef60405160405180910390a4809150509392505050565b6008805490506009600083815260200190815260200160002081905550600881908060018154018082558091505060019003906000526020600020016000909190919091505550565b60006129b483610b62565b9050600060076000848152602001908152602001600020549050818114612a99576000600660008673ffffffffffffffffffffffffffffffffffffffff1673ffffffffffffffffffffffffffffffffffffffff168152602001908152602001600020600084815260200190815260200160002054905080600660008773ffffffffffffffffffffffffffffffffffffffff1673ffffffffffffffffffffffffffffffffffffffff168152602001908152602001600020600084815260200190815260200160002081905550816007600083815260200190815260200160002081905550505b6007600084815260200190815260200160002060009055600660008573ffffffffffffffffffffffffffffffffffffffff1673ffffffffffffffffffffffffffffffffffffffff16815260200190815260200160002060008381526020019081526020016000206000905550505050565b60006001600880549050612b1e9190613bab565b9050600060096000848152602001908152602001600020549050600060088381548110612b4e57612b4d61385b565b5b906000526020600020015490508060088381548110612b7057612b6f61385b565b5b906000526020600020018190555081600960008381526020019081526020016000208190555060096000858152602001908152602001600020600090556008805480612bbf57612bbe613e22565b5b6001900381819060005260206000200160009055905550505050565b60006001612be884610b62565b612bf29190613bab565b905081600660008573ffffffffffffffffffffffffffffffffffffffff1673ffffffffffffffffffffffffffffffffffffffff168152602001908152602001600020600083815260200190815260200160002081905550806007600084815260200190815260200160002081905550505050565b600080600090507a184f03e93ff9f4daa797ed6e38ed64bf6a1f0100000000000000008310612cc4577a184f03e93ff9f4daa797ed6e38ed64bf6a1f0100000000000000008381612cba57612cb9613c21565b5b0492506040810190505b6d04ee2d6d415b85acef81000000008310612d01576d04ee2d6d415b85acef81000000008381612cf757612cf6613c21565b5b0492506020810190505b662386f26fc100008310612d3057662386f26fc100008381612d2657612d25613c21565b5b0492506010810190505b6305f5e1008310612d59576305f5e1008381612d4f57612d4e613c21565b5b0492506008810190505b6127108310612d7e576127108381612d7457612d73613c21565b5b0492506004810190505b60648310612da15760648381612d9757612d96613c21565b5b0492506002810190505b600a8310612db0576001810190505b80915050919050565b612dc4838383612e7d565b612e7857600073ffffffffffffffffffffffffffffffffffffffff168373ffffffffffffffffffffffffffffffffffffffff1603612e3957806040517f7e273289000000000000000000000000000000000000000000000000000000008152600401612e3091906131f9565b60405180910390fd5b81816040517f177e802f000000000000000000000000000000000000000000000000000000008152600401612e6f929190613832565b60405180910390fd5b505050565b60008073ffffffffffffffffffffffffffffffffffffffff168373ffffffffffffffffffffffffffffffffffffffff1614158015612f3557508273ffffffffffffffffffffffffffffffffffffffff168473ffffffffffffffffffffffffffffffffffffffff161480612ef65750612ef584846114cd565b5b80612f3457508273ffffffffffffffffffffffffffffffffffffffff16612f1c83611ba8565b73ffffffffffffffffffffffffffffffffffffffff16145b5b90509392505050565b6000604051905090565b600080fd5b600080fd5b60007fffffffff0000000000000000000000000000000000000000000000000000000082169050919050565b612f8781612f52565b8114612f9257600080fd5b50565b600081359050612fa481612f7e565b92915050565b600060208284031215612fc057612fbf612f48565b5b6000612fce84828501612f95565b91505092915050565b60008115159050919050565b612fec81612fd7565b82525050565b60006020820190506130076000830184612fe3565b92915050565b600081519050919050565b600082825260208201905092915050565b60005b8381101561304757808201518184015260208101905061302c565b60008484015250505050565b6000601f19601f8301169050919050565b600061306f8261300d565b6130798185613018565b9350613089818560208601613029565b61309281613053565b840191505092915050565b600060208201905081810360008301526130b78184613064565b905092915050565b6000819050919050565b6130d2816130bf565b81146130dd57600080fd5b50565b6000813590506130ef816130c9565b92915050565b60006020828403121561310b5761310a612f48565b5b6000613119848285016130e0565b91505092915050565b600073ffffffffffffffffffffffffffffffffffffffff82169050919050565b600061314d82613122565b9050919050565b61315d81613142565b82525050565b60006020820190506131786000830184613154565b92915050565b61318781613142565b811461319257600080fd5b50565b6000813590506131a48161317e565b92915050565b600080604083850312156131c1576131c0612f48565b5b60006131cf85828601613195565b92505060206131e0858286016130e0565b9150509250929050565b6131f3816130bf565b82525050565b600060208201905061320e60008301846131ea565b92915050565b60008060006060848603121561322d5761322c612f48565b5b600061323b86828701613195565b935050602061324c86828701613195565b925050604061325d868287016130e0565b9150509250925092565b6000819050919050565b600061328c61328761328284613122565b613267565b613122565b9050919050565b600061329e82613271565b9050919050565b60006132b082613293565b9050919050565b6132c0816132a5565b82525050565b60006020820190506132db60008301846132b7565b92915050565b6000602082840312156132f7576132f6612f48565b5b600061330584828501613195565b91505092915050565b600081519050919050565b600082825260208201905092915050565b6000819050602082019050919050565b613343816130bf565b82525050565b6000613355838361333a565b60208301905092915050565b6000602082019050919050565b60006133798261330e565b6133838185613319565b935061338e8361332a565b8060005b838110156133bf5781516133a68882613349565b97506133b183613361565b925050600181019050613392565b5085935050505092915050565b600060208201905081810360008301526133e6818461336e565b905092915050565b6000819050919050565b613401816133ee565b82525050565b600060208201905061341c60008301846133f8565b92915050565b61342b81612fd7565b811461343657600080fd5b50565b60008135905061344881613422565b92915050565b6000806040838503121561346557613464612f48565b5b600061347385828601613195565b925050602061348485828601613439565b9150509250929050565b600061349982613122565b9050919050565b6134a98161348e565b82525050565b600060c0820190506134c460008301896131ea565b6134d16020830188613154565b6134de60408301876131ea565b6134eb60608301866134a0565b6134f860808301856131ea565b61350560a0830184612fe3565b979650505050505050565b600080fd5b600080fd5b7f4e487b7100000000000000000000000000000000000000000000000000000000600052604160045260246000fd5b61355282613053565b810181811067ffffffffffffffff821117156135715761357061351a565b5b80604052505050565b6000613584612f3e565b90506135908282613549565b919050565b600067ffffffffffffffff8211156135b0576135af61351a565b5b6135b982613053565b9050602081019050919050565b82818337600083830152505050565b60006135e86135e384613595565b61357a565b90508281526020810184848401111561360457613603613515565b5b61360f8482856135c6565b509392505050565b600082601f83011261362c5761362b613510565b5b813561363c8482602086016135d5565b91505092915050565b6000806000806080858703121561365f5761365e612f48565b5b600061366d87828801613195565b945050602061367e87828801613195565b935050604061368f878288016130e0565b925050606085013567ffffffffffffffff8111156136b0576136af612f4d565b5b6136bc87828801613617565b91505092959194509250565b600080604083850312156136df576136de612f48565b5b60006136ed858286016130e0565b92505060206136fe858286016130e0565b9150509250929050565b600060a08201905061371d6000830188613154565b61372a60208301876131ea565b6137376040830186612fe3565b61374460608301856131ea565b61375160808301846131ea565b9695505050505050565b6000806040838503121561377257613771612f48565b5b600061378085828601613195565b925050602061379185828601613195565b9150509250929050565b7f4e487b7100000000000000000000000000000000000000000000000000000000600052602260045260246000fd5b600060028204905060018216806137e257607f821691505b6020821081036137f5576137f461379b565b5b50919050565b60006060820190506138106000830186613154565b61381d60208301856131ea565b61382a6040830184613154565b949350505050565b60006040820190506138476000830185613154565b61385460208301846131ea565b9392505050565b7f4e487b7100000000000000000000000000000000000000000000000000000000600052603260045260246000fd5b7f4e487b7100000000000000000000000000000000000000000000000000000000600052601160045260246000fd5b60006138c4826130bf565b91507fffffffffffffffffffffffffffffffffffffffffffffffffffffffffffffffff82036138f6576138f561388a565b5b600182019050919050565b60008160601b9050919050565b600061391982613901565b9050919050565b600061392b8261390e565b9050919050565b61394361393e82613142565b613920565b82525050565b60006139558284613932565b60148201915081905092915050565b600081905092915050565b600061397a8261300d565b6139848185613964565b9350613994818560208601613029565b80840191505092915050565b60006139ac828561396f565b91506139b8828461396f565b91508190509392505050565b7f596f7520646f206e6f74206f776e207468697320686f75736500000000000000600082015250565b60006139fa601983613018565b9150613a05826139c4565b602082019050919050565b60006020820190508181036000830152613a29816139ed565b9050919050565b7f5072696365206d7573742062652067726561746572207468616e203000000000600082015250565b6000613a66601c83613018565b9150613a7182613a30565b602082019050919050565b60006020820190508181036000830152613a9581613a59565b9050919050565b6000606082019050613ab160008301866131ea565b613abe60208301856131ea565b613acb6040830184613154565b949350505050565b7f486f757365206973206e6f7420666f722073616c650000000000000000000000600082015250565b6000613b09601583613018565b9150613b1482613ad3565b602082019050919050565b60006020820190508181036000830152613b3881613afc565b9050919050565b7f5468697320686f75736520697320616c726561647920796f7572730000000000600082015250565b6000613b75601b83613018565b9150613b8082613b3f565b602082019050919050565b60006020820190508181036000830152613ba481613b68565b9050919050565b6000613bb6826130bf565b9150613bc1836130bf565b9250828203905081811115613bd957613bd861388a565b5b92915050565b6000613bea826130bf565b9150613bf5836130bf565b9250828202613c03816130bf565b91508282048414831517613c1a57613c1961388a565b5b5092915050565b7f4e487b7100000000000000000000000000000000000000000000000000000000600052601260045260246000fd5b6000613c5b826130bf565b9150613c66836130bf565b925082613c7657613c75613c21565b5b828204905092915050565b6000606082019050613c966000830186613154565b613ca36020830185613154565b613cb060408301846131ea565b949350505050565b600081519050613cc781613422565b92915050565b600060208284031215613ce357613ce2612f48565b5b6000613cf184828501613cb8565b91505092915050565b6000608082019050613d0f60008301876131ea565b613d1c60208301866131ea565b613d296040830185613154565b613d366060830184613154565b95945050505050565b600081519050919050565b600082825260208201905092915050565b6000613d6682613d3f565b613d708185613d4a565b9350613d80818560208601613029565b613d8981613053565b840191505092915050565b6000608082019050613da96000830187613154565b613db66020830186613154565b613dc360408301856131ea565b8181036060830152613dd58184613d5b565b905095945050505050565b600081519050613def81612f7e565b92915050565b600060208284031215613e0b57613e0a612f48565b5b6000613e1984828501613de0565b91505092915050565b7f4e487b7100000000000000000000000000000000000000000000000000000000600052603160045260246000fdfea264697066735822122071fd38d1fc735d0bd6b3488a3ce03f047ba1b9bbe1ab55e92ba194eb78eb397c64736f6c6343000814003360806040523480156200001157600080fd5b5060405162001ba738038062001ba7833981810160405281019062000037919062000348565b33828281600390816200004b919062000618565b5080600490816200005d919062000618565b505050600073ffffffffffffffffffffffffffffffffffffffff168173ffffffffffffffffffffffffffffffffffffffff1603620000d55760006040517f1e4fbdf7000000000000000000000000000000000000000000000000000000008152600401620000cc919062000744565b60405180910390fd5b620000e681620000ef60201b60201c565b50505062000761565b6000600560009054906101000a900473ffffffffffffffffffffffffffffffffffffffff16905081600560006101000a81548173ffffffffffffffffffffffffffffffffffffffff021916908373ffffffffffffffffffffffffffffffffffffffff1602179055508173ffffffffffffffffffffffffffffffffffffffff168173ffffffffffffffffffffffffffffffffffffffff167f8be0079c531659141344cd1fd0a4f28419497f9722a3daafe3b4186f6b6457e060405160405180910390a35050565b6000604051905090565b600080fd5b600080fd5b600080fd5b600080fd5b6000601f19601f8301169050919050565b7f4e487b7100000000000000000000000000000000000000000000000000000000600052604160045260246000fd5b6200021e82620001d3565b810181811067ffffffffffffffff8211171562000240576200023f620001e4565b5b80604052505050565b600062000255620001b5565b905062000263828262000213565b919050565b600067ffffffffffffffff821115620002865762000285620001e4565b5b6200029182620001d3565b9050602081019050919050565b60005b83811015620002be578082015181840152602081019050620002a1565b60008484015250505050565b6000620002e1620002db8462000268565b62000249565b9050828152602081018484840111156200030057620002ff620001ce565b5b6200030d8482856200029e565b509392505050565b600082601f8301126200032d576200032c620001c9565b5b81516200033f848260208601620002ca565b91505092915050565b60008060408385031215620003625762000361620001bf565b5b600083015167ffffffffffffffff811115620003835762000382620001c4565b5b620003918582860162000315565b925050602083015167ffffffffffffffff811115620003b557620003b4620001c4565b5b620003c38582860162000315565b9150509250929050565b600081519050919050565b7f4e487b7100000000000000000000000000000000000000000000000000000000600052602260045260246000fd5b600060028204905060018216806200042057607f821691505b602082108103620004365762000435620003d8565b5b50919050565b60008190508160005260206000209050919050565b60006020601f8301049050919050565b600082821b905092915050565b600060088302620004a07fffffffffffffffffffffffffffffffffffffffffffffffffffffffffffffffff8262000461565b620004ac868362000461565b95508019841693508086168417925050509392505050565b6000819050919050565b6000819050919050565b6000620004f9620004f3620004ed84620004c4565b620004ce565b620004c4565b9050919050565b6000819050919050565b6200051583620004d8565b6200052d620005248262000500565b8484546200046e565b825550505050565b600090565b6200054462000535565b620005518184846200050a565b505050565b5b8181101562000579576200056d6000826200053a565b60018101905062000557565b5050565b601f821115620005c85762000592816200043c565b6200059d8462000451565b81016020851015620005ad578190505b620005c5620005bc8562000451565b83018262000556565b50505b505050565b600082821c905092915050565b6000620005ed60001984600802620005cd565b1980831691505092915050565b6000620006088383620005da565b9150826002028217905092915050565b6200062382620003cd565b67ffffffffffffffff8111156200063f576200063e620001e4565b5b6200064b825462000407565b620006588282856200057d565b600060209050601f8311600181146200069057600084156200067b578287015190505b620006878582620005fa565b865550620006f7565b601f198416620006a0866200043c565b60005b82811015620006ca57848901518255600182019150602085019450602081019050620006a3565b86831015620006ea5784890151620006e6601f891682620005da565b8355505b6001600288020188555050505b505050505050565b600073ffffffffffffffffffffffffffffffffffffffff82169050919050565b60006200072c82620006ff565b9050919050565b6200073e816200071f565b82525050565b60006020820190506200075b600083018462000733565b92915050565b61143680620007716000396000f3fe608060405234801561001057600080fd5b50600436106100f55760003560e01c806342966c681161009757806395d89b411161006657806395d89b411461024e578063a9059cbb1461026c578063dd62ed3e1461029c578063f2fde38b146102cc576100f5565b806342966c68146101da57806370a08231146101f6578063715018a6146102265780638da5cb5b14610230576100f5565b806323b872dd116100d357806323b872dd14610166578063313ce567146101965780633884d635146101b457806340c10f19146101be576100f5565b806306fdde03146100fa578063095ea7b31461011857806318160ddd14610148575b600080fd5b6101026102e8565b60405161010f9190610fcb565b60405180910390f35b610132600480360381019061012d9190611086565b61037a565b60405161013f91906110e1565b60405180910390f35b61015061039d565b60405161015d919061110b565b60405180910390f35b610180600480360381019061017b9190611126565b6103a7565b60405161018d91906110e1565b60405180910390f35b61019e6103d6565b6040516101ab9190611195565b60405180910390f35b6101bc6103df565b005b6101d860048036038101906101d39190611086565b6104d9565b005b6101f460048036038101906101ef91906111b0565b6104ef565b005b610210600480360381019061020b91906111dd565b610504565b60405161021d919061110b565b60405180910390f35b61022e61054c565b005b610238610560565b6040516102459190611219565b60405180910390f35b61025661058a565b6040516102639190610fcb565b60405180910390f35b61028660048036038101906102819190611086565b61061c565b60405161029391906110e1565b60405180910390f35b6102b660048036038101906102b19190611234565b61063f565b6040516102c3919061110b565b60405180910390f35b6102e660048036038101906102e191906111dd565b6106c6565b005b6060600380546102f7906112a3565b80601f0160208091040260200160405190810160405280929190818152602001828054610323906112a3565b80156103705780601f1061034557610100808354040283529160200191610370565b820191906000526020600020905b81548152906001019060200180831161035357829003601f168201915b5050505050905090565b60008061038561074c565b9050610392818585610754565b600191505092915050565b6000600254905090565b6000806103b261074c565b90506103bf858285610766565b6103ca8585856107fa565b60019150509392505050565b60006012905090565b60001515600660003373ffffffffffffffffffffffffffffffffffffffff1673ffffffffffffffffffffffffffffffffffffffff16815260200190815260200160002060009054906101000a900460ff16151514610472576040517f08c379a000000000000000000000000000000000000000000000000000000000815260040161046990611346565b60405180910390fd5b61047f33620186a06108ee565b6001600660003373ffffffffffffffffffffffffffffffffffffffff1673ffffffffffffffffffffffffffffffffffffffff16815260200190815260200160002060006101000a81548160ff021916908315150217905550565b6104e1610970565b6104eb82826108ee565b5050565b6104f7610970565b61050133826109f7565b50565b60008060008373ffffffffffffffffffffffffffffffffffffffff1673ffffffffffffffffffffffffffffffffffffffff168152602001908152602001600020549050919050565b610554610970565b61055e6000610a79565b565b6000600560009054906101000a900473ffffffffffffffffffffffffffffffffffffffff16905090565b606060048054610599906112a3565b80601f01602080910402602001604051908101604052809291908181526020018280546105c5906112a3565b80156106125780601f106105e757610100808354040283529160200191610612565b820191906000526020600020905b8154815290600101906020018083116105f557829003601f168201915b5050505050905090565b60008061062761074c565b90506106348185856107fa565b600191505092915050565b6000600160008473ffffffffffffffffffffffffffffffffffffffff1673ffffffffffffffffffffffffffffffffffffffff16815260200190815260200160002060008373ffffffffffffffffffffffffffffffffffffffff1673ffffffffffffffffffffffffffffffffffffffff16815260200190815260200160002054905092915050565b6106ce610970565b600073ffffffffffffffffffffffffffffffffffffffff168173ffffffffffffffffffffffffffffffffffffffff16036107405760006040517f1e4fbdf70000000000000000000000000000000000000000000000000000000081526004016107379190611219565b60405180910390fd5b61074981610a79565b50565b600033905090565b6107618383836001610b3f565b505050565b6000610772848461063f565b90507fffffffffffffffffffffffffffffffffffffffffffffffffffffffffffffffff81146107f457818110156107e4578281836040517ffb8f41b20000000000000000000000000000000000000000000000000000000081526004016107db93929190611366565b60405180910390fd5b6107f384848484036000610b3f565b5b50505050565b600073ffffffffffffffffffffffffffffffffffffffff168373ffffffffffffffffffffffffffffffffffffffff160361086c5760006040517f96c6fd1e0000000000000000000000000000000000000000000000000000000081526004016108639190611219565b60405180910390fd5b600073ffffffffffffffffffffffffffffffffffffffff168273ffffffffffffffffffffffffffffffffffffffff16036108de5760006040517fec442f050000000000000000000000000000000000000000000000000000000081526004016108d59190611219565b60405180910390fd5b6108e9838383610d16565b505050565b600073ffffffffffffffffffffffffffffffffffffffff168273ffffffffffffffffffffffffffffffffffffffff16036109605760006040517fec442f050000000000000000000000000000000000000000000000000000000081526004016109579190611219565b60405180910390fd5b61096c60008383610d16565b5050565b61097861074c565b73ffffffffffffffffffffffffffffffffffffffff16610996610560565b73ffffffffffffffffffffffffffffffffffffffff16146109f5576109b961074c565b6040517f118cdaa70000000000000000000000000000000000000000000000000000000081526004016109ec9190611219565b60405180910390fd5b565b600073ffffffffffffffffffffffffffffffffffffffff168273ffffffffffffffffffffffffffffffffffffffff1603610a695760006040517f96c6fd1e000000000000000000000000000000000000000000000000000000008152600401610a609190611219565b60405180910390fd5b610a7582600083610d16565b5050565b6000600560009054906101000a900473ffffffffffffffffffffffffffffffffffffffff16905081600560006101000a81548173ffffffffffffffffffffffffffffffffffffffff021916908373ffffffffffffffffffffffffffffffffffffffff1602179055508173ffffffffffffffffffffffffffffffffffffffff168173ffffffffffffffffffffffffffffffffffffffff167f8be0079c531659141344cd1fd0a4f28419497f9722a3daafe3b4186f6b6457e060405160405180910390a35050565b600073ffffffffffffffffffffffffffffffffffffffff168473ffffffffffffffffffffffffffffffffffffffff1603610bb15760006040517fe602df05000000000000000000000000000000000000000000000000000000008152600401610ba89190611219565b60405180910390fd5b600073ffffffffffffffffffffffffffffffffffffffff168373ffffffffffffffffffffffffffffffffffffffff1603610c235760006040517f94280d62000000000000000000000000000000000000000000000000000000008152600401610c1a9190611219565b60405180910390fd5b81600160008673ffffffffffffffffffffffffffffffffffffffff1673ffffffffffffffffffffffffffffffffffffffff16815260200190815260200160002060008573ffffffffffffffffffffffffffffffffffffffff1673ffffffffffffffffffffffffffffffffffffffff168152602001908152602001600020819055508015610d10578273ffffffffffffffffffffffffffffffffffffffff168473ffffffffffffffffffffffffffffffffffffffff167f8c5be1e5ebec7d5bd14f71427d1e84f3dd0314c0f7b2291e5b200ac8c7c3b92584604051610d07919061110b565b60405180910390a35b50505050565b600073ffffffffffffffffffffffffffffffffffffffff168373ffffffffffffffffffffffffffffffffffffffff1603610d68578060026000828254610d5c91906113cc565b92505081905550610e3b565b60008060008573ffffffffffffffffffffffffffffffffffffffff1673ffffffffffffffffffffffffffffffffffffffff16815260200190815260200160002054905081811015610df4578381836040517fe450d38c000000000000000000000000000000000000000000000000000000008152600401610deb93929190611366565b60405180910390fd5b8181036000808673ffffffffffffffffffffffffffffffffffffffff1673ffffffffffffffffffffffffffffffffffffffff16815260200190815260200160002081905550505b600073ffffffffffffffffffffffffffffffffffffffff168273ffffffffffffffffffffffffffffffffffffffff1603610e845780600260008282540392505081905550610ed1565b806000808473ffffffffffffffffffffffffffffffffffffffff1673ffffffffffffffffffffffffffffffffffffffff168152602001908152602001600020600082825401925050819055505b8173ffffffffffffffffffffffffffffffffffffffff168373ffffffffffffffffffffffffffffffffffffffff167fddf252ad1be2c89b69c2b068fc378daa952ba7f163c4a11628f55a4df523b3ef83604051610f2e919061110b565b60405180910390a3505050565b600081519050919050565b600082825260208201905092915050565b60005b83811015610f75578082015181840152602081019050610f5a565b60008484015250505050565b6000601f19601f8301169050919050565b6000610f9d82610f3b565b610fa78185610f46565b9350610fb7818560208601610f57565b610fc081610f81565b840191505092915050565b60006020820190508181036000830152610fe58184610f92565b905092915050565b600080fd5b600073ffffffffffffffffffffffffffffffffffffffff82169050919050565b600061101d82610ff2565b9050919050565b61102d81611012565b811461103857600080fd5b50565b60008135905061104a81611024565b92915050565b6000819050919050565b61106381611050565b811461106e57600080fd5b50565b6000813590506110808161105a565b92915050565b6000806040838503121561109d5761109c610fed565b5b60006110ab8582860161103b565b92505060206110bc85828601611071565b9150509250929050565b60008115159050919050565b6110db816110c6565b82525050565b60006020820190506110f660008301846110d2565b92915050565b61110581611050565b82525050565b600060208201905061112060008301846110fc565b92915050565b60008060006060848603121561113f5761113e610fed565b5b600061114d8682870161103b565b935050602061115e8682870161103b565b925050604061116f86828701611071565b9150509250925092565b600060ff82169050919050565b61118f81611179565b82525050565b60006020820190506111aa6000830184611186565b92915050565b6000602082840312156111c6576111c5610fed565b5b60006111d484828501611071565b91505092915050565b6000602082840312156111f3576111f2610fed565b5b60006112018482850161103b565b91505092915050565b61121381611012565b82525050565b600060208201905061122e600083018461120a565b92915050565b6000806040838503121561124b5761124a610fed565b5b60006112598582860161103b565b925050602061126a8582860161103b565b9150509250929050565b7f4e487b7100000000000000000000000000000000000000000000000000000000600052602260045260246000fd5b600060028204905060018216806112bb57607f821691505b6020821081036112ce576112cd611274565b5b50919050565b7f5468697320757365722068617320636c61696d65642061697264726f7020616c60008201527f7265616479000000000000000000000000000000000000000000000000000000602082015250565b6000611330602583610f46565b915061133b826112d4565b604082019050919050565b6000602082019050818103600083015261135f81611323565b9050919050565b600060608201905061137b600083018661120a565b61138860208301856110fc565b61139560408301846110fc565b949350505050565b7f4e487b7100000000000000000000000000000000000000000000000000000000600052601160045260246000fd5b60006113d782611050565b91506113e283611050565b92508282019050808211156113fa576113f961139d565b5b9291505056fea264697066735822122021ad3fbbda9c10b0dacdf015682a2cc716fed97fdb225423a35ffef8f3d074f664736f6c63430008140033",
  "linkReferences": {},
  "deployedLinkReferences": {}
}